{
  "_format": "hh-sol-artifact-1",
  "contractName": "BoldlyElephunkyNFT",
  "sourceName": "contracts/BoldlyElephunkyNFT.sol",
  "abi": [
    {
      "inputs": [],
      "stateMutability": "nonpayable",
      "type": "constructor"
    },
    {
      "anonymous": false,
      "inputs": [
        {
          "indexed": true,
          "internalType": "address",
          "name": "owner",
          "type": "address"
        },
        {
          "indexed": true,
          "internalType": "address",
          "name": "approved",
          "type": "address"
        },
        {
          "indexed": true,
          "internalType": "uint256",
          "name": "tokenId",
          "type": "uint256"
        }
      ],
      "name": "Approval",
      "type": "event"
    },
    {
      "anonymous": false,
      "inputs": [
        {
          "indexed": true,
          "internalType": "address",
          "name": "owner",
          "type": "address"
        },
        {
          "indexed": true,
          "internalType": "address",
          "name": "operator",
          "type": "address"
        },
        {
          "indexed": false,
          "internalType": "bool",
          "name": "approved",
          "type": "bool"
        }
      ],
      "name": "ApprovalForAll",
      "type": "event"
    },
    {
      "anonymous": false,
      "inputs": [
        {
          "indexed": true,
          "internalType": "address",
          "name": "from",
          "type": "address"
        },
        {
          "indexed": true,
          "internalType": "address",
          "name": "to",
          "type": "address"
        },
        {
          "indexed": true,
          "internalType": "uint256",
          "name": "tokenId",
          "type": "uint256"
        }
      ],
      "name": "Transfer",
      "type": "event"
    },
    {
      "inputs": [
        {
          "internalType": "address",
          "name": "to",
          "type": "address"
        },
        {
          "internalType": "uint256",
          "name": "tokenId",
          "type": "uint256"
        }
      ],
      "name": "approve",
      "outputs": [],
      "stateMutability": "nonpayable",
      "type": "function"
    },
    {
      "inputs": [
        {
          "internalType": "address",
          "name": "",
          "type": "address"
        }
      ],
      "name": "balanceOf",
      "outputs": [
        {
          "internalType": "uint256",
          "name": "",
          "type": "uint256"
        }
      ],
      "stateMutability": "view",
      "type": "function"
    },
    {
      "inputs": [],
      "name": "baseTokenURI",
      "outputs": [
        {
          "internalType": "string",
          "name": "",
          "type": "string"
        }
      ],
      "stateMutability": "view",
      "type": "function"
    },
    {
      "inputs": [
        {
          "internalType": "uint256",
          "name": "",
          "type": "uint256"
        }
      ],
      "name": "getApproved",
      "outputs": [
        {
          "internalType": "address",
          "name": "",
          "type": "address"
        }
      ],
      "stateMutability": "view",
      "type": "function"
    },
    {
      "inputs": [
        {
          "internalType": "address",
          "name": "",
          "type": "address"
        },
        {
          "internalType": "address",
          "name": "",
          "type": "address"
        }
      ],
      "name": "isApprovedForAll",
      "outputs": [
        {
          "internalType": "bool",
          "name": "",
          "type": "bool"
        }
      ],
      "stateMutability": "view",
      "type": "function"
    },
    {
      "inputs": [],
      "name": "maxSupply",
      "outputs": [
        {
          "internalType": "uint256",
          "name": "",
          "type": "uint256"
        }
      ],
      "stateMutability": "view",
      "type": "function"
    },
    {
      "inputs": [
        {
          "internalType": "address",
          "name": "to",
          "type": "address"
        }
      ],
      "name": "mint",
      "outputs": [],
      "stateMutability": "payable",
      "type": "function"
    },
    {
      "inputs": [],
      "name": "mintPrice",
      "outputs": [
        {
          "internalType": "uint256",
          "name": "",
          "type": "uint256"
        }
      ],
      "stateMutability": "view",
      "type": "function"
    },
    {
      "inputs": [],
      "name": "name",
      "outputs": [
        {
          "internalType": "string",
          "name": "",
          "type": "string"
        }
      ],
      "stateMutability": "view",
      "type": "function"
    },
    {
      "inputs": [],
      "name": "owner",
      "outputs": [
        {
          "internalType": "address",
          "name": "",
          "type": "address"
        }
      ],
      "stateMutability": "view",
      "type": "function"
    },
    {
      "inputs": [
        {
          "internalType": "uint256",
          "name": "",
          "type": "uint256"
        }
      ],
      "name": "ownerOf",
      "outputs": [
        {
          "internalType": "address",
          "name": "",
          "type": "address"
        }
      ],
      "stateMutability": "view",
      "type": "function"
    },
    {
      "inputs": [
        {
          "internalType": "address",
          "name": "operator",
          "type": "address"
        },
        {
          "internalType": "bool",
          "name": "approved",
          "type": "bool"
        }
      ],
      "name": "setApprovalForAll",
      "outputs": [],
      "stateMutability": "nonpayable",
      "type": "function"
    },
    {
      "inputs": [
        {
          "internalType": "string",
          "name": "newBaseURI",
          "type": "string"
        }
      ],
      "name": "setBaseURI",
      "outputs": [],
      "stateMutability": "nonpayable",
      "type": "function"
    },
    {
      "inputs": [
        {
          "internalType": "uint256",
          "name": "newPrice",
          "type": "uint256"
        }
      ],
      "name": "setMintPrice",
      "outputs": [],
      "stateMutability": "nonpayable",
      "type": "function"
    },
    {
      "inputs": [],
      "name": "symbol",
      "outputs": [
        {
          "internalType": "string",
          "name": "",
          "type": "string"
        }
      ],
      "stateMutability": "view",
      "type": "function"
    },
    {
      "inputs": [
        {
          "internalType": "uint256",
          "name": "",
          "type": "uint256"
        }
      ],
      "name": "tokenURI",
      "outputs": [
        {
          "internalType": "string",
          "name": "",
          "type": "string"
        }
      ],
      "stateMutability": "view",
      "type": "function"
    },
    {
      "inputs": [],
      "name": "totalSupply",
      "outputs": [
        {
          "internalType": "uint256",
          "name": "",
          "type": "uint256"
        }
      ],
      "stateMutability": "view",
      "type": "function"
    },
    {
      "inputs": [
        {
          "internalType": "address",
          "name": "from",
          "type": "address"
        },
        {
          "internalType": "address",
          "name": "to",
          "type": "address"
        },
        {
          "internalType": "uint256",
          "name": "tokenId",
          "type": "uint256"
        }
      ],
      "name": "transferFrom",
      "outputs": [],
      "stateMutability": "nonpayable",
      "type": "function"
    },
    {
      "inputs": [],
      "name": "withdraw",
      "outputs": [],
      "stateMutability": "nonpayable",
      "type": "function"
    }
  ],
  "bytecode": "0x608060405234620001cf576000620000188154620001d4565b90601f91828111620001a3575b5060206f426f6c646c7920456c657068756e6b7960801b0181556001916200004e8354620001d4565b81811162000175575b50600e661091531153919560ca1b01835581600255612710600355662386f26fc100006004556200008a600b54620001d4565b9080821162000115575b6053600b90815583527f68747470733a2f2f6170692e626f6c646c79656c657068756e6b792e636f6d2f7f0175b7a638427703f0dbe7bb9bbf987a2551717b34e79f33b5b1008d1fa01db9908155686d657461646174612f60b81b90850155600a80546001600160a01b03191633179055604051610d689081620002128239f35b600b83520160051c7f0175b7a638427703f0dbe7bb9bbf987a2551717b34e79f33b5b1008d1fa01db9017f0175b7a638427703f0dbe7bb9bbf987a2551717b34e79f33b5b1008d1fa01dbb5b818110156200009457828155830162000161565b838352838260208520920160051c8201915b8281106200019757505062000057565b84815501849062000187565b8180528260208320910160051c8101905b818110620001c3575062000025565b828155600101620001b4565b600080fd5b90600182811c9216801562000206575b6020831014620001f057565b634e487b7160e01b600052602260045260246000fd5b91607f1691620001e456fe60806040908082526004908136101561001757600080fd5b600092833560e01c91826306fdde0314610b0357508163081812fc14610acf578163095ea7b314610a0f57816318160ddd146109f057816323b872dd1461088c5781633ccfd60b1461083957816355f804b3146106465781636352211e146106125781636817c76c146105f35781636a627842146104c257816370a082311461048a5781638da5cb5b1461046157816395d89b41146103b9578163a22cb46514610338578163c87b56dd14610276578163d547cfb714610195578163d5abeb0114610176578163e985e9c514610128575063f4a0a528146100f757600080fd5b346101245760203660031901126101245761011d60018060a01b03600a54163314610cf6565b8035905580f35b5080fd5b83903461012457806003193601126101245760ff81602093610148610c63565b610150610c7e565b6001600160a01b0391821683526008875283832091168252855220549151911615158152f35b8390346101245781600319360112610124576020906003549051908152f35b83903461012457816003193601126101245780519082600b546101b781610ba8565b8085529160019180831690811561024e57506001146101f1575b5050506101e3826101ed940383610be2565b5191829182610c1a565b0390f35b9450600b85527f0175b7a638427703f0dbe7bb9bbf987a2551717b34e79f33b5b1008d1fa01db95b828610610236575050506101e38260206101ed95820101946101d1565b80546020878701810191909152909501948101610219565b6101ed9750869350602092506101e394915060ff191682840152151560051b820101946101d1565b9050346103345760209182600319360112610330573583526009825280832091815192848154906102a682610ba8565b8087529260019280841690811561030c57506001146102d1575b6101ed87876101e3828c0383610be2565b9080949750528583205b8284106102f957505050826101ed946101e3928201019438806102c0565b80548685018801529286019281016102db565b60ff19168887015250505050151560051b83010192506101e3826101ed38806102c0565b8380fd5b8280fd5b839034610124578060031936011261012457610352610c63565b90602435908115158092036103305733845260086020528084209260018060a01b03169283855260205280842060ff1981541660ff8416179055519081527f17307eab39ab6107e8899845ad3d59bd9653f200f220920489ca2b5937696c3160203392a380f35b8390346101245781600319360112610124578051908260018054916103dd83610ba8565b8086529282811690811561024e5750600114610405575050506101e3826101ed940383610be2565b94508085527fb10e2d527612073b26eecdfd717e6a320cf44b4afac2b0732d9fcbe2b7fa0cf65b828610610449575050506101e38260206101ed95820101946101d1565b8054602087870181019190915290950194810161042c565b839034610124578160031936011261012457600a5490516001600160a01b039091168152602090f35b8390346101245760203660031901126101245760209181906001600160a01b036104b2610c63565b1681526006845220549051908152f35b90506020366003190112610334576104d8610c63565b906002546003548110156105bb578354341061058157600181019384821161056e575061050490610c94565b6002558284526005602090815281852080546001600160a01b0319166001600160a01b039094169384179055828552600690528320805461054490610c94565b9055827fddf252ad1be2c89b69c2b068fc378daa952ba7f163c4a11628f55a4df523b3ef8180a480f35b634e487b7160e01b865260119052602485fd5b815162461bcd60e51b81526020818601526014602482015273125b9cdd59999a58da595b9d081c185e5b595b9d60621b6044820152606490fd5b815162461bcd60e51b8152602081860152601260248201527113585e081cdd5c1c1b1e481c995858da195960721b6044820152606490fd5b9190503461033457826003193601126103345760209250549051908152f35b919050346103345760203660031901126103345735825260056020908152918190205490516001600160a01b039091168152f35b838334610124576020806003193601126103345781359067ffffffffffffffff928383116108355736602384011215610835578281013595848711610822575195601f199361069c601f83018616850189610be2565b818852366024838301011161081e578187926024869301838b0137880101526106d060018060a01b03600a54163314610cf6565b855193841161080b57506106e5600b54610ba8565b601f81116107a9575b508091601f841160011461072b5750508293829392610720575b50508160011b916000199060031b1c191617600b5580f35b015190508380610708565b600b85528316947f0175b7a638427703f0dbe7bb9bbf987a2551717b34e79f33b5b1008d1fa01db9929185905b878210610791575050836001959610610778575b505050811b01600b5580f35b015160001960f88460031b161c1916905583808061076c565b80600185968294968601518155019501930190610758565b600b85527f0175b7a638427703f0dbe7bb9bbf987a2551717b34e79f33b5b1008d1fa01db9601f850160051c810191838610610801575b601f0160051c01905b8181106107f657506106ee565b8581556001016107e9565b90915081906107e0565b634e487b7160e01b855260419052602484fd5b8680fd5b634e487b7160e01b865260418252602486fd5b8480fd5b8390346101245781600319360112610124578180808060018060a01b03600a5416610865813314610cf6565b4790828215610883575bf115610879575080f35b51903d90823e3d90fd5b506108fc61086f565b91905034610334576060366003190112610334576108a8610c63565b6108b0610c7e565b6044359384865260206005815260018060a01b038080848a20541695168095036109c15784331480156109ac575b8015610990575b6108ee90610cb9565b868852600582528288209316946bffffffffffffffffffffffff60a01b9386858254161790558488526006825282882090815490811561097d57509060079291600019019055858852600681528288206109488154610c94565b90558688525285209081541690557fddf252ad1be2c89b69c2b068fc378daa952ba7f163c4a11628f55a4df523b3ef8480a480f35b634e487b7160e01b8a5260119052602489fd5b508488526008825282882033895282528288205460ff166108e5565b50868852600782523381848a205416146108de565b825162461bcd60e51b815280870183905260096024820152682737ba1037bbb732b960b91b6044820152606490fd5b8390346101245781600319360112610124576020906002549051908152f35b839034610124578060031936011261012457610a29610c63565b60243580845260056020528284205490926001600160a01b039182163381148015610aaf575b610a599150610cb9565b838552600760205281818620931692836bffffffffffffffffffffffff60a01b8254161790556005602052842054167f8c5be1e5ebec7d5bd14f71427d1e84f3dd0314c0f7b2291e5b200ac8c7c3b9258480a480f35b5085526008602052808520338652602052610a5960ff8287205416610a4f565b919050346103345760203660031901126103345735825260076020908152918190205490516001600160a01b039091168152f35b849134610334578260031936011261033457828054610b2181610ba8565b8085529160019180831690811561024e5750600114610b4c575050506101e3826101ed940383610be2565b80809650527f290decd9548b62a8d60345a988386fc84ba6bc95484008f6362f93160ef3e5635b828610610b90575050506101e38260206101ed95820101946101d1565b80546020878701810191909152909501948101610b73565b90600182811c92168015610bd8575b6020831014610bc257565b634e487b7160e01b600052602260045260246000fd5b91607f1691610bb7565b90601f8019910116810190811067ffffffffffffffff821117610c0457604052565b634e487b7160e01b600052604160045260246000fd5b6020808252825181830181905290939260005b828110610c4f57505060409293506000838284010152601f8019910116010190565b818101860151848201604001528501610c2d565b600435906001600160a01b0382168203610c7957565b600080fd5b602435906001600160a01b0382168203610c7957565b6000198114610ca35760010190565b634e487b7160e01b600052601160045260246000fd5b15610cc057565b60405162461bcd60e51b815260206004820152600e60248201526d139bdd08185d5d1a1bdc9a5e995960921b6044820152606490fd5b15610cfd57565b60405162461bcd60e51b815260206004820152600d60248201526c2737ba103a34329037bbb732b960991b6044820152606490fdfea2646970667358221220ec2f2ec36bfea70bf9faf591cb7b2f40281590487606ad8c7a24604bb3888a1964736f6c63430008130033",
  "linkReferences": {},
  "deployedLinkReferences": {}
}