{
  "_format": "hh-sol-artifact-1",
  "contractName": "BoldlyElephunkyNFTEnhanced",
  "sourceName": "contracts/BoldlyElephunkyNFT_Enhanced.sol",
  "abi": [
    {
      "inputs": [],
      "stateMutability": "nonpayable",
      "type": "constructor"
    },
    {
      "anonymous": false,
      "inputs": [
        {
          "indexed": true,
          "internalType": "address",
          "name": "owner",
          "type": "address"
        },
        {
          "indexed": true,
          "internalType": "address",
          "name": "approved",
          "type": "address"
        },
        {
          "indexed": true,
          "internalType": "uint256",
          "name": "tokenId",
          "type": "uint256"
        }
      ],
      "name": "Approval",
      "type": "event"
    },
    {
      "anonymous": false,
      "inputs": [
        {
          "indexed": true,
          "internalType": "address",
          "name": "owner",
          "type": "address"
        },
        {
          "indexed": true,
          "internalType": "address",
          "name": "operator",
          "type": "address"
        },
        {
          "indexed": false,
          "internalType": "bool",
          "name": "approved",
          "type": "bool"
        }
      ],
      "name": "ApprovalForAll",
      "type": "event"
    },
    {
      "anonymous": false,
      "inputs": [
        {
          "indexed": true,
          "internalType": "address",
          "name": "to",
          "type": "address"
        },
        {
          "indexed": true,
          "internalType": "uint256",
          "name": "tokenId",
          "type": "uint256"
        },
        {
          "indexed": false,
          "internalType": "uint256",
          "name": "price",
          "type": "uint256"
        }
      ],
      "name": "GenesisMint",
      "type": "event"
    },
    {
      "anonymous": false,
      "inputs": [
        {
          "indexed": true,
          "internalType": "address",
          "name": "from",
          "type": "address"
        },
        {
          "indexed": true,
          "internalType": "address",
          "name": "to",
          "type": "address"
        },
        {
          "indexed": true,
          "internalType": "uint256",
          "name": "tokenId",
          "type": "uint256"
        }
      ],
      "name": "Transfer",
      "type": "event"
    },
    {
      "inputs": [
        {
          "internalType": "address",
          "name": "to",
          "type": "address"
        },
        {
          "internalType": "uint256",
          "name": "tokenId",
          "type": "uint256"
        }
      ],
      "name": "approve",
      "outputs": [],
      "stateMutability": "nonpayable",
      "type": "function"
    },
    {
      "inputs": [
        {
          "internalType": "address",
          "name": "",
          "type": "address"
        }
      ],
      "name": "balanceOf",
      "outputs": [
        {
          "internalType": "uint256",
          "name": "",
          "type": "uint256"
        }
      ],
      "stateMutability": "view",
      "type": "function"
    },
    {
      "inputs": [],
      "name": "baseTokenURI",
      "outputs": [
        {
          "internalType": "string",
          "name": "",
          "type": "string"
        }
      ],
      "stateMutability": "view",
      "type": "function"
    },
    {
      "inputs": [
        {
          "internalType": "address",
          "name": "account",
          "type": "address"
        }
      ],
      "name": "genesisBalanceOf",
      "outputs": [
        {
          "internalType": "uint256",
          "name": "",
          "type": "uint256"
        }
      ],
      "stateMutability": "view",
      "type": "function"
    },
    {
      "inputs": [],
      "name": "genesisBaseURI",
      "outputs": [
        {
          "internalType": "string",
          "name": "",
          "type": "string"
        }
      ],
      "stateMutability": "view",
      "type": "function"
    },
    {
      "inputs": [],
      "name": "genesisCount",
      "outputs": [
        {
          "internalType": "uint256",
          "name": "",
          "type": "uint256"
        }
      ],
      "stateMutability": "view",
      "type": "function"
    },
    {
      "inputs": [
        {
          "internalType": "uint256",
          "name": "",
          "type": "uint256"
        }
      ],
      "name": "genesisPrice",
      "outputs": [
        {
          "internalType": "uint256",
          "name": "",
          "type": "uint256"
        }
      ],
      "stateMutability": "view",
      "type": "function"
    },
    {
      "inputs": [],
      "name": "genesisPriceMax",
      "outputs": [
        {
          "internalType": "uint256",
          "name": "",
          "type": "uint256"
        }
      ],
      "stateMutability": "view",
      "type": "function"
    },
    {
      "inputs": [],
      "name": "genesisPriceMin",
      "outputs": [
        {
          "internalType": "uint256",
          "name": "",
          "type": "uint256"
        }
      ],
      "stateMutability": "view",
      "type": "function"
    },
    {
      "inputs": [],
      "name": "genesisSupply",
      "outputs": [
        {
          "internalType": "uint256",
          "name": "",
          "type": "uint256"
        }
      ],
      "stateMutability": "view",
      "type": "function"
    },
    {
      "inputs": [
        {
          "internalType": "uint256",
          "name": "",
          "type": "uint256"
        }
      ],
      "name": "getApproved",
      "outputs": [
        {
          "internalType": "address",
          "name": "",
          "type": "address"
        }
      ],
      "stateMutability": "view",
      "type": "function"
    },
    {
      "inputs": [
        {
          "internalType": "address",
          "name": "account",
          "type": "address"
        }
      ],
      "name": "getTier",
      "outputs": [
        {
          "internalType": "string",
          "name": "",
          "type": "string"
        },
        {
          "internalType": "uint256",
          "name": "",
          "type": "uint256"
        }
      ],
      "stateMutability": "view",
      "type": "function"
    },
    {
      "inputs": [
        {
          "internalType": "uint256",
          "name": "tokenId",
          "type": "uint256"
        }
      ],
      "name": "getTokenURI",
      "outputs": [
        {
          "internalType": "string",
          "name": "",
          "type": "string"
        }
      ],
      "stateMutability": "view",
      "type": "function"
    },
    {
      "inputs": [
        {
          "internalType": "address",
          "name": "account",
          "type": "address"
        }
      ],
      "name": "hasGenesisNFT",
      "outputs": [
        {
          "internalType": "bool",
          "name": "",
          "type": "bool"
        }
      ],
      "stateMutability": "view",
      "type": "function"
    },
    {
      "inputs": [
        {
          "internalType": "address",
          "name": "",
          "type": "address"
        },
        {
          "internalType": "address",
          "name": "",
          "type": "address"
        }
      ],
      "name": "isApprovedForAll",
      "outputs": [
        {
          "internalType": "bool",
          "name": "",
          "type": "bool"
        }
      ],
      "stateMutability": "view",
      "type": "function"
    },
    {
      "inputs": [
        {
          "internalType": "uint256",
          "name": "tokenId",
          "type": "uint256"
        }
      ],
      "name": "isGenesis",
      "outputs": [
        {
          "internalType": "bool",
          "name": "",
          "type": "bool"
        }
      ],
      "stateMutability": "pure",
      "type": "function"
    },
    {
      "inputs": [],
      "name": "maxSupply",
      "outputs": [
        {
          "internalType": "uint256",
          "name": "",
          "type": "uint256"
        }
      ],
      "stateMutability": "view",
      "type": "function"
    },
    {
      "inputs": [
        {
          "internalType": "address",
          "name": "to",
          "type": "address"
        }
      ],
      "name": "mint",
      "outputs": [],
      "stateMutability": "payable",
      "type": "function"
    },
    {
      "inputs": [
        {
          "internalType": "address",
          "name": "to",
          "type": "address"
        }
      ],
      "name": "mintGenesis",
      "outputs": [],
      "stateMutability": "payable",
      "type": "function"
    },
    {
      "inputs": [],
      "name": "mintPrice",
      "outputs": [
        {
          "internalType": "uint256",
          "name": "",
          "type": "uint256"
        }
      ],
      "stateMutability": "view",
      "type": "function"
    },
    {
      "inputs": [],
      "name": "name",
      "outputs": [
        {
          "internalType": "string",
          "name": "",
          "type": "string"
        }
      ],
      "stateMutability": "view",
      "type": "function"
    },
    {
      "inputs": [],
      "name": "owner",
      "outputs": [
        {
          "internalType": "address",
          "name": "",
          "type": "address"
        }
      ],
      "stateMutability": "view",
      "type": "function"
    },
    {
      "inputs": [
        {
          "internalType": "address",
          "name": "to",
          "type": "address"
        },
        {
          "internalType": "uint256",
          "name": "amount",
          "type": "uint256"
        }
      ],
      "name": "ownerMintGenesis",
      "outputs": [],
      "stateMutability": "nonpayable",
      "type": "function"
    },
    {
      "inputs": [
        {
          "internalType": "uint256",
          "name": "",
          "type": "uint256"
        }
      ],
      "name": "ownerOf",
      "outputs": [
        {
          "internalType": "address",
          "name": "",
          "type": "address"
        }
      ],
      "stateMutability": "view",
      "type": "function"
    },
    {
      "inputs": [
        {
          "internalType": "address",
          "name": "operator",
          "type": "address"
        },
        {
          "internalType": "bool",
          "name": "approved",
          "type": "bool"
        }
      ],
      "name": "setApprovalForAll",
      "outputs": [],
      "stateMutability": "nonpayable",
      "type": "function"
    },
    {
      "inputs": [
        {
          "internalType": "string",
          "name": "newBaseURI",
          "type": "string"
        }
      ],
      "name": "setBaseURI",
      "outputs": [],
      "stateMutability": "nonpayable",
      "type": "function"
    },
    {
      "inputs": [
        {
          "internalType": "uint256",
          "name": "minPrice",
          "type": "uint256"
        },
        {
          "internalType": "uint256",
          "name": "maxPrice",
          "type": "uint256"
        }
      ],
      "name": "setGenesisPricing",
      "outputs": [],
      "stateMutability": "nonpayable",
      "type": "function"
    },
    {
      "inputs": [
        {
          "internalType": "string",
          "name": "newGenesisURI",
          "type": "string"
        }
      ],
      "name": "setGenesisURI",
      "outputs": [],
      "stateMutability": "nonpayable",
      "type": "function"
    },
    {
      "inputs": [
        {
          "internalType": "uint256",
          "name": "newPrice",
          "type": "uint256"
        }
      ],
      "name": "setMintPrice",
      "outputs": [],
      "stateMutability": "nonpayable",
      "type": "function"
    },
    {
      "inputs": [],
      "name": "symbol",
      "outputs": [
        {
          "internalType": "string",
          "name": "",
          "type": "string"
        }
      ],
      "stateMutability": "view",
      "type": "function"
    },
    {
      "inputs": [
        {
          "internalType": "uint256",
          "name": "",
          "type": "uint256"
        }
      ],
      "name": "tokenURI",
      "outputs": [
        {
          "internalType": "string",
          "name": "",
          "type": "string"
        }
      ],
      "stateMutability": "view",
      "type": "function"
    },
    {
      "inputs": [],
      "name": "totalSupply",
      "outputs": [
        {
          "internalType": "uint256",
          "name": "",
          "type": "uint256"
        }
      ],
      "stateMutability": "view",
      "type": "function"
    },
    {
      "inputs": [
        {
          "internalType": "address",
          "name": "from",
          "type": "address"
        },
        {
          "internalType": "address",
          "name": "to",
          "type": "address"
        },
        {
          "internalType": "uint256",
          "name": "tokenId",
          "type": "uint256"
        }
      ],
      "name": "transferFrom",
      "outputs": [],
      "stateMutability": "nonpayable",
      "type": "function"
    },
    {
      "inputs": [],
      "name": "withdraw",
      "outputs": [],
      "stateMutability": "nonpayable",
      "type": "function"
    }
  ],
  "bytecode": "0x6080604052346200020257600062000018815462000207565b601f90818111620001d6575b50602090816f426f6c646c7920456c657068756e6b7960801b0183556001916200004f835462000207565b828111620001a9575b50600e661091531153919560ca1b018355836002556127106003556064600455662386f26fc10000600555670de0b6b3a76400006006556722b1c8c1227a000060075583600e55620000ac60105462000207565b82811162000178575b5060536010556010845280842091686d657461646174612f60b81b847f68747470733a2f2f6170692e626f6c646c79656c657068756e6b792e636f6d2f9485815501556200010560115462000207565b9080821162000151575b50506051601190815584529092209182556767656e657369732f60c01b910155600f80546001600160a01b03191633179055604051611a199081620002458239f35b60118652828620910160051c8101906002015b818110156200010f57858155840162000164565b6010855283600284848820930160051c830192015b8281106200019d575050620000b5565b8681550184906200018d565b8385528383838720920160051c8201915b828110620001ca57505062000058565b868155018490620001ba565b8280528160208420910160051c8101905b818110620001f6575062000024565b838155600101620001e7565b600080fd5b90600182811c9216801562000239575b60208310146200022357565b634e487b7160e01b600052602260045260246000fd5b91607f16916200021756fe608060408181526004918236101561001657600080fd5b600092833560e01c91826306fdde03146111c757508163081812fc14611194578163095ea7b3146110d9578163177082e914610f9957816318160ddd14610f7a57816323b872dd14610e2e57816332f6ba6314610e0f5781633a75205114610de95781633bb3a24d14610db55781633ccfd60b14610d625781634bbf179b14610d4457816355f804b314610bfb5781636352211e14610bc85781636817c76c14610ba95781636a62784214610a4657816370a0823114610a0e5781638da5cb5b146109e5578163940203921461084257816394b96c3f1461080e57816395d89b4114610766578163976f39dc146107395781639f5081b9146105dd578163a22cb4651461055c578163ac3bae2014610534578163b45aae52146104f2578163c87b56dd14610411578163cb0f78b4146103f2578163d547cfb71461035a578163d5abeb011461033b578163e985e9c5146102ed578163f1e25ea8146102c1578163f4a0a5281461029257508063ff4d9bbc146101bc5763fffad3121461019b57600080fd5b346101b857816003193601126101b857602090600e549051908152f35b5080fd5b50346101b857816003193601126101b857805190826011546101dd8161126d565b8085529160019180831690811561026a575060011461021f575b5050506102098261021b9403836112d9565b5191829160208352602083019061131e565b0390f35b9450601185526000805160206119848339815191525b8286106102525750505061020982602061021b95820101946101f7565b80546020878701810191909152909501948101610235565b61021b97508693506020925061020994915060ff191682840152151560051b820101946101f7565b8390346101b85760203660031901126101b8576102ba60018060a01b03600f5416331461163a565b3560055580f35b8284346102ea5760203660031901126102ea57506102e1602092356113f9565b90519015158152f35b80fd5b5050346101b857806003193601126101b85760ff8160209361030d611343565b61031561135e565b6001600160a01b039182168352600b875283832091168252855220549151911615158152f35b5050346101b857816003193601126101b8576020906003549051908152f35b5050346101b857816003193601126101b8578051908260105461037c8161126d565b8085529160019180831690811561026a57506001146103a7575050506102098261021b9403836112d9565b9450601085526000805160206119c48339815191525b8286106103da5750505061020982602061021b95820101946101f7565b805460208787018101919091529095019481016103bd565b5050346101b857816003193601126101b8576020906007549051908152f35b919050346104ee57602091826003193601126104ea57358352600c82528083208151938491818154906104438261126d565b928386526001928884821691826000146104c0575050600114610482575b858861021b89610473848a03856112d9565b5192828493845283019061131e565b87945081939291528383205b8284106104a8575050508201018161047361021b38610461565b8054848a01860152889550879490930192810161048e565b60ff19168882015294151560051b87019094019450859350610473925061021b9150389050610461565b8380fd5b8280fd5b8284346102ea5760203660031901126102ea5750610516610511611343565b611532565b825183815292839261052a9184019061131e565b9060208301520390f35b9050346104ee5760203660031901126104ee576020928291358152600d845220549051908152f35b5050346101b857806003193601126101b857610576611343565b90602435908115158092036104ea57338452600b6020528084209260018060a01b03169283855260205280842060ff1981541660ff8416179055519081527f17307eab39ab6107e8899845ad3d59bd9653f200f220920489ca2b5937696c3160203392a380f35b83346102ea576105ec36611390565b9161060260018060a01b03600f5416331461163a565b82519067ffffffffffffffff8211610726575061062060115461126d565b601f81116106d5575b50602080601f83116001146106665750829382939261065b575b50508160011b916000199060031b1c19161760115580f35b015190508380610643565b60118452601f19831694600080516020611984833981519152929185905b8782106106bd5750508360019596106106a4575b505050811b0160115580f35b015160001960f88460031b161c19169055838080610698565b80600185968294968601518155019501930190610684565b60118352600080516020611984833981519152601f830160051c8101916020841061071c575b601f0160051c01905b8181106107115750610629565b838155600101610704565b90915081906106fb565b634e487b7160e01b835260419052602482fd5b5050346101b85760203660031901126101b85760209061075f61075a611343565b6114a7565b9051908152f35b5050346101b857816003193601126101b85780519082600180549161078a8361126d565b8086529282811690811561026a57506001146107b2575050506102098261021b9403836112d9565b94508085527fb10e2d527612073b26eecdfd717e6a320cf44b4afac2b0732d9fcbe2b7fa0cf65b8286106107f65750505061020982602061021b95820101946101f7565b805460208787018101919091529095019481016107d9565b919050346104ee573660031901126101b85761083560018060a01b03600f5416331461163a565b3560065560243560075580f35b90506020806003193601126104ea57610859611343565b91600e549080548210156109a257600654341061096157600754341161091e5750906108a57f7c642ce013dfe734ffc8bfb05e6bdd43cd27b66662fafbf691af73e53c52204192611411565b9384600e556108b5600254611411565b6002558486526008825280862080546001600160a01b0319166001600160a01b0390951694851790558386526009825280862080546108f390611411565b9055848652600d82523481872055518484876000805160206119a48339815191528180a4348152a380f35b845162461bcd60e51b8152908101839052601d60248201527f45786365656473206d6178696d756d2047656e657369732070726963650000006044820152606490fd5b606490838087519262461bcd60e51b845283015260248201527f496e73756666696369656e74207061796d656e7420666f722047656e657369736044820152fd5b845162461bcd60e51b8152908101839052601760248201527f416c6c2047656e65736973204e465473206d696e7465640000000000000000006044820152606490fd5b5050346101b857816003193601126101b857600f5490516001600160a01b039091168152602090f35b5050346101b85760203660031901126101b85760209181906001600160a01b03610a36611343565b1681526009845220549051908152f35b9160209150366003190182136104ea57610a5e611343565b9160025493600354851015610b7357600e54815491828210610b30576005543410610af65750610a9e60099392610a98610aa49389611525565b9061162d565b95611411565b6002558486526008815282862080546001600160a01b0319166001600160a01b0390951694851790558386525283208054610ade90611411565b9055826000805160206119a48339815191528180a480f35b845162461bcd60e51b81529081018490526014602482015273125b9cdd59999a58da595b9d081c185e5b595b9d60621b6044820152606490fd5b845162461bcd60e51b8152908101849052601a60248201527f47656e65736973207068617365206e6f7420636f6d706c6574650000000000006044820152606490fd5b915162461bcd60e51b815291820152601260248201527113585e081cdd5c1c1b1e481c995858da195960721b6044820152606490fd5b5050346101b857816003193601126101b8576020906005549051908152f35b9050346104ee5760203660031901126104ee5735825260086020908152918190205490516001600160a01b039091168152f35b83346102ea57610c0a36611390565b91610c2060018060a01b03600f5416331461163a565b82519067ffffffffffffffff82116107265750610c3e60105461126d565b601f8111610cf3575b50602080601f8311600114610c8457508293829392610c79575b50508160011b916000199060031b1c19161760105580f35b015190508380610c61565b60108452601f198316946000805160206119c4833981519152929185905b878210610cdb575050836001959610610cc2575b505050811b0160105580f35b015160001960f88460031b161c19169055838080610cb6565b80600185968294968601518155019501930190610ca2565b601083526000805160206119c4833981519152601f830160051c81019160208410610d3a575b601f0160051c01905b818110610d2f5750610c47565b838155600101610d22565b9091508190610d19565b9050346104ee57826003193601126104ee5760209250549051908152f35b5050346101b857816003193601126101b8578180808060018060a01b03600f5416610d8e81331461163a565b4790828215610dac575bf115610da2575080f35b51903d90823e3d90fd5b506108fc610d98565b8284346102ea5760203660031901126102ea5750610dd661021b92356116b3565b905191829160208352602083019061131e565b5050346101b85760203660031901126101b8576020906102e1610e0a611343565b611436565b5050346101b857816003193601126101b8576020906006549051908152f35b9050346104ee5760603660031901126104ee57610e49611343565b610e5161135e565b6044359384865260206008815260018060a01b038080848a2054169516809503610f4b578433148015610f36575b8015610f1a575b610e8f90611676565b868852600882528288209316946001600160601b0360a01b93868582541617905584885260098252828820908154908115610f07575090600a929160001901905585885260098152828820610ee48154611411565b90558688525285209081541690556000805160206119a48339815191528480a480f35b634e487b7160e01b8a5260119052602489fd5b50848852600b825282882033895282528288205460ff16610e86565b50868852600a82523381848a20541614610e7f565b825162461bcd60e51b815280870183905260096024820152682737ba1037bbb732b960b91b6044820152606490fd5b5050346101b857816003193601126101b8576020906002549051908152f35b9050346104ee57816003193601126104ee57610fb3611343565b916024359060018060a01b03610fce81600f5416331461163a565b600e93610fdc84865461162d565b81541061109d5750859492949216915b848110610ff7578580f35b611098906110058554611411565b80865560026110148154611411565b9055808852847f7c642ce013dfe734ffc8bfb05e6bdd43cd27b66662fafbf691af73e53c522041602060088152868b20836001600160601b0360a01b825416179055828b5260098152868b2061106a8154611411565b9055838b52600d81528a87812055865184848d6000805160206119a48339815191528180a48b8152a3611411565b610fec565b606490602084519162461bcd60e51b83528201526016602482015275457863656564732047656e6573697320737570706c7960501b6044820152fd5b5050346101b857806003193601126101b8576110f3611343565b60243580845260086020528284205490926001600160a01b039182163381148015611174575b6111239150611676565b838552600a60205281818620931692836001600160601b0360a01b8254161790556008602052842054167f8c5be1e5ebec7d5bd14f71427d1e84f3dd0314c0f7b2291e5b200ac8c7c3b9258480a480f35b508552600b60205280852033865260205261112360ff8287205416611119565b9050346104ee5760203660031901126104ee57358252600a6020908152918190205490516001600160a01b039091168152f35b849084346104ee57826003193601126104ee578280546111e68161126d565b8085529160019180831690811561026a5750600114611211575050506102098261021b9403836112d9565b80809650527f290decd9548b62a8d60345a988386fc84ba6bc95484008f6362f93160ef3e5635b8286106112555750505061020982602061021b95820101946101f7565b80546020878701810191909152909501948101611238565b90600182811c9216801561129d575b602083101461128757565b634e487b7160e01b600052602260045260246000fd5b91607f169161127c565b6040810190811067ffffffffffffffff8211176112c357604052565b634e487b7160e01b600052604160045260246000fd5b90601f8019910116810190811067ffffffffffffffff8211176112c357604052565b60005b83811061130e5750506000910152565b81810151838201526020016112fe565b90602091611337815180928185528580860191016112fb565b601f01601f1916010190565b600435906001600160a01b038216820361135957565b600080fd5b602435906001600160a01b038216820361135957565b67ffffffffffffffff81116112c357601f01601f191660200190565b60206003198201126113595760043567ffffffffffffffff81116113595781602382011215611359578060040135906113c882611374565b926113d660405194856112d9565b828452602483830101116113595781600092602460209301838601378301015290565b60018110159081611408575090565b60649150111590565b60001981146114205760010190565b634e487b7160e01b600052601160045260246000fd5b600e546001918291825b61144e575b50505050600090565b808311158061149c575b15611497576000838152600860205260409020548493906001600160a01b038481169116146114905761148a90611411565b92611440565b5050505090565b611445565b506064831115611458565b600080916001908180600e54915b6114c2575b505050505090565b818111158061151a575b1561151557808552600860205260408520546001600160a01b03848116911614611500575b6114fa90611411565b836114b5565b9461150d6114fa91611411565b9590506114f1565b6114ba565b5060648111156114cc565b9190820391821161142057565b61153b816114a7565b9060018060a01b03166000526020906009825260409061155f818360002054611525565b901561158a57506647656e6573697360c81b90519161157d836112a7565b6007835282015290601e90565b600381106115b8575067506c6174696e756d60c01b9051916115ab836112a7565b6008835282015290601e90565b600281106115e257506311dbdb1960e21b9051916115d5836112a7565b6004835282015290601490565b60011161160c576529b4b63b32b960d11b9051916115ff836112a7565b6006835282015290600a90565b634e6f6e6560e01b905191611620836112a7565b6004835282015290600090565b9190820180921161142057565b1561164157565b60405162461bcd60e51b815260206004820152600d60248201526c2737ba103a34329037bbb732b960991b6044820152606490fd5b1561167d57565b60405162461bcd60e51b815260206004820152600e60248201526d139bdd08185d5d1a1bdc9a5e995960921b6044820152606490fd5b6000818152600860209081526040822054919290916001600160a01b031615611851576116df816113f9565b156117ba576116ed9061188d565b60405192839181601154906117018261126d565b9160019081811690811561179a5750600114611751575b5050509281611733856005959461174e9751948592016112fb565b0164173539b7b760d91b815203601a198101845201826112d9565b90565b9091929350601182526000805160206119848339815191525b838310611784575050508201830190806117336005611718565b805488840188015287955091860191810161176a565b60ff19168888015250505080151502830184019150806117336005611718565b6117c39061188d565b60405192839181601054906117d78261126d565b9160019081811690811561179a5750600114611808575050509281611733856005959461174e9751948592016112fb565b9091929350601082526000805160206119c48339815191525b83831061183b575050508201830190806117336005611718565b8054888401880152879550918601918101611821565b60405162461bcd60e51b8152600481018390526014602482015273151bdad95b88191bd95cc81b9bdd08195e1a5cdd60621b6044820152606490fd5b80156119655780816000925b61195157506118a782611374565b916118b560405193846112d9565b80835281601f196118c583611374565b01916020923684870137925b6118db5750505090565b60001983019283116114205782600a808304928184029184830414841517156114205761190b60ff928392611525565b1660300190811161142057855182101561193b5760f81b6001600160f81b03191660001a908501830153806118d1565b634e487b7160e01b600052603260045260246000fd5b9161195d600a91611411565b920480611899565b50604051611972816112a7565b60018152600360fc1b60208201529056fe31ecc21a745e3968a04e9570e4425bc18fa8019c68028196b546d1669c200c68ddf252ad1be2c89b69c2b068fc378daa952ba7f163c4a11628f55a4df523b3ef1b6847dc741a1b0cd08d278845f9d819d87b734759afb55fe2de5cb82a9ae672a26469706673582212205f3f5156d8f4f0a26b2c63f9c18e6a2701937565bb560af90555ca1b0a0246b264736f6c63430008130033",
  "linkReferences": {},
  "deployedLinkReferences": {}
}