{
  "_format": "hh-sol-artifact-1",
  "contractName": "ContentFlowCore",
  "sourceName": "contracts/ContentFlowCore.sol",
  "abi": [
    {
      "inputs": [
        {
          "internalType": "address",
          "name": "_hvnaToken",
          "type": "address"
        }
      ],
      "stateMutability": "nonpayable",
      "type": "constructor"
    },
    {
      "anonymous": false,
      "inputs": [
        {
          "indexed": true,
          "internalType": "uint256",
          "name": "contentId",
          "type": "uint256"
        },
        {
          "indexed": true,
          "internalType": "address",
          "name": "creator",
          "type": "address"
        },
        {
          "indexed": false,
          "internalType": "enum ContentFlowCore.ContentType",
          "name": "contentType",
          "type": "uint8"
        }
      ],
      "name": "ContentCreated",
      "type": "event"
    },
    {
      "anonymous": false,
      "inputs": [
        {
          "indexed": true,
          "internalType": "address",
          "name": "creator",
          "type": "address"
        },
        {
          "indexed": false,
          "internalType": "string",
          "name": "username",
          "type": "string"
        }
      ],
      "name": "CreatorRegistered",
      "type": "event"
    },
    {
      "anonymous": false,
      "inputs": [
        {
          "indexed": true,
          "internalType": "uint256",
          "name": "contentId",
          "type": "uint256"
        },
        {
          "indexed": true,
          "internalType": "address",
          "name": "user",
          "type": "address"
        },
        {
          "indexed": false,
          "internalType": "enum ContentFlowCore.EngagementType",
          "name": "engagementType",
          "type": "uint8"
        }
      ],
      "name": "EngagementRecorded",
      "type": "event"
    },
    {
      "anonymous": false,
      "inputs": [
        {
          "indexed": true,
          "internalType": "uint256",
          "name": "contentId",
          "type": "uint256"
        },
        {
          "indexed": false,
          "internalType": "uint256",
          "name": "score",
          "type": "uint256"
        }
      ],
      "name": "QualityScoreAssigned",
      "type": "event"
    },
    {
      "anonymous": false,
      "inputs": [
        {
          "indexed": true,
          "internalType": "address",
          "name": "creator",
          "type": "address"
        },
        {
          "indexed": false,
          "internalType": "uint256",
          "name": "amount",
          "type": "uint256"
        }
      ],
      "name": "RewardsPaid",
      "type": "event"
    },
    {
      "inputs": [],
      "name": "BASIS_POINTS",
      "outputs": [
        {
          "internalType": "uint256",
          "name": "",
          "type": "uint256"
        }
      ],
      "stateMutability": "view",
      "type": "function"
    },
    {
      "inputs": [
        {
          "internalType": "address",
          "name": "moderator",
          "type": "address"
        }
      ],
      "name": "addModerator",
      "outputs": [],
      "stateMutability": "nonpayable",
      "type": "function"
    },
    {
      "inputs": [
        {
          "internalType": "uint256",
          "name": "contentId",
          "type": "uint256"
        },
        {
          "internalType": "uint256",
          "name": "score",
          "type": "uint256"
        }
      ],
      "name": "assignQualityScore",
      "outputs": [],
      "stateMutability": "nonpayable",
      "type": "function"
    },
    {
      "inputs": [
        {
          "internalType": "enum ContentFlowCore.EngagementType",
          "name": "",
          "type": "uint8"
        }
      ],
      "name": "baseRewards",
      "outputs": [
        {
          "internalType": "uint256",
          "name": "",
          "type": "uint256"
        }
      ],
      "stateMutability": "view",
      "type": "function"
    },
    {
      "inputs": [],
      "name": "claimRewards",
      "outputs": [],
      "stateMutability": "nonpayable",
      "type": "function"
    },
    {
      "inputs": [
        {
          "internalType": "uint256",
          "name": "",
          "type": "uint256"
        }
      ],
      "name": "content",
      "outputs": [
        {
          "internalType": "uint256",
          "name": "id",
          "type": "uint256"
        },
        {
          "internalType": "address",
          "name": "creator",
          "type": "address"
        },
        {
          "internalType": "string",
          "name": "contentHash",
          "type": "string"
        },
        {
          "internalType": "string",
          "name": "title",
          "type": "string"
        },
        {
          "internalType": "uint256",
          "name": "timestamp",
          "type": "uint256"
        },
        {
          "internalType": "uint256",
          "name": "likes",
          "type": "uint256"
        },
        {
          "internalType": "uint256",
          "name": "shares",
          "type": "uint256"
        },
        {
          "internalType": "uint256",
          "name": "comments",
          "type": "uint256"
        },
        {
          "internalType": "uint256",
          "name": "views",
          "type": "uint256"
        },
        {
          "internalType": "uint256",
          "name": "earnings",
          "type": "uint256"
        },
        {
          "internalType": "enum ContentFlowCore.ContentType",
          "name": "contentType",
          "type": "uint8"
        },
        {
          "internalType": "bool",
          "name": "isNFT",
          "type": "bool"
        },
        {
          "internalType": "uint256",
          "name": "nftPrice",
          "type": "uint256"
        }
      ],
      "stateMutability": "view",
      "type": "function"
    },
    {
      "inputs": [],
      "name": "contentCounter",
      "outputs": [
        {
          "internalType": "uint256",
          "name": "",
          "type": "uint256"
        }
      ],
      "stateMutability": "view",
      "type": "function"
    },
    {
      "inputs": [
        {
          "internalType": "enum ContentFlowCore.ContentType",
          "name": "",
          "type": "uint8"
        }
      ],
      "name": "contentMultipliers",
      "outputs": [
        {
          "internalType": "uint256",
          "name": "",
          "type": "uint256"
        }
      ],
      "stateMutability": "view",
      "type": "function"
    },
    {
      "inputs": [
        {
          "internalType": "string",
          "name": "contentHash",
          "type": "string"
        },
        {
          "internalType": "string",
          "name": "title",
          "type": "string"
        },
        {
          "internalType": "enum ContentFlowCore.ContentType",
          "name": "contentType",
          "type": "uint8"
        },
        {
          "internalType": "bool",
          "name": "isNFT",
          "type": "bool"
        },
        {
          "internalType": "uint256",
          "name": "nftPrice",
          "type": "uint256"
        }
      ],
      "name": "createContent",
      "outputs": [],
      "stateMutability": "nonpayable",
      "type": "function"
    },
    {
      "inputs": [
        {
          "internalType": "address",
          "name": "",
          "type": "address"
        },
        {
          "internalType": "uint256",
          "name": "",
          "type": "uint256"
        }
      ],
      "name": "creatorContent",
      "outputs": [
        {
          "internalType": "uint256",
          "name": "",
          "type": "uint256"
        }
      ],
      "stateMutability": "view",
      "type": "function"
    },
    {
      "inputs": [
        {
          "internalType": "address",
          "name": "",
          "type": "address"
        }
      ],
      "name": "creators",
      "outputs": [
        {
          "internalType": "address",
          "name": "wallet",
          "type": "address"
        },
        {
          "internalType": "string",
          "name": "username",
          "type": "string"
        },
        {
          "internalType": "string",
          "name": "profileHash",
          "type": "string"
        },
        {
          "internalType": "uint256",
          "name": "totalEarnings",
          "type": "uint256"
        },
        {
          "internalType": "uint256",
          "name": "contentCount",
          "type": "uint256"
        },
        {
          "internalType": "uint256",
          "name": "followerCount",
          "type": "uint256"
        },
        {
          "internalType": "bool",
          "name": "isVerified",
          "type": "bool"
        },
        {
          "internalType": "uint256",
          "name": "joinedTimestamp",
          "type": "uint256"
        }
      ],
      "stateMutability": "view",
      "type": "function"
    },
    {
      "inputs": [],
      "name": "emergencyWithdraw",
      "outputs": [],
      "stateMutability": "nonpayable",
      "type": "function"
    },
    {
      "inputs": [
        {
          "internalType": "uint256",
          "name": "contentId",
          "type": "uint256"
        },
        {
          "internalType": "enum ContentFlowCore.EngagementType",
          "name": "engagementType",
          "type": "uint8"
        }
      ],
      "name": "engage",
      "outputs": [],
      "stateMutability": "nonpayable",
      "type": "function"
    },
    {
      "inputs": [
        {
          "internalType": "uint256",
          "name": "contentId",
          "type": "uint256"
        }
      ],
      "name": "getContentStats",
      "outputs": [
        {
          "internalType": "uint256",
          "name": "likes",
          "type": "uint256"
        },
        {
          "internalType": "uint256",
          "name": "shares",
          "type": "uint256"
        },
        {
          "internalType": "uint256",
          "name": "comments",
          "type": "uint256"
        },
        {
          "internalType": "uint256",
          "name": "views",
          "type": "uint256"
        },
        {
          "internalType": "uint256",
          "name": "earnings",
          "type": "uint256"
        }
      ],
      "stateMutability": "view",
      "type": "function"
    },
    {
      "inputs": [
        {
          "internalType": "address",
          "name": "creator",
          "type": "address"
        }
      ],
      "name": "getCreatorContent",
      "outputs": [
        {
          "internalType": "uint256[]",
          "name": "",
          "type": "uint256[]"
        }
      ],
      "stateMutability": "view",
      "type": "function"
    },
    {
      "inputs": [
        {
          "internalType": "address",
          "name": "creator",
          "type": "address"
        }
      ],
      "name": "getPendingRewards",
      "outputs": [
        {
          "internalType": "uint256",
          "name": "",
          "type": "uint256"
        }
      ],
      "stateMutability": "view",
      "type": "function"
    },
    {
      "inputs": [
        {
          "internalType": "uint256",
          "name": "contentId",
          "type": "uint256"
        }
      ],
      "name": "getQualityMultiplier",
      "outputs": [
        {
          "internalType": "uint256",
          "name": "",
          "type": "uint256"
        }
      ],
      "stateMutability": "view",
      "type": "function"
    },
    {
      "inputs": [
        {
          "internalType": "bytes32",
          "name": "",
          "type": "bytes32"
        }
      ],
      "name": "hasEngaged",
      "outputs": [
        {
          "internalType": "bool",
          "name": "",
          "type": "bool"
        }
      ],
      "stateMutability": "view",
      "type": "function"
    },
    {
      "inputs": [],
      "name": "hvnaToken",
      "outputs": [
        {
          "internalType": "contract IERC20",
          "name": "",
          "type": "address"
        }
      ],
      "stateMutability": "view",
      "type": "function"
    },
    {
      "inputs": [],
      "name": "owner",
      "outputs": [
        {
          "internalType": "address",
          "name": "",
          "type": "address"
        }
      ],
      "stateMutability": "view",
      "type": "function"
    },
    {
      "inputs": [
        {
          "internalType": "address",
          "name": "",
          "type": "address"
        }
      ],
      "name": "pendingRewards",
      "outputs": [
        {
          "internalType": "uint256",
          "name": "",
          "type": "uint256"
        }
      ],
      "stateMutability": "view",
      "type": "function"
    },
    {
      "inputs": [],
      "name": "platformFeeRate",
      "outputs": [
        {
          "internalType": "uint256",
          "name": "",
          "type": "uint256"
        }
      ],
      "stateMutability": "view",
      "type": "function"
    },
    {
      "inputs": [
        {
          "internalType": "address",
          "name": "",
          "type": "address"
        }
      ],
      "name": "qualityModerators",
      "outputs": [
        {
          "internalType": "bool",
          "name": "",
          "type": "bool"
        }
      ],
      "stateMutability": "view",
      "type": "function"
    },
    {
      "inputs": [
        {
          "internalType": "uint256",
          "name": "",
          "type": "uint256"
        }
      ],
      "name": "qualityScores",
      "outputs": [
        {
          "internalType": "uint256",
          "name": "",
          "type": "uint256"
        }
      ],
      "stateMutability": "view",
      "type": "function"
    },
    {
      "inputs": [
        {
          "internalType": "string",
          "name": "username",
          "type": "string"
        },
        {
          "internalType": "string",
          "name": "profileHash",
          "type": "string"
        }
      ],
      "name": "registerCreator",
      "outputs": [],
      "stateMutability": "nonpayable",
      "type": "function"
    },
    {
      "inputs": [
        {
          "internalType": "address",
          "name": "moderator",
          "type": "address"
        }
      ],
      "name": "removeModerator",
      "outputs": [],
      "stateMutability": "nonpayable",
      "type": "function"
    },
    {
      "inputs": [
        {
          "internalType": "uint256",
          "name": "newFeeRate",
          "type": "uint256"
        }
      ],
      "name": "setPlatformFee",
      "outputs": [],
      "stateMutability": "nonpayable",
      "type": "function"
    },
    {
      "inputs": [
        {
          "internalType": "address",
          "name": "_treasury",
          "type": "address"
        }
      ],
      "name": "setTreasuryContract",
      "outputs": [],
      "stateMutability": "nonpayable",
      "type": "function"
    },
    {
      "inputs": [],
      "name": "totalRewardsPaid",
      "outputs": [
        {
          "internalType": "uint256",
          "name": "",
          "type": "uint256"
        }
      ],
      "stateMutability": "view",
      "type": "function"
    },
    {
      "inputs": [],
      "name": "treasuryContract",
      "outputs": [
        {
          "internalType": "address",
          "name": "",
          "type": "address"
        }
      ],
      "stateMutability": "view",
      "type": "function"
    },
    {
      "inputs": [
        {
          "internalType": "enum ContentFlowCore.ContentType",
          "name": "contentType",
          "type": "uint8"
        },
        {
          "internalType": "uint256",
          "name": "multiplier",
          "type": "uint256"
        }
      ],
      "name": "updateContentMultiplier",
      "outputs": [],
      "stateMutability": "nonpayable",
      "type": "function"
    },
    {
      "inputs": [
        {
          "internalType": "enum ContentFlowCore.EngagementType",
          "name": "engagementType",
          "type": "uint8"
        },
        {
          "internalType": "uint256",
          "name": "newRate",
          "type": "uint256"
        }
      ],
      "name": "updateRewardRate",
      "outputs": [],
      "stateMutability": "nonpayable",
      "type": "function"
    },
    {
      "inputs": [
        {
          "internalType": "address",
          "name": "creator",
          "type": "address"
        }
      ],
      "name": "verifyCreator",
      "outputs": [],
      "stateMutability": "nonpayable",
      "type": "function"
    }
  ],
  "bytecode": "0x60803461010c57601f611e4c38819003918201601f191683019291906001600160401b0384118385101761011157816020928492604096875283398101031261010c57516001600160a01b0381169081900361010c5781614e209160009081600a5581600b556101f4600c5560018060a01b031990818354161782553390600154161760015560038152600360205266038d7ea4c68000828220558080526611c37937e080008282205560028152662386f26fc10000828220556001815266470de4df8200008282205580805260046020526127108282205560018152612ee08282205560038152613a9882822055600281526146508282205560048152205551611d2490816101288239f35b600080fd5b634e487b7160e01b600052604160045260246000fdfe608080604052600436101561001357600080fd5b60003560e01c908163011c67561461184d57508063106b40291461182157806312e8e2c3146117b65780631555ee591461157d57806318da0011146115545780631ed651101461150857806325b49f30146114ca57806331d7a2621461018a578063372500ab146112845780633a060f57146112535780633b4d8faf146112145780634128f9c014610d1c57806367690c6714610c045780636a480eb814610bac5780636fd3b8c514610b8657806374958e3514610b68578063869d785f14610b1c5780638da5cb5b14610af3578063933166e114610a3a57806398dd1b65146109cf5780639b5ca076146109a7578063a99d640514610976578063b532e4cb14610927578063b9f8d3b4146104fa578063baa0b80614610403578063db2e21bc146102e7578063e0b1fb06146102a6578063e1f1c4a714610289578063e6a9aba31461026b578063eeca08f01461024d578063f25057f314610224578063f595b55f146101c95763f6ed20171461018a57600080fd5b346101c45760203660031901126101c4576001600160a01b036101ab6118fd565b1660005260096020526020604060002054604051908152f35b600080fd5b346101c45760203660031901126101c457600435600052600660205260a06040600020600581015490600681015490600781015460096008830154920154926040519485526020850152604084015260608301526080820152f35b346101c45760003660031901126101c4576000546040516001600160a01b039091168152602090f35b346101c45760003660031901126101c4576020600c54604051908152f35b346101c45760003660031901126101c4576020600a54604051908152f35b346101c45760003660031901126101c45760206040516127108152f35b346101c45760403660031901126101c45760043560048110156101c4576102d860018060a01b03600154163314611cb1565b6102e460243591611af1565b55005b346101c45760003660031901126101c4576001546001600160a01b0390811690610312338314611cb1565b600054166040516370a0823160e01b81523060048201526020928382602481865afa9081156103c45784926000926103d0575b5060405163a9059cbb60e01b81526001600160a01b039091166004820152602481019190915291829081600081604481015b03925af19081156103c45761039592600092610397575b5050611be8565b005b6103b69250803d106103bd575b6103ae8183611913565b810190611bd0565b828061038e565b503d6103a4565b6040513d6000823e3d90fd5b8381949293503d83116103fc575b6103e88183611913565b810103126101c45790518391610377610345565b503d6103de565b346101c45760203660031901126101c4576004356000908152600660205260409020805460018201546001600160a01b031691610442600282016119f2565b61044e600383016119f2565b9160048101549260058201546006830154600784015490600885015492600986015494600a87015496600b0154976040519b8c9b8c5260208c01526101a08060408d01528b0161049d91611a98565b8a810360608c01526104ae91611a98565b9760808a015260a089015260c088015260e0870152610100860152610120850152610140840160ff8216906104e291611b0a565b60081c60ff1615156101608401526101808301520390f35b346101c45760403660031901126101c4576004356001600160401b0381116101c45761052a903690600401611934565b6024356001600160401b0381116101c457610549903690600401611934565b9033600052600560205260018060a01b0380604060002054166108ed578151156108b4576040519261010084018481106001600160401b038211176107dd57604052338452602084019083825260408501526000606085015260006080850152600060a0850152600060c08501524260e08501523360005260056020526040600020918451166001600160601b0360a01b835416178255519283516001600160401b0381116107dd576105ff60018401546119b8565b601f811161086d575b506020601f82116001146107fe5781929394956000926107f3575b50508160011b916000199060031b1c19161760018301555b60408101518051906001600160401b0382116107dd5761065e60028501546119b8565b601f8111610796575b50602090601f83116001146107215791806007949260e094600092610716575b50508160011b916000199060031b1c19161760028501555b606081015160038501556080810151600485015560a081015160058501556006840160c0820151151560ff8019835416911617905501519101557f436a110767b6510e398091d7e698dbc3a574692ec743e8e40f4fb1ccefc00fc8604051602081528061071133946020830190611a98565b0390a2005b015190508780610687565b906002850160005260206000209160005b601f198516811061077e5750926007949260019260e09583601f19811610610765575b505050811b01600285015561069f565b015160001960f88460031b161c19169055878080610755565b91926020600181928685015181550194019201610732565b600285016000526020600020601f840160051c8101602085106107d6575b601f830160051c820181106107ca575050610667565b600081556001016107b4565b50806107b4565b634e487b7160e01b600052604160045260246000fd5b015190508580610623565b6001840160005260206000209060005b601f1984168110610855575060019394959683601f1981161061083c575b505050811b01600183015561063b565b015160001960f88460031b161c1916905585808061082c565b9091602060018192858b01518155019301910161080e565b600184016000526020600020601f830160051c8101602084106108ad575b601f830160051c820181106108a1575050610608565b6000815560010161088b565b508061088b565b60405162461bcd60e51b8152602060048201526011602482015270155cd95c9b985b59481c995c5d5a5c9959607a1b6044820152606490fd5b60405162461bcd60e51b8152602060048201526012602482015271105b1c9958591e481c9959da5cdd195c995960721b6044820152606490fd5b346101c45760203660031901126101c4576109406118fd565b6001546001600160a01b03919061095a9083163314611cb1565b166000908152600e60205260409020805460ff19166001179055005b346101c45760203660031901126101c45760043560048110156101c45761099e602091611af1565b54604051908152f35b346101c45760203660031901126101c45760043560058110156101c45761099e602091611ad8565b346101c45760203660031901126101c4576109e86118fd565b610a1c60018060a01b038092610a0382600154163314611cb1565b1691826000526005602052604060002054161515611b17565b6000908152600560205260409020600601805460ff19166001179055005b346101c45760203660031901126101c4576001600160a01b0380610a5c6118fd565b166000526005602052604060002090815416610a7a600183016119f2565b91610a87600282016119f2565b6003820154916004810154600582015490610ad3600760ff60068601541694015494610ac5604051998a998a526101008060208c01528a0190611a98565b9088820360408a0152611a98565b946060870152608086015260a0850152151560c084015260e08301520390f35b346101c45760003660031901126101c4576001546040516001600160a01b039091168152602090f35b346101c45760203660031901126101c457610b356118fd565b6001546001600160a01b039190610b4f9083163314611cb1565b166000908152600e60205260409020805460ff19169055005b346101c45760003660031901126101c4576020600b54604051908152f35b346101c45760203660031901126101c4576020610ba4600435611c26565b604051908152f35b346101c45760403660031901126101c457610bc56118fd565b6001600160a01b03166000908152600860205260409020805460243591908210156101c457602091610bf69161198a565b90546040519160031b1c8152f35b346101c45760403660031901126101c45760043560243533600052602090600e825260ff604060002054168015610d08575b15610cd1578260005260068252610c536040600020541515611b6b565b60648111610c9657907fc5180866d4a659b4cddc4f3d5389547cbb93126abc23bf63e16b5f24479591bc9183600052600d825280604060002055604051908152a2005b60405162461bcd60e51b8152600481018390526013602482015272053636f7265206d75737420626520302d31303606c1b6044820152606490fd5b60405162461bcd60e51b815260048101839052600f60248201526e2737ba10309036b7b232b930ba37b960891b6044820152606490fd5b506001546001600160a01b03163314610c36565b346101c45760a03660031901126101c4576004356001600160401b0381116101c457610d4c903690600401611934565b6024356001600160401b0381116101c457610d6b903690600401611934565b90600560443510156101c45760643580151581036101c45733600090815260056020526040902054610da7906001600160a01b03161515611b17565b8151156111d757610db9600a54611b5c565b9283600a55604051926101a084018481106001600160401b038211176107dd5760405284845233602085015260408401526060830152426080830152600060a0830152600060c0830152600060e0830152600061010083015260006101208301526044356101408301521515610160820152608435610180820152816000526006602052604060002091815183556001830160018060a01b036020840151166001600160601b0360a01b82541617905560408201519283516001600160401b0381116107dd57610e8c60028301546119b8565b601f8111611190575b506020601f8211600114611121578192939495600092611116575b50508160011b916000199060031b1c19161760028201555b60608301519283516001600160401b0381116107dd57610eeb60038401546119b8565b601f81116110cf575b506020601f8211600114611060578192939495600092611055575b50508160011b916000199060031b1c19161760038301555b6080810151600483015560a0810151600583015560c0810151600683015560e0810151600783015561010081015160088301556101208101516009830155600a82019061014081015190600582101561103f578261018092600b945460ff61ff00610160860151151560081b1692169061ffff191617179055015191015533600052600860205260406000208054680100000000000000008110156107dd57610fd59160018201815561198a565b81549060031b9083821b91600019901b191617905533600052600560205260046040600020016110058154611b5c565b90556040519061101782604435611b0a565b7f4e716e36620037529d65998fd9203d52b005dd338f5c2f3cc8f22de4b5df4b9260203393a3005b634e487b7160e01b600052602160045260246000fd5b015190508580610f0f565b6003840160005260206000209060005b601f19841681106110b7575060019394959683601f1981161061109e575b505050811b016003830155610f27565b015160001960f88460031b161c1916905585808061108e565b9091602060018192858b015181550193019101611070565b600384016000526020600020601f830160051c81016020841061110f575b601f830160051c82018110611103575050610ef4565b600081556001016110ed565b50806110ed565b015190508580610eb0565b6002830160005260206000209060005b601f1984168110611178575060019394959683601f1981161061115f575b505050811b016002820155610ec8565b015160001960f88460031b161c1916905585808061114f565b9091602060018192858b015181550193019101611131565b600283016000526020600020601f830160051c8101602084106111d0575b601f830160051c820181106111c4575050610e95565b600081556001016111ae565b50806111ae565b60405162461bcd60e51b815260206004820152601560248201527410dbdb9d195b9d081a185cda081c995c5d5a5c9959605a1b6044820152606490fd5b346101c45760203660031901126101c4576001600160a01b036112356118fd565b16600052600e602052602060ff604060002054166040519015158152f35b346101c45760203660031901126101c4576004356000526007602052602060ff604060002054166040519015158152f35b346101c45760003660031901126101c4573360005260206005815260018060a01b03906112b982604060002054161515611b17565b336000526009815260406000205491821561148f576127106112dd600c5485611bb0565b0490818403938085116114795761131e90336000526009855260006040812055600585526003604060002001611314878254611bc3565b9055600b54611bc3565b600b556000805460405163a9059cbb60e01b808252336004830152602482018890529392909186918391604491839187165af180156103c4576113699160009161145c575b50611be8565b80600254169081151580611453575b6113ab575b857fd5ec1b97fc4d048ade361b013c285a0a5c1c40ae32579013ad3798ee657d9de7866040519283523392a2005b600080546040519485526001600160a01b03939093166004850152602484019490945291928492849260449284929091165af19081156103c457600091611436575b50156113fc578280808061137d565b6064906040519062461bcd60e51b825260048201526013602482015272119959481d1c985b9cd9995c8819985a5b1959606a1b6044820152fd5b61144d9150823d84116103bd576103ae8183611913565b836113ed565b50831515611378565b6114739150863d88116103bd576103ae8183611913565b87611363565b634e487b7160e01b600052601160045260246000fd5b60405162461bcd60e51b81526004810183905260136024820152724e6f207265776172647320746f20636c61696d60681b6044820152606490fd5b346101c45760403660031901126101c45760043560058110156101c4576114fc60018060a01b03600154163314611cb1565b6102e460243591611ad8565b346101c45760203660031901126101c4576115216118fd565b6001546001600160a01b03919061153b9083163314611cb1565b166001600160601b0360a01b6002541617600255600080f35b346101c45760003660031901126101c4576002546040516001600160a01b039091168152602090f35b346101c45760403660031901126101c4576004356024359060048210156101c4578060005260069160208381526115ba6040600020541515611b6b565b6040518181013360601b81528460348301528360f81b60548301526035825260608201908282106001600160401b038311176107dd57816040528251902091826000526007845260ff6040600020541661178457505060009081526007825260408120805460ff19166001179055938261170d578360005280825260056040600020016116478154611b5c565b90555b620f424061168e61165a85611af1565b548660005283855261168961167960ff600a6040600020015416611ad8565b5461168389611c26565b92611bb0565b611bb0565b04908460005280835260018060a01b03600160406000200154166000526009835260406000206116bf838254611bc3565b90558460005282526116da6009604060002001918254611bc3565b90556040519361103f577f4a2c78e395a7dfef4cd9f0299e8f5128c1eead06e6f3cf816c5354386b3af3fb9184523393a3005b60009450600183036117395783600052808252806040600020016117318154611b5c565b90555b61164a565b600094506002830361175e578360005280825260076040600020016117318154611b5c565b600094506002198301611734578360005280825260086040600020016117318154611b5c565b906e105b1c9958591e48195b99d859d959608a1b60a46064938662461bcd60e51b855285820152600f60848201520152fd5b346101c45760203660031901126101c4576004356117df60018060a01b03600154163314611cb1565b6103e881116117ed57600c55005b60405162461bcd60e51b815260206004820152600c60248201526b08ccaca40e8dede40d0d2ced60a31b6044820152606490fd5b346101c45760203660031901126101c457600435600052600d6020526020604060002054604051908152f35b346101c457602090816003193601126101c4576001600160a01b036118706118fd565b166000526008825260406000208054808352838301908192600052846000209060005b868282106118e95786866118a982880383611913565b604051928392818401908285525180915260408401929160005b8281106118d257505050500390f35b8351855286955093810193928101926001016118c3565b835485529093019260019283019201611893565b600435906001600160a01b03821682036101c457565b90601f801991011681019081106001600160401b038211176107dd57604052565b81601f820112156101c4578035906001600160401b0382116107dd5760405192611968601f8401601f191660200185611913565b828452602083830101116101c457816000926020809301838601378301015290565b80548210156119a25760005260206000200190600090565b634e487b7160e01b600052603260045260246000fd5b90600182811c921680156119e8575b60208310146119d257565b634e487b7160e01b600052602260045260246000fd5b91607f16916119c7565b9060405191826000825492611a06846119b8565b908184526001948581169081600014611a755750600114611a32575b5050611a3092500383611913565b565b9093915060005260209081600020936000915b818310611a5d575050611a3093508201013880611a22565b85548884018501529485019487945091830191611a45565b915050611a3094506020925060ff191682840152151560051b8201013880611a22565b919082519283825260005b848110611ac4575050826000602080949584010152601f8019910116010190565b602081830181015184830182015201611aa3565b600581101561103f576000526004602052604060002090565b600481101561103f576000526003602052604060002090565b90600582101561103f5752565b15611b1e57565b60405162461bcd60e51b815260206004820152601660248201527510dc99585d1bdc881b9bdd081c9959da5cdd195c995960521b6044820152606490fd5b60001981146114795760010190565b15611b7257565b60405162461bcd60e51b815260206004820152601660248201527510dbdb9d195b9d08191bd95cc81b9bdd08195e1a5cdd60521b6044820152606490fd5b8181029291811591840414171561147957565b9190820180921161147957565b908160209103126101c4575180151581036101c45790565b15611bef57565b60405162461bcd60e51b815260206004820152600f60248201526e151c985b9cd9995c8819985a5b1959608a1b6044820152606490fd5b6000908152600d60205260408120548015611caa5760328111611c67576032019081603211611c53575090565b634e487b7160e01b81526011600452602490fd5b6031198101908111611c96578060011b9080820460021490151715611c96576064019081606411611c53575090565b634e487b7160e01b82526011600452602482fd5b5050606490565b15611cb857565b60405162461bcd60e51b815260206004820152600e60248201526d139bdd08185d5d1a1bdc9a5e995960921b6044820152606490fdfea26469706673582212206d8b8e2f282a376d6ad84ddac6d97f257b913e929ba39bb5acf62f26e73ae75264736f6c63430008130033",
  "linkReferences": {},
  "deployedLinkReferences": {}
}