{
  "_format": "hh-sol-artifact-1",
  "contractName": "Governance",
  "sourceName": "contracts/Governance.sol",
  "abi": [
    {
      "inputs": [
        {
          "internalType": "address",
          "name": "_hvnaToken",
          "type": "address"
        }
      ],
      "stateMutability": "nonpayable",
      "type": "constructor"
    },
    {
      "anonymous": false,
      "inputs": [
        {
          "indexed": true,
          "internalType": "uint256",
          "name": "proposalId",
          "type": "uint256"
        },
        {
          "indexed": true,
          "internalType": "address",
          "name": "proposer",
          "type": "address"
        },
        {
          "indexed": false,
          "internalType": "string",
          "name": "title",
          "type": "string"
        },
        {
          "indexed": false,
          "internalType": "enum Governance.ProposalType",
          "name": "proposalType",
          "type": "uint8"
        }
      ],
      "name": "ProposalCreated",
      "type": "event"
    },
    {
      "anonymous": false,
      "inputs": [
        {
          "indexed": true,
          "internalType": "uint256",
          "name": "proposalId",
          "type": "uint256"
        },
        {
          "indexed": false,
          "internalType": "uint256",
          "name": "winningOption",
          "type": "uint256"
        }
      ],
      "name": "ProposalExecuted",
      "type": "event"
    },
    {
      "anonymous": false,
      "inputs": [
        {
          "indexed": true,
          "internalType": "uint256",
          "name": "proposalId",
          "type": "uint256"
        },
        {
          "indexed": true,
          "internalType": "address",
          "name": "voter",
          "type": "address"
        },
        {
          "indexed": false,
          "internalType": "uint256",
          "name": "option",
          "type": "uint256"
        },
        {
          "indexed": false,
          "internalType": "uint256",
          "name": "weight",
          "type": "uint256"
        }
      ],
      "name": "VoteCast",
      "type": "event"
    },
    {
      "inputs": [],
      "name": "MIN_TOKENS_TO_PROPOSE",
      "outputs": [
        {
          "internalType": "uint256",
          "name": "",
          "type": "uint256"
        }
      ],
      "stateMutability": "view",
      "type": "function"
    },
    {
      "inputs": [],
      "name": "MIN_TOKENS_TO_VOTE",
      "outputs": [
        {
          "internalType": "uint256",
          "name": "",
          "type": "uint256"
        }
      ],
      "stateMutability": "view",
      "type": "function"
    },
    {
      "inputs": [],
      "name": "VOTING_PERIOD",
      "outputs": [
        {
          "internalType": "uint256",
          "name": "",
          "type": "uint256"
        }
      ],
      "stateMutability": "view",
      "type": "function"
    },
    {
      "inputs": [
        {
          "internalType": "string",
          "name": "title",
          "type": "string"
        },
        {
          "internalType": "string",
          "name": "description",
          "type": "string"
        },
        {
          "internalType": "string[]",
          "name": "options",
          "type": "string[]"
        },
        {
          "internalType": "enum Governance.ProposalType",
          "name": "proposalType",
          "type": "uint8"
        }
      ],
      "name": "createProposal",
      "outputs": [
        {
          "internalType": "uint256",
          "name": "",
          "type": "uint256"
        }
      ],
      "stateMutability": "nonpayable",
      "type": "function"
    },
    {
      "inputs": [
        {
          "internalType": "uint256",
          "name": "proposalId",
          "type": "uint256"
        }
      ],
      "name": "executeProposal",
      "outputs": [
        {
          "internalType": "uint256",
          "name": "winningOption",
          "type": "uint256"
        }
      ],
      "stateMutability": "nonpayable",
      "type": "function"
    },
    {
      "inputs": [
        {
          "internalType": "uint256",
          "name": "proposalId",
          "type": "uint256"
        }
      ],
      "name": "getAllVotes",
      "outputs": [
        {
          "internalType": "uint256[]",
          "name": "",
          "type": "uint256[]"
        }
      ],
      "stateMutability": "view",
      "type": "function"
    },
    {
      "inputs": [
        {
          "internalType": "uint256",
          "name": "proposalId",
          "type": "uint256"
        }
      ],
      "name": "getProposal",
      "outputs": [
        {
          "internalType": "address",
          "name": "proposer",
          "type": "address"
        },
        {
          "internalType": "string",
          "name": "title",
          "type": "string"
        },
        {
          "internalType": "string",
          "name": "description",
          "type": "string"
        },
        {
          "internalType": "string[]",
          "name": "options",
          "type": "string[]"
        },
        {
          "internalType": "uint256",
          "name": "startTime",
          "type": "uint256"
        },
        {
          "internalType": "uint256",
          "name": "endTime",
          "type": "uint256"
        },
        {
          "internalType": "bool",
          "name": "executed",
          "type": "bool"
        },
        {
          "internalType": "uint256",
          "name": "totalVotes",
          "type": "uint256"
        },
        {
          "internalType": "enum Governance.ProposalType",
          "name": "proposalType",
          "type": "uint8"
        }
      ],
      "stateMutability": "view",
      "type": "function"
    },
    {
      "inputs": [
        {
          "internalType": "uint256",
          "name": "proposalId",
          "type": "uint256"
        },
        {
          "internalType": "uint256",
          "name": "optionIndex",
          "type": "uint256"
        }
      ],
      "name": "getVotes",
      "outputs": [
        {
          "internalType": "uint256",
          "name": "",
          "type": "uint256"
        }
      ],
      "stateMutability": "view",
      "type": "function"
    },
    {
      "inputs": [
        {
          "internalType": "uint256",
          "name": "proposalId",
          "type": "uint256"
        },
        {
          "internalType": "address",
          "name": "voter",
          "type": "address"
        }
      ],
      "name": "hasVoted",
      "outputs": [
        {
          "internalType": "bool",
          "name": "",
          "type": "bool"
        }
      ],
      "stateMutability": "view",
      "type": "function"
    },
    {
      "inputs": [],
      "name": "hvnaToken",
      "outputs": [
        {
          "internalType": "contract IERC20",
          "name": "",
          "type": "address"
        }
      ],
      "stateMutability": "view",
      "type": "function"
    },
    {
      "inputs": [],
      "name": "owner",
      "outputs": [
        {
          "internalType": "address",
          "name": "",
          "type": "address"
        }
      ],
      "stateMutability": "view",
      "type": "function"
    },
    {
      "inputs": [],
      "name": "proposalCounter",
      "outputs": [
        {
          "internalType": "uint256",
          "name": "",
          "type": "uint256"
        }
      ],
      "stateMutability": "view",
      "type": "function"
    },
    {
      "inputs": [
        {
          "internalType": "uint256",
          "name": "",
          "type": "uint256"
        }
      ],
      "name": "proposals",
      "outputs": [
        {
          "internalType": "uint256",
          "name": "id",
          "type": "uint256"
        },
        {
          "internalType": "address",
          "name": "proposer",
          "type": "address"
        },
        {
          "internalType": "string",
          "name": "title",
          "type": "string"
        },
        {
          "internalType": "string",
          "name": "description",
          "type": "string"
        },
        {
          "internalType": "uint256",
          "name": "startTime",
          "type": "uint256"
        },
        {
          "internalType": "uint256",
          "name": "endTime",
          "type": "uint256"
        },
        {
          "internalType": "bool",
          "name": "executed",
          "type": "bool"
        },
        {
          "internalType": "uint256",
          "name": "totalVotes",
          "type": "uint256"
        },
        {
          "internalType": "enum Governance.ProposalType",
          "name": "proposalType",
          "type": "uint8"
        }
      ],
      "stateMutability": "view",
      "type": "function"
    },
    {
      "inputs": [
        {
          "internalType": "uint256",
          "name": "newAmount",
          "type": "uint256"
        }
      ],
      "name": "updateMinTokensToPropose",
      "outputs": [],
      "stateMutability": "nonpayable",
      "type": "function"
    },
    {
      "inputs": [
        {
          "internalType": "uint256",
          "name": "newPeriod",
          "type": "uint256"
        }
      ],
      "name": "updateVotingPeriod",
      "outputs": [],
      "stateMutability": "nonpayable",
      "type": "function"
    },
    {
      "inputs": [
        {
          "internalType": "uint256",
          "name": "proposalId",
          "type": "uint256"
        },
        {
          "internalType": "uint256",
          "name": "optionIndex",
          "type": "uint256"
        }
      ],
      "name": "vote",
      "outputs": [],
      "stateMutability": "nonpayable",
      "type": "function"
    },
    {
      "inputs": [
        {
          "internalType": "address",
          "name": "",
          "type": "address"
        }
      ],
      "name": "votingPower",
      "outputs": [
        {
          "internalType": "uint256",
          "name": "",
          "type": "uint256"
        }
      ],
      "stateMutability": "view",
      "type": "function"
    }
  ],
  "bytecode": "0x60803461008157601f6114a038819003918201601f19168301916001600160401b038311848410176100865780849260209460405283398101031261008157516001600160a01b0381169081900361008157600060025560018060a01b03199081600054161760005533906001541617600155604051611403908161009d8239f35b600080fd5b634e487b7160e01b600052604160045260246000fdfe6080604052600436101561001257600080fd5b60003560e01c8063013cf08b146110555780630c0512e9146110375780630d61b51914610ef45780631e796070146107c95780633f86aca514610105578063438596321461077457806344897a6b1461067e5780638da5cb5b1461065557806391f366331461061f578063b1610d7e14610601578063b384abef1461032f578063b6de6d1f1461030b578063c07473f6146102cd578063c7f758a814610144578063d3d2286914610120578063ef00ef43146101055763f25057f3146100d757600080fd5b34610100576000366003190112610100576000546040516001600160a01b039091168152602090f35b600080fd5b346101005760203660031901126101005761011e611383565b005b3461010057600036600319011261010057602060405168056bc75e2d631000008152f35b34610100576020806003193601126101005760043560005260038152604060002061017181541515611337565b60019060018060a01b038282015416916004820191600581015460068201549060ff60078401541692600a8101549460ff600b83015416986101c160036101ba60028601611176565b9401611176565b8854936101cd856112d6565b946101db6040519687611154565b808652838601809b600052846000206000915b8383106102ad575050505090610219610227926040519c8d52848d61012091829101528d019061121c565b908b820360408d015261121c565b9289840360608b0152519081845280840193818360051b82010199946000915b84831061027f578c808f61027b8f918f8f8f8f608088015260a0870152151560c086015260e085015261010084019061125c565b0390f35b9091929394848061029c899e849a601f198783030188525161121c565b9d0193019301919594939290610247565b968087819a996102bc85611176565b8152019201920191909796976101ee565b34610100576020366003190112610100576004356001600160a01b038116908190036101005760005260046020526020604060002054604051908152f35b34610100576000366003190112610100576020604051683635c9adc5dea000008152f35b346101005761033d366112ee565b9060018060a01b03600054166040516370a0823160e01b80825233600483015260209160249083818381885afa80156104a9576000906105cb575b68056bc75e2d631000009150106105885784600052600383526040600020916103a383541515611337565b6005830154421061054f576006830154421161051c5760098301913360005282855260ff604060002054166104e95760048401548810156104b5579084916040518097819382523360048301525afa9384156104a957600094610477575b5090600a9186600052600882018452604060002061042086825461132a565b90553360005283526040600020600160ff198254161790550161044483825461132a565b90556040519384528301527f0271f53eebbe20450d9578f28ec279231556c34545b30e2278d754ffd39cd63c60403393a3005b919093508282813d83116104a2575b6104908183611154565b8101031261010057905192600a610401565b503d610486565b6040513d6000823e3d90fd5b84600e6064926040519262461bcd60e51b845260048401528201526d24b73b30b634b21037b83a34b7b760911b6044820152fd5b84600d6064926040519262461bcd60e51b845260048401528201526c105b1c9958591e481d9bdd1959609a1b6044820152fd5b60405162461bcd60e51b815260048101859052600c818401526b159bdd1a5b99c8195b99195960a21b6044820152606490fd5b60405162461bcd60e51b81526004810185905260128184015271159bdd1a5b99c81b9bdd081cdd185c9d195960721b6044820152606490fd5b82601b6064926040519262461bcd60e51b845260048401528201527f496e73756666696369656e7420746f6b656e7320746f20766f746500000000006044820152fd5b508381813d83116105fa575b6105e18183611154565b810103126101005768056bc75e2d631000009051610378565b503d6105d7565b3461010057600036600319011261010057602060405162093a808152f35b346101005761062d366112ee565b9060005260036020526008604060002001906000526020526020604060002054604051908152f35b34610100576000366003190112610100576001546040516001600160a01b039091168152602090f35b3461010057602080600319360112610100576004356000526003815260406000206106ab81541515611337565b60048101546106b9816112d6565b906106c76040519283611154565b8082526106d3816112d6565b8285019390601f190136853760080160005b8281106107305750505090604051928392818401908285525180915260408401929160005b82811061071957505050500390f35b83518552869550938101939281019260010161070a565b8060005281865260406000205490845181101561075e5761075991878260051b87010152611304565b6106e5565b634e487b7160e01b600052603260045260246000fd5b34610100576040366003190112610100576024356001600160a01b03811690819003610100576004356000526003602052600960406000200190600052602052602060ff604060002054166040519015158152f35b346101005760803660031901126101005760043567ffffffffffffffff8111610100576107fa90369060040161127f565b60243567ffffffffffffffff81116101005761081a90369060040161127f565b906044359067ffffffffffffffff82116101005736602383011215610100578160040135610847816112d6565b926108556040519485611154565b81845260208401906024829360051b820101903682116101005760248101925b828410610ec4575050505060056064351015610100576000546040516370a0823160e01b815233600482015290602090829060249082906001600160a01b03165afa80156104a957600090610e89575b683635c9adc5dea00000915010610e4457825160028110159081610e38575b5015610df357815115610db6576108fc600254611304565b928360025583600052600360205260406000209484865560018601336bffffffffffffffffffffffff60a01b825416179055835167ffffffffffffffff8111610be157600287019061094e825461111a565b601f8111610d84575b50806020601f8211600114610d1d57600091610d12575b508160011b916000199060031b1c19161790555b805167ffffffffffffffff8111610be1578060038801926109a3845461111a565b601f8111610ce0575b50602090601f8311600114610c7a57600092610c6f575b50508160011b916000199060031b1c19161790555b5190680100000000000000008211610be1576004850154826004870155808310610bf7575b5090600485016000526020600020916000905b828210610ac0575050505042600584015562093a80420192834211610aaa576020936006820155600b600782019160ff1992838154169055019081541660ff60643516179055817fe0269f7953e70365e80e614e4efe7d4bede59b7f5ad80982ea4064c97ee6f4ef610a8d6040519360408552604085019061121c565b92610a9c86820160643561125c565b8033940390a3604051908152f35b634e487b7160e01b600052601160045260246000fd5b805180519067ffffffffffffffff8211610be157610ade865461111a565b601f8111610ba4575b50602090601f8311600114610b34579282600194936020938695600092610b29575b5050600019600383901b1c191690841b1787555b01940191019092610a10565b015190508c80610b09565b908660005260206000209160005b601f1985168110610b8c575083602093600196938796938794601f19811610610b73575b505050811b018755610b1d565b015160001960f88460031b161c191690558c8080610b66565b91926020600181928685015181550194019201610b42565b610bd190876000526020600020601f850160051c81019160208610610bd7575b601f0160051c0190611313565b89610ae7565b9091508190610bc4565b634e487b7160e01b600052604160045260246000fd5b600486016000526020600020908382015b8183018110610c185750506109fd565b80610c256001925461111a565b80610c32575b5001610c08565b601f81118314610c485750600081555b89610c2b565b600090828252610c66601f60208420920160051c8201858301611313565b81835555610c42565b0151905088806109c3565b6000858152602081209350601f198516905b818110610cc85750908460019594939210610caf575b505050811b0190556109d8565b015160001960f88460031b161c19169055888080610ca2565b92936020600181928786015181550195019301610c8c565b610d0c90856000526020600020601f850160051c81019160208610610bd757601f0160051c0190611313565b896109ac565b90508601518961096e565b91508260005260206000206000925b601f1983168410610d6c576001935082601f19811610610d53575b5050811b019055610982565b88015160001960f88460031b161c191690558980610d47565b88810151825560209384019360019092019101610d2c565b610db090836000526020600020601f840160051c81019160208510610bd757601f0160051c0190611313565b88610957565b60405162461bcd60e51b81526020600482015260156024820152745469746c652063616e6e6f7420626520656d70747960581b6044820152606490fd5b60405162461bcd60e51b815260206004820152601960248201527f496e76616c6964206e756d626572206f66206f7074696f6e73000000000000006044820152606490fd5b600a91501115856108e4565b60405162461bcd60e51b815260206004820152601e60248201527f496e73756666696369656e7420746f6b656e7320746f2070726f706f736500006044820152606490fd5b506020813d602011610ebc575b81610ea360209383611154565b8101031261010057683635c9adc5dea0000090516108c5565b3d9150610e96565b833567ffffffffffffffff811161010057602091610ee983926024369187010161127f565b815201930192610875565b3461010057602080600319360112610100576004358060005260038252604060002090610f2382541515611337565b6006820154421115610ffc5760078201805460ff8116610fc45760048401546000948590600801815b838110610f92575050505060019060ff19161790557ff758fc91e01b00ea6b4a6138756f7f28e021f9bf21db6dbf8c36c88eb737257a83604051848152a2604051908152f35b80600052818952604060002054838111610fb6575b50610fb190611304565b610f4c565b909750915086610fb1610fa7565b60405162461bcd60e51b815260048101869052601060248201526f105b1c9958591e48195e1958dd5d195960821b6044820152606490fd5b60405162461bcd60e51b8152600481018490526013602482015272566f74696e67207374696c6c2061637469766560681b6044820152606490fd5b34610100576000366003190112610100576020600254604051908152f35b34610100576020366003190112610100576004356000908152600360205260409020805460018201546001600160a01b03169161027b61109760028301611176565b6110a360038401611176565b9260058101549360068201546110f860ff600785015416926110ea60ff600b600a88015497015416966040519b8c9b8c5260208c01526101208060408d01528b019061121c565b9089820360608b015261121c565b95608088015260a0870152151560c086015260e085015261010084019061125c565b90600182811c9216801561114a575b602083101461113457565b634e487b7160e01b600052602260045260246000fd5b91607f1691611129565b90601f8019910116810190811067ffffffffffffffff821117610be157604052565b906040519182600082549261118a8461111a565b9081845260019485811690816000146111f957506001146111b6575b50506111b492500383611154565b565b9093915060005260209081600020936000915b8183106111e15750506111b4935082010138806111a6565b855488840185015294850194879450918301916111c9565b9150506111b494506020925060ff191682840152151560051b82010138806111a6565b919082519283825260005b848110611248575050826000602080949584010152601f8019910116010190565b602081830181015184830182015201611227565b9060058210156112695752565b634e487b7160e01b600052602160045260246000fd5b81601f820112156101005780359067ffffffffffffffff8211610be157604051926112b4601f8401601f191660200185611154565b8284526020838301011161010057816000926020809301838601378301015290565b67ffffffffffffffff8111610be15760051b60200190565b6040906003190112610100576004359060243590565b6000198114610aaa5760010190565b81811061131e575050565b60008155600101611313565b91908201809211610aaa57565b1561133e57565b60405162461bcd60e51b815260206004820152601760248201527f50726f706f73616c20646f6573206e6f742065786973740000000000000000006044820152606490fd5b6001546001600160a01b0316330361139757565b60405162461bcd60e51b815260206004820152600e60248201526d139bdd08185d5d1a1bdc9a5e995960921b6044820152606490fdfea26469706673582212202b78daaaf411cc35d8c94ddcdccea1b7e4ff0b8496f4b09aa137a2aaebb4dc2a64736f6c63430008130033",
  "linkReferences": {},
  "deployedLinkReferences": {}
}