{
  "_format": "hh-sol-artifact-1",
  "contractName": "HVNAToken",
  "sourceName": "contracts/HVNAToken.sol",
  "abi": [
    {
      "inputs": [],
      "stateMutability": "nonpayable",
      "type": "constructor"
    },
    {
      "anonymous": false,
      "inputs": [
        {
          "indexed": true,
          "internalType": "address",
          "name": "owner",
          "type": "address"
        },
        {
          "indexed": true,
          "internalType": "address",
          "name": "spender",
          "type": "address"
        },
        {
          "indexed": false,
          "internalType": "uint256",
          "name": "value",
          "type": "uint256"
        }
      ],
      "name": "Approval",
      "type": "event"
    },
    {
      "anonymous": false,
      "inputs": [
        {
          "indexed": true,
          "internalType": "address",
          "name": "from",
          "type": "address"
        },
        {
          "indexed": true,
          "internalType": "address",
          "name": "to",
          "type": "address"
        },
        {
          "indexed": false,
          "internalType": "uint256",
          "name": "value",
          "type": "uint256"
        }
      ],
      "name": "Transfer",
      "type": "event"
    },
    {
      "inputs": [
        {
          "internalType": "address",
          "name": "",
          "type": "address"
        },
        {
          "internalType": "address",
          "name": "",
          "type": "address"
        }
      ],
      "name": "allowance",
      "outputs": [
        {
          "internalType": "uint256",
          "name": "",
          "type": "uint256"
        }
      ],
      "stateMutability": "view",
      "type": "function"
    },
    {
      "inputs": [
        {
          "internalType": "address",
          "name": "spender",
          "type": "address"
        },
        {
          "internalType": "uint256",
          "name": "amount",
          "type": "uint256"
        }
      ],
      "name": "approve",
      "outputs": [
        {
          "internalType": "bool",
          "name": "",
          "type": "bool"
        }
      ],
      "stateMutability": "nonpayable",
      "type": "function"
    },
    {
      "inputs": [
        {
          "internalType": "address",
          "name": "",
          "type": "address"
        }
      ],
      "name": "balanceOf",
      "outputs": [
        {
          "internalType": "uint256",
          "name": "",
          "type": "uint256"
        }
      ],
      "stateMutability": "view",
      "type": "function"
    },
    {
      "inputs": [],
      "name": "decimals",
      "outputs": [
        {
          "internalType": "uint8",
          "name": "",
          "type": "uint8"
        }
      ],
      "stateMutability": "view",
      "type": "function"
    },
    {
      "inputs": [],
      "name": "name",
      "outputs": [
        {
          "internalType": "string",
          "name": "",
          "type": "string"
        }
      ],
      "stateMutability": "view",
      "type": "function"
    },
    {
      "inputs": [],
      "name": "symbol",
      "outputs": [
        {
          "internalType": "string",
          "name": "",
          "type": "string"
        }
      ],
      "stateMutability": "view",
      "type": "function"
    },
    {
      "inputs": [],
      "name": "totalSupply",
      "outputs": [
        {
          "internalType": "uint256",
          "name": "",
          "type": "uint256"
        }
      ],
      "stateMutability": "view",
      "type": "function"
    },
    {
      "inputs": [
        {
          "internalType": "address",
          "name": "to",
          "type": "address"
        },
        {
          "internalType": "uint256",
          "name": "amount",
          "type": "uint256"
        }
      ],
      "name": "transfer",
      "outputs": [
        {
          "internalType": "bool",
          "name": "",
          "type": "bool"
        }
      ],
      "stateMutability": "nonpayable",
      "type": "function"
    }
  ],
  "bytecode": "0x6080604052346101235760006100158154610128565b601f81116100f9575b507f486176616e6120546f6b656e000000000000000000000000000000000000001881556001805461004f90610128565b601f81116100cd575b5060086348564e4160e01b019055601260ff1960025416176002556a52b7d2dcc80cd2e4000000908160035533815260046020528160408220556040519182527fddf252ad1be2c89b69c2b068fc378daa952ba7f163c4a11628f55a4df523b3ef60203393a360405161054f90816101638239f35b81835281601f60208520920160051c8201915b8281106100ee575050610058565b8481550182906100e0565b818052601f60208320910160051c8101905b818110610118575061001e565b82815560010161010b565b600080fd5b90600182811c92168015610158575b602083101461014257565b634e487b7160e01b600052602260045260246000fd5b91607f169161013756fe608060408181526004918236101561001657600080fd5b600092833560e01c91826306fdde03146103df57508163095ea7b31461036e57816318160ddd1461034f578163313ce5671461032d57816370a08231146102f357816395d89b41146101d3578163a9059cbb146100d3575063dd62ed3e1461007d57600080fd5b346100cf57806003193601126100cf576100956104fe565b6001600160a01b0360243581811692908390036100cb579160209491849316825260058552828220908252845220549051908152f35b8480fd5b5080fd5b8284346101d057816003193601126101d0576100ed6104fe565b926024359033835260209481865282858520541061019657338452818652848420805490848203918211610183575560018060a01b031692838152818652848120908154928484018094116101705750505582519081527fddf252ad1be2c89b69c2b068fc378daa952ba7f163c4a11628f55a4df523b3ef843392a35160018152f35b634e487b7160e01b825260119052602490fd5b634e487b7160e01b865260118452602486fd5b845162461bcd60e51b81528083018790526014602482015273496e73756666696369656e742062616c616e636560601b6044820152606490fd5b80fd5b8383346100cf57816003193601126100cf5780519082600180549081811c908083169283156102e9575b60209384841081146102d6578388529081156102ba5750600114610265575b505050829003601f01601f191682019267ffffffffffffffff841183851017610252575082918261024e9252826104b5565b0390f35b634e487b7160e01b815260418552602490fd5b8087529192508591837fb10e2d527612073b26eecdfd717e6a320cf44b4afac2b0732d9fcbe2b7fa0cf65b8385106102a6575050505083010185808061021c565b805488860183015293019284908201610290565b60ff1916878501525050151560051b840101905085808061021c565b634e487b7160e01b895260228a52602489fd5b91607f16916101fd565b9050346103295760203660031901126103295760209282916001600160a01b0361031b6104fe565b168252845220549051908152f35b8280fd5b5050346100cf57816003193601126100cf5760209060ff600254169051908152f35b5050346100cf57816003193601126100cf576020906003549051908152f35b5050346100cf57806003193601126100cf576020918161038c6104fe565b91602435918291338152600587528181209460018060a01b0316948582528752205582519081527f8c5be1e5ebec7d5bd14f71427d1e84f3dd0314c0f7b2291e5b200ac8c7c3b925843392a35160018152f35b84908434610329578260031936011261032957828354600181811c908083169283156104ab575b60209384841081146102d6578388529081156102ba575060011461045657505050829003601f01601f191682019267ffffffffffffffff841183851017610252575082918261024e9252826104b5565b8680529192508591837f290decd9548b62a8d60345a988386fc84ba6bc95484008f6362f93160ef3e5635b838510610497575050505083010185808061021c565b805488860183015293019284908201610481565b91607f1691610406565b6020808252825181830181905290939260005b8281106104ea57505060409293506000838284010152601f8019910116010190565b8181018601518482016040015285016104c8565b600435906001600160a01b038216820361051457565b600080fdfea26469706673582212206130706d547b0ee98d5e9ed93e5c369c3061daf558076c2cba4d280b8590b1bb64736f6c63430008130033",
  "linkReferences": {},
  "deployedLinkReferences": {}
}