{
  "_format": "hh-sol-artifact-1",
  "contractName": "TokenPreSale",
  "sourceName": "contracts/TokenPreSale.sol",
  "abi": [
    {
      "inputs": [
        {
          "internalType": "address",
          "name": "_hvnaTokenAddress",
          "type": "address"
        },
        {
          "internalType": "address",
          "name": "_genesisNFTAddress",
          "type": "address"
        },
        {
          "internalType": "uint256",
          "name": "_genesisPhaseStart",
          "type": "uint256"
        },
        {
          "internalType": "uint256",
          "name": "_genesisPhaseEnd",
          "type": "uint256"
        },
        {
          "internalType": "uint256",
          "name": "_publicPhaseStart",
          "type": "uint256"
        },
        {
          "internalType": "uint256",
          "name": "_publicPhaseEnd",
          "type": "uint256"
        }
      ],
      "stateMutability": "nonpayable",
      "type": "constructor"
    },
    {
      "anonymous": false,
      "inputs": [
        {
          "indexed": true,
          "internalType": "address",
          "name": "holder",
          "type": "address"
        },
        {
          "indexed": false,
          "internalType": "uint256",
          "name": "nftBalance",
          "type": "uint256"
        }
      ],
      "name": "GenesisHolderVerified",
      "type": "event"
    },
    {
      "anonymous": false,
      "inputs": [
        {
          "indexed": false,
          "internalType": "enum TokenPreSale.Phase",
          "name": "newPhase",
          "type": "uint8"
        }
      ],
      "name": "PhaseChanged",
      "type": "event"
    },
    {
      "anonymous": false,
      "inputs": [
        {
          "indexed": false,
          "internalType": "uint256",
          "name": "genesisPrice",
          "type": "uint256"
        },
        {
          "indexed": false,
          "internalType": "uint256",
          "name": "publicPrice",
          "type": "uint256"
        }
      ],
      "name": "PriceUpdated",
      "type": "event"
    },
    {
      "anonymous": false,
      "inputs": [
        {
          "indexed": false,
          "internalType": "bool",
          "name": "active",
          "type": "bool"
        }
      ],
      "name": "SaleStatusChanged",
      "type": "event"
    },
    {
      "anonymous": false,
      "inputs": [
        {
          "indexed": true,
          "internalType": "address",
          "name": "buyer",
          "type": "address"
        },
        {
          "indexed": false,
          "internalType": "uint256",
          "name": "amount",
          "type": "uint256"
        },
        {
          "indexed": false,
          "internalType": "uint256",
          "name": "cost",
          "type": "uint256"
        },
        {
          "indexed": false,
          "internalType": "enum TokenPreSale.Phase",
          "name": "phase",
          "type": "uint8"
        },
        {
          "indexed": false,
          "internalType": "bool",
          "name": "isGenesis",
          "type": "bool"
        }
      ],
      "name": "TokensPurchased",
      "type": "event"
    },
    {
      "inputs": [
        {
          "internalType": "uint256",
          "name": "tokenAmount",
          "type": "uint256"
        }
      ],
      "name": "buyTokens",
      "outputs": [],
      "stateMutability": "payable",
      "type": "function"
    },
    {
      "inputs": [],
      "name": "currentPhase",
      "outputs": [
        {
          "internalType": "enum TokenPreSale.Phase",
          "name": "",
          "type": "uint8"
        }
      ],
      "stateMutability": "view",
      "type": "function"
    },
    {
      "inputs": [],
      "name": "emergencyWithdraw",
      "outputs": [],
      "stateMutability": "nonpayable",
      "type": "function"
    },
    {
      "inputs": [
        {
          "internalType": "enum TokenPreSale.Phase",
          "name": "newPhase",
          "type": "uint8"
        }
      ],
      "name": "forcePhaseChange",
      "outputs": [],
      "stateMutability": "nonpayable",
      "type": "function"
    },
    {
      "inputs": [],
      "name": "genesisNFT",
      "outputs": [
        {
          "internalType": "contract IERC721",
          "name": "",
          "type": "address"
        }
      ],
      "stateMutability": "view",
      "type": "function"
    },
    {
      "inputs": [],
      "name": "genesisPhaseEnd",
      "outputs": [
        {
          "internalType": "uint256",
          "name": "",
          "type": "uint256"
        }
      ],
      "stateMutability": "view",
      "type": "function"
    },
    {
      "inputs": [],
      "name": "genesisPhaseLimit",
      "outputs": [
        {
          "internalType": "uint256",
          "name": "",
          "type": "uint256"
        }
      ],
      "stateMutability": "view",
      "type": "function"
    },
    {
      "inputs": [],
      "name": "genesisPhaseStart",
      "outputs": [
        {
          "internalType": "uint256",
          "name": "",
          "type": "uint256"
        }
      ],
      "stateMutability": "view",
      "type": "function"
    },
    {
      "inputs": [],
      "name": "genesisPrice",
      "outputs": [
        {
          "internalType": "uint256",
          "name": "",
          "type": "uint256"
        }
      ],
      "stateMutability": "view",
      "type": "function"
    },
    {
      "inputs": [
        {
          "internalType": "address",
          "name": "user",
          "type": "address"
        }
      ],
      "name": "getCurrentPrice",
      "outputs": [
        {
          "internalType": "uint256",
          "name": "",
          "type": "uint256"
        }
      ],
      "stateMutability": "view",
      "type": "function"
    },
    {
      "inputs": [
        {
          "internalType": "address",
          "name": "user",
          "type": "address"
        }
      ],
      "name": "getGenesisNFTBalance",
      "outputs": [
        {
          "internalType": "uint256",
          "name": "",
          "type": "uint256"
        }
      ],
      "stateMutability": "view",
      "type": "function"
    },
    {
      "inputs": [],
      "name": "getPhaseEndTime",
      "outputs": [
        {
          "internalType": "uint256",
          "name": "",
          "type": "uint256"
        }
      ],
      "stateMutability": "view",
      "type": "function"
    },
    {
      "inputs": [],
      "name": "getPhaseStartTime",
      "outputs": [
        {
          "internalType": "uint256",
          "name": "",
          "type": "uint256"
        }
      ],
      "stateMutability": "view",
      "type": "function"
    },
    {
      "inputs": [],
      "name": "getPreSaleInfo",
      "outputs": [
        {
          "internalType": "enum TokenPreSale.Phase",
          "name": "phase",
          "type": "uint8"
        },
        {
          "internalType": "uint256",
          "name": "currentPriceForUser",
          "type": "uint256"
        },
        {
          "internalType": "uint256",
          "name": "remainingTokens",
          "type": "uint256"
        },
        {
          "internalType": "uint256",
          "name": "userPurchased",
          "type": "uint256"
        },
        {
          "internalType": "uint256",
          "name": "userMaxPurchase",
          "type": "uint256"
        },
        {
          "internalType": "bool",
          "name": "userIsGenesis",
          "type": "bool"
        },
        {
          "internalType": "uint256",
          "name": "phaseStartTime",
          "type": "uint256"
        },
        {
          "internalType": "uint256",
          "name": "phaseEndTime",
          "type": "uint256"
        }
      ],
      "stateMutability": "view",
      "type": "function"
    },
    {
      "inputs": [],
      "name": "getRemainingGenesisTokens",
      "outputs": [
        {
          "internalType": "uint256",
          "name": "",
          "type": "uint256"
        }
      ],
      "stateMutability": "view",
      "type": "function"
    },
    {
      "inputs": [],
      "name": "getRemainingTokens",
      "outputs": [
        {
          "internalType": "uint256",
          "name": "",
          "type": "uint256"
        }
      ],
      "stateMutability": "view",
      "type": "function"
    },
    {
      "inputs": [
        {
          "internalType": "address",
          "name": "",
          "type": "address"
        }
      ],
      "name": "hasClaimedGenesisBenefit",
      "outputs": [
        {
          "internalType": "bool",
          "name": "",
          "type": "bool"
        }
      ],
      "stateMutability": "view",
      "type": "function"
    },
    {
      "inputs": [],
      "name": "hvnaToken",
      "outputs": [
        {
          "internalType": "contract IERC20",
          "name": "",
          "type": "address"
        }
      ],
      "stateMutability": "view",
      "type": "function"
    },
    {
      "inputs": [
        {
          "internalType": "address",
          "name": "user",
          "type": "address"
        }
      ],
      "name": "isGenesisHolder",
      "outputs": [
        {
          "internalType": "bool",
          "name": "",
          "type": "bool"
        }
      ],
      "stateMutability": "view",
      "type": "function"
    },
    {
      "inputs": [],
      "name": "maxPurchaseGenesis",
      "outputs": [
        {
          "internalType": "uint256",
          "name": "",
          "type": "uint256"
        }
      ],
      "stateMutability": "view",
      "type": "function"
    },
    {
      "inputs": [],
      "name": "maxPurchasePublic",
      "outputs": [
        {
          "internalType": "uint256",
          "name": "",
          "type": "uint256"
        }
      ],
      "stateMutability": "view",
      "type": "function"
    },
    {
      "inputs": [],
      "name": "maxTokensForPreSale",
      "outputs": [
        {
          "internalType": "uint256",
          "name": "",
          "type": "uint256"
        }
      ],
      "stateMutability": "view",
      "type": "function"
    },
    {
      "inputs": [],
      "name": "minPurchase",
      "outputs": [
        {
          "internalType": "uint256",
          "name": "",
          "type": "uint256"
        }
      ],
      "stateMutability": "view",
      "type": "function"
    },
    {
      "inputs": [],
      "name": "owner",
      "outputs": [
        {
          "internalType": "address",
          "name": "",
          "type": "address"
        }
      ],
      "stateMutability": "view",
      "type": "function"
    },
    {
      "inputs": [],
      "name": "publicPhaseEnd",
      "outputs": [
        {
          "internalType": "uint256",
          "name": "",
          "type": "uint256"
        }
      ],
      "stateMutability": "view",
      "type": "function"
    },
    {
      "inputs": [],
      "name": "publicPhaseStart",
      "outputs": [
        {
          "internalType": "uint256",
          "name": "",
          "type": "uint256"
        }
      ],
      "stateMutability": "view",
      "type": "function"
    },
    {
      "inputs": [],
      "name": "publicPrice",
      "outputs": [
        {
          "internalType": "uint256",
          "name": "",
          "type": "uint256"
        }
      ],
      "stateMutability": "view",
      "type": "function"
    },
    {
      "inputs": [
        {
          "internalType": "address",
          "name": "",
          "type": "address"
        }
      ],
      "name": "purchasedAmount",
      "outputs": [
        {
          "internalType": "uint256",
          "name": "",
          "type": "uint256"
        }
      ],
      "stateMutability": "view",
      "type": "function"
    },
    {
      "inputs": [],
      "name": "saleActive",
      "outputs": [
        {
          "internalType": "bool",
          "name": "",
          "type": "bool"
        }
      ],
      "stateMutability": "view",
      "type": "function"
    },
    {
      "inputs": [
        {
          "internalType": "uint256",
          "name": "_genesisStart",
          "type": "uint256"
        },
        {
          "internalType": "uint256",
          "name": "_genesisEnd",
          "type": "uint256"
        },
        {
          "internalType": "uint256",
          "name": "_publicStart",
          "type": "uint256"
        },
        {
          "internalType": "uint256",
          "name": "_publicEnd",
          "type": "uint256"
        }
      ],
      "name": "setPhaseTiming",
      "outputs": [],
      "stateMutability": "nonpayable",
      "type": "function"
    },
    {
      "inputs": [
        {
          "internalType": "uint256",
          "name": "_genesisPrice",
          "type": "uint256"
        },
        {
          "internalType": "uint256",
          "name": "_publicPrice",
          "type": "uint256"
        }
      ],
      "name": "setPricing",
      "outputs": [],
      "stateMutability": "nonpayable",
      "type": "function"
    },
    {
      "inputs": [
        {
          "internalType": "uint256",
          "name": "_minPurchase",
          "type": "uint256"
        },
        {
          "internalType": "uint256",
          "name": "_maxPurchaseGenesis",
          "type": "uint256"
        },
        {
          "internalType": "uint256",
          "name": "_maxPurchasePublic",
          "type": "uint256"
        }
      ],
      "name": "setPurchaseLimits",
      "outputs": [],
      "stateMutability": "nonpayable",
      "type": "function"
    },
    {
      "inputs": [],
      "name": "toggleSale",
      "outputs": [],
      "stateMutability": "nonpayable",
      "type": "function"
    },
    {
      "inputs": [],
      "name": "tokensSold",
      "outputs": [
        {
          "internalType": "uint256",
          "name": "",
          "type": "uint256"
        }
      ],
      "stateMutability": "view",
      "type": "function"
    },
    {
      "inputs": [],
      "name": "updatePhase",
      "outputs": [],
      "stateMutability": "nonpayable",
      "type": "function"
    },
    {
      "inputs": [],
      "name": "withdrawETH",
      "outputs": [],
      "stateMutability": "nonpayable",
      "type": "function"
    },
    {
      "inputs": [],
      "name": "withdrawUnsoldTokens",
      "outputs": [],
      "stateMutability": "nonpayable",
      "type": "function"
    }
  ],
  "bytecode": "0x60803461012a57601f61170b38819003918201601f19168301916001600160401b0383118484101761012f5780849260c09460405283398101031261012a5761004781610145565b9061005460208201610145565b604082015160608301519160a0608085015194015194600254916618de76816d8000600355662386f26fc1000060045560006005556a0c685fa11e01ec6f0000006006556a0422ca8b0a00a425000000600755683635c9adc5dea00000600e55690a968163f0a57b400000600f5569054b40b1f852bda0000060105560ff196011541660115560018060a01b03908160018060a01b0319931683600054161760005516906001541617600155339060018060a81b03191617600255600855600955600a55600b556040516115b1908161015a8239f35b600080fd5b634e487b7160e01b600052604160045260246000fd5b51906001600160a01b038216820361012a5756fe608060408181526004918236101561001657600080fd5b60008093813560e01c928363034b9aae146111075750826304a4dd40146110e8578263055ad42e146110bc57826333b5b62e1461109d57826334b2743e1461106c5782633610724e14610aac57826344c4dcc114610a72578263518ab2a814610a5357826365bb07e5146109e657826367320dbb146109ad57826368428a1b14610989578263728cce7c1461096a578263751e82a71461094b5782637b96d760146108985782637d8966e41461082e57826384cc315b146107fd5782638da5cb5b146107d45782638dd4916b146107ab5782638f203cbe1461076e5782639115bda51461074f57826391b07311146107305782639705fd13146106f1578263a945bf80146106d3578263ad55c49914610694578263af35ae2714610670578263af36654e14610653578263b687d1e714610636578263c8bdbfb61461049b578263ca05588a14610434578263cc8e487c14610410578263db2e21bc146102b25750508063e086e5ec14610260578063e3e0fa9914610242578063e4ab7ca414610224578063f25057f3146101fd578063f50b53d8146101df5763fb3ddc60146101be57600080fd5b346101db57816003193601126101db57602090600b549051908152f35b5080fd5b50346101db57816003193601126101db576020906009549051908152f35b50346101db57816003193601126101db57905490516001600160a01b039091168152602090f35b50346101db57816003193601126101db576020906006549051908152f35b50346101db57816003193601126101db576020906007549051908152f35b50346101db57816003193601126101db578180808060018060a01b036002541661028b813314611453565b47908282156102a9575bf11561029f575080f35b51903d90823e3d90fd5b506108fc610295565b909150346101db57816003193601126101db576002546001600160a01b03919082166102df338214611453565b82845416918551916370a0823160e01b835230828401526020938484602481845afa91821561040657879485936103d0575b508261034c575b50505050505047610327575080f35b81808092600254164790828215610343575bf11561029f578180f35b506108fc610339565b885163a9059cbb60e01b81526001600160a01b039091169381019384526020840192909252909284928492918391829060400103925af180156103c657610398575b8080808693610318565b816103b792903d106103bf575b6103af818361129c565b8101906113e5565b50388061038e565b503d6103a5565b85513d86823e3d90fd5b945091508484813d81116103ff575b6103e9818361129c565b810103126103fb578693519138610311565b8680fd5b503d6103df565b88513d89823e3d90fd5b5082346101db57816003193601126101db5760209061042d61148f565b9051908152f35b8334610497578060031936011261049757817f945c1c4e99aa89f648fbfe3df471b916f719e16d960fcec0737d4d56bd696838923590602435809161048460018060a01b03600254163314611453565b836003555582519182526020820152a180f35b8280fd5b8390346104975782600319360112610497576002546001600160a01b03808216929160ff906104cb338614611453565b60a01c166003811015610623576002148015610616575b156105db57908491825416908451916370a0823160e01b835230828401526020948584602481855afa9283156105d15786948694610598575b50875163a9059cbb60e01b81526001600160a01b03909216908201908152602081019390935293849283919082906040015b03925af191821561058b5761056b9350849261056e575b5050611402565b80f35b6105849250803d106103bf576103af818361129c565b8380610564565b50505051903d90823e3d90fd5b8581969295503d83116105ca575b6105b0818361129c565b810103126105c65792518593909261054d61051b565b8480fd5b503d6105a6565b87513d87823e3d90fd5b835162461bcd60e51b815260208184015260156024820152745072652d73616c65207374696c6c2061637469766560581b6044820152606490fd5b5060ff60115416156104e2565b634e487b7160e01b865260218352602486fd5b5082346101db57816003193601126101db5760209061042d611539565b5082346101db57816003193601126101db5760209061042d6114c0565b5082346101db57816003193601126101db5760209061042d60065460055490611446565b83903461049757602036600319011261049757356001600160a01b0381169081900361049757818360ff9260209552600d855220541690519015158152f35b83903461049757826003193601126104975760209250549051908152f35b346101db5760803660031901126101db5761071760018060a01b03600254163314611453565b35600855602435600955604435600a55606435600b5580f35b5082346101db57816003193601126101db576020906010549051908152f35b5082346101db57816003193601126101db576020906008549051908152f35b8390346104975760203660031901126104975735916001600160a01b03831683036107a8575061079f6020926112d4565b90519015158152f35b80fd5b5082346101db57816003193601126101db5760015490516001600160a01b039091168152602090f35b5082346101db57816003193601126101db5760025490516001600160a01b039091168152602090f35b8390346104975760203660031901126104975735916001600160a01b03831683036107a8575061042d6020926114f1565b5082346101db57816003193601126101db5760207ff3637cdf61687bb87179d2da614bc1f4aa93c3cbf40282ccd0a15ecad9184cc19161087960018060a01b03600254163314611453565b6011549060ff8083161516809260ff191617601155519015158152a180f35b5082346101db57816003193601126101db576002546101009260ff926108bd336114f1565b916108cd60065460055490611446565b90338152600c60205282812054906108e4336112d4565b15905061094257600f54915b6108f9336112d4565b9361090261148f565b9561091d61090e6114c0565b9883519a8b9160a01c16611279565b602089015287015260608601526080850152151560a084015260c083015260e0820152f35b601054916108f0565b5082346101db57816003193601126101db57602090600f549051908152f35b5082346101db57816003193601126101db576020906003549051908152f35b5082346101db57816003193601126101db5760209060ff6011541690519015158152f35b346101db5760603660031901126101db576109d360018060a01b03600254163314611453565b35600e55602435600f5560443560105580f35b83903461049757602036600319011261049757359060038210156104975760008051602061155c83398151915291610a4f602092600254610a3060018060a01b0382163314611453565b60ff60a01b191660a084901b60ff60a01b161760025551918290611279565ba180f35b5082346101db57816003193601126101db576020906005549051908152f35b83903461049757602036600319011261049757356001600160a01b038116908190036104975782829160209452600c845220549051908152f35b83906020806003193601126110685781359260ff60115416156110325760ff60025460a01c1692600384101561101f5760028414610fe957610aec61148f565b4210610fb057610afa6114c0565b4211610f7d578415610f3057600e548510610eef57600554610b1c86826113c2565b60065410610eb457610b2d336112d4565b9480610e5257508415610df85785610b44916113c2565b60075410610db757600354600f54610b5b33611354565b84519081527f71529f344966cde94570d3672e04ceaca4a0ebb9c92f0f169f090f1ac2bb9aab863392a25b338852600c8552610b9a87858a20546113c2565b11610d6b578086029086820403610d5857670de0b6b3a7640000900490813410610d1d578654835163a9059cbb60e01b8152339281019283526020830188905291859183918290036040019082908b906001600160a01b03165af1908115610d135790610c0e918891610cf6575b50611402565b610c1a856005546113c2565b600555338652600c8352818620610c328682546113c2565b90558380610ce1575b610cc7575b803411610c97575b600254825195865292850152610c67919084019060a01c60ff16611279565b151560608201527f9791b1565c63afe86ec13d6cedc8ed33ba1f1a5eca3bb39ccf168aedf51e5c8460803392a280f35b85808080610ca58534611446565b818115610cbe575b3390f1610c485781513d87823e3d90fd5b506108fc610cad565b338652600d8352818620805460ff19166001179055610c40565b50338652600d835260ff828720541615610c3b565b610d0d9150853d87116103bf576103af818361129c565b88610c08565b83513d89823e3d90fd5b825162461bcd60e51b81529081018490526015602482015274125b9cdd59999a58da595b9d08115512081cd95b9d605a1b6044820152606490fd5b634e487b7160e01b875260118252602487fd5b5082608492519162461bcd60e51b8352820152602160248201527f4578636565647320696e646976696475616c207075726368617365206c696d696044820152601d60fa1b6064820152fd5b82606492519162461bcd60e51b8352820152601b60248201527f457863656564732047656e65736973207068617365206c696d697400000000006044820152fd5b5082608492519162461bcd60e51b8352820152602f60248201527f47656e657369732070686173653a204f6e6c79204e465420686f6c646572732060448201526e63616e20706172746963697061746560881b6064820152fd5b600114159050610e83578315610e7c576003545b8415610e7457600f54610b86565b601054610b86565b8054610e66565b82606492519162461bcd60e51b8352820152600d60248201526c496e76616c696420706861736560981b6044820152fd5b5082606492519162461bcd60e51b83528201526016602482015275115e18d959591cc81c1c994b5cd85b19481b1a5b5a5d60521b6044820152fd5b82606492519162461bcd60e51b8352820152601d60248201527f42656c6f77206d696e696d756d20707572636861736520616d6f756e740000006044820152fd5b82608492519162461bcd60e51b8352820152602360248201527f546f6b656e20616d6f756e74206d75737420626520677265617465722074686160448201526206e20360ec1b6064820152fd5b82606492519162461bcd60e51b8352820152600f60248201526e141a185cd9481a185cc8195b991959608a1b6044820152fd5b82606492519162461bcd60e51b83528201526015602482015274141a185cd9481b9bdd081cdd185c9d1959081e595d605a1b6044820152fd5b82606492519162461bcd60e51b83528201526012602482015271141c994b5cd85b19481a185cc8195b99195960721b6044820152fd5b634e487b7160e01b865260219052602485fd5b5162461bcd60e51b815291820152601260248201527153616c65206973206e6f742061637469766560701b604482015260649150fd5b8380fd5b8390346104975760203660031901126104975735916001600160a01b03831683036107a8575061042d602092611354565b5082346101db57816003193601126101db57602090600e549051908152f35b5082346101db57816003193601126101db576020906110e660ff60025460a01c1691518092611279565bf35b5082346101db57816003193601126101db57602090600a549051908152f35b8491346110685783600319360112611068576008544210158061126d575b80611253575b1561115a5750506002805460ff60a01b191690555181815260008051602061155c83398151915290602090a180f35b600a5442101580611247575b80611218575b156111a25750506002805460ff60a01b1916600160a01b179055516001815260008051602061155c83398151915290602090a180f35b909150600b54421190816111e6575b506111ba575080f35b6002805460ff60a01b1916600160a11b178155815260008051602061155c83398151915290602090a180f35b60025460a01c60ff1691506003821015611205575060021415836111b1565b634e487b7160e01b845260219052602483fd5b5060ff60025460a01c166003811015611234576001141561116c565b634e487b7160e01b855260218252602485fd5b50600b54421115611166565b5060ff60025460a01c16600381101561123457151561112b565b50600954421115611125565b9060038210156112865752565b634e487b7160e01b600052602160045260246000fd5b90601f8019910116810190811067ffffffffffffffff8211176112be57604052565b634e487b7160e01b600052604160045260246000fd5b6001546040516370a0823160e01b81526001600160a01b0392831660048201529160209183916024918391165afa90811561134857600091611317575b50151590565b906020823d8211611340575b816113306020938361129c565b810103126107a857505138611311565b3d9150611323565b6040513d6000823e3d90fd5b6001546040516370a0823160e01b81526001600160a01b0392831660048201529160209183916024918391165afa90811561134857600091611394575090565b906020823d82116113ba575b816113ad6020938361129c565b810103126107a857505190565b3d91506113a0565b919082018092116113cf57565b634e487b7160e01b600052601160045260246000fd5b908160209103126113fd575180151581036113fd5790565b600080fd5b1561140957565b60405162461bcd60e51b8152602060048201526015602482015274151bdad95b881d1c985b9cd9995c8819985a5b1959605a1b6044820152606490fd5b919082039182116113cf57565b1561145a57565b60405162461bcd60e51b815260206004820152600d60248201526c2737ba103a34329037bbb732b960991b6044820152606490fd5b60ff60025460a01c1660038110156112865780156114b9576001146114b357600090565b600a5490565b5060085490565b60ff60025460a01c1660038110156112865780156114ea576001146114e457600090565b600b5490565b5060095490565b60ff60025460a01c16600381101561128657801561153157600114611517575060045490565b611520906112d4565b1561152b5760035490565b60045490565b505060035490565b60055460075490818110156115545761155191611446565b90565b505060009056fea6dcc92f45df25789d5639b7a0c97ba1edf3bb1c0b5dd3376fd96a0db87c4642a2646970667358221220f208da92fc7c465c14878a4c82e3b5778f3a0e3132137375bc65997755980bc764736f6c63430008130033",
  "linkReferences": {},
  "deployedLinkReferences": {}
}