{
  "_format": "hh-sol-artifact-1",
  "contractName": "TokenPreSaleBase",
  "sourceName": "contracts/TokenPreSaleBase.sol",
  "abi": [
    {
      "inputs": [
        {
          "internalType": "address",
          "name": "_hvnaTokenAddress",
          "type": "address"
        },
        {
          "internalType": "address",
          "name": "_genesisNFTAddress",
          "type": "address"
        },
        {
          "internalType": "address",
          "name": "_priceFeedAddress",
          "type": "address"
        },
        {
          "internalType": "uint256",
          "name": "_genesisPhaseStart",
          "type": "uint256"
        },
        {
          "internalType": "uint256",
          "name": "_genesisPhaseEnd",
          "type": "uint256"
        },
        {
          "internalType": "uint256",
          "name": "_publicPhaseStart",
          "type": "uint256"
        },
        {
          "internalType": "uint256",
          "name": "_publicPhaseEnd",
          "type": "uint256"
        }
      ],
      "stateMutability": "nonpayable",
      "type": "constructor"
    },
    {
      "anonymous": false,
      "inputs": [
        {
          "indexed": true,
          "internalType": "address",
          "name": "holder",
          "type": "address"
        },
        {
          "indexed": false,
          "internalType": "uint256",
          "name": "nftBalance",
          "type": "uint256"
        }
      ],
      "name": "GenesisHolderVerified",
      "type": "event"
    },
    {
      "anonymous": false,
      "inputs": [
        {
          "indexed": false,
          "internalType": "enum TokenPreSaleBase.Phase",
          "name": "newPhase",
          "type": "uint8"
        }
      ],
      "name": "PhaseChanged",
      "type": "event"
    },
    {
      "anonymous": false,
      "inputs": [
        {
          "indexed": false,
          "internalType": "uint256",
          "name": "newPriceUSDCents",
          "type": "uint256"
        },
        {
          "indexed": false,
          "internalType": "uint256",
          "name": "newDiscountPercent",
          "type": "uint256"
        }
      ],
      "name": "PriceUpdated",
      "type": "event"
    },
    {
      "anonymous": false,
      "inputs": [
        {
          "indexed": false,
          "internalType": "bool",
          "name": "active",
          "type": "bool"
        }
      ],
      "name": "SaleStatusChanged",
      "type": "event"
    },
    {
      "anonymous": false,
      "inputs": [
        {
          "indexed": true,
          "internalType": "address",
          "name": "buyer",
          "type": "address"
        },
        {
          "indexed": false,
          "internalType": "uint256",
          "name": "amount",
          "type": "uint256"
        },
        {
          "indexed": false,
          "internalType": "uint256",
          "name": "costETH",
          "type": "uint256"
        },
        {
          "indexed": false,
          "internalType": "uint256",
          "name": "costUSD",
          "type": "uint256"
        },
        {
          "indexed": false,
          "internalType": "enum TokenPreSaleBase.Phase",
          "name": "phase",
          "type": "uint8"
        },
        {
          "indexed": false,
          "internalType": "bool",
          "name": "isGenesis",
          "type": "bool"
        }
      ],
      "name": "TokensPurchased",
      "type": "event"
    },
    {
      "inputs": [
        {
          "internalType": "uint256",
          "name": "tokenAmount",
          "type": "uint256"
        }
      ],
      "name": "buyTokens",
      "outputs": [],
      "stateMutability": "payable",
      "type": "function"
    },
    {
      "inputs": [
        {
          "internalType": "uint256",
          "name": "tokenAmount",
          "type": "uint256"
        },
        {
          "internalType": "bool",
          "name": "isGenesis",
          "type": "bool"
        }
      ],
      "name": "calculatePurchaseCost",
      "outputs": [
        {
          "internalType": "uint256",
          "name": "ethCost",
          "type": "uint256"
        },
        {
          "internalType": "uint256",
          "name": "usdCost",
          "type": "uint256"
        }
      ],
      "stateMutability": "view",
      "type": "function"
    },
    {
      "inputs": [],
      "name": "currentPhase",
      "outputs": [
        {
          "internalType": "enum TokenPreSaleBase.Phase",
          "name": "",
          "type": "uint8"
        }
      ],
      "stateMutability": "view",
      "type": "function"
    },
    {
      "inputs": [],
      "name": "emergencyWithdraw",
      "outputs": [],
      "stateMutability": "nonpayable",
      "type": "function"
    },
    {
      "inputs": [
        {
          "internalType": "enum TokenPreSaleBase.Phase",
          "name": "newPhase",
          "type": "uint8"
        }
      ],
      "name": "forcePhaseChange",
      "outputs": [],
      "stateMutability": "nonpayable",
      "type": "function"
    },
    {
      "inputs": [],
      "name": "genesisDiscountPercent",
      "outputs": [
        {
          "internalType": "uint256",
          "name": "",
          "type": "uint256"
        }
      ],
      "stateMutability": "view",
      "type": "function"
    },
    {
      "inputs": [],
      "name": "genesisNFT",
      "outputs": [
        {
          "internalType": "contract IERC721",
          "name": "",
          "type": "address"
        }
      ],
      "stateMutability": "view",
      "type": "function"
    },
    {
      "inputs": [],
      "name": "genesisPhaseEnd",
      "outputs": [
        {
          "internalType": "uint256",
          "name": "",
          "type": "uint256"
        }
      ],
      "stateMutability": "view",
      "type": "function"
    },
    {
      "inputs": [],
      "name": "genesisPhaseLimit",
      "outputs": [
        {
          "internalType": "uint256",
          "name": "",
          "type": "uint256"
        }
      ],
      "stateMutability": "view",
      "type": "function"
    },
    {
      "inputs": [],
      "name": "genesisPhaseStart",
      "outputs": [
        {
          "internalType": "uint256",
          "name": "",
          "type": "uint256"
        }
      ],
      "stateMutability": "view",
      "type": "function"
    },
    {
      "inputs": [
        {
          "internalType": "address",
          "name": "user",
          "type": "address"
        }
      ],
      "name": "getCurrentPrices",
      "outputs": [
        {
          "internalType": "uint256",
          "name": "ethPrice",
          "type": "uint256"
        },
        {
          "internalType": "uint256",
          "name": "usdCents",
          "type": "uint256"
        }
      ],
      "stateMutability": "view",
      "type": "function"
    },
    {
      "inputs": [],
      "name": "getETHUSDPrice",
      "outputs": [
        {
          "internalType": "uint256",
          "name": "",
          "type": "uint256"
        }
      ],
      "stateMutability": "view",
      "type": "function"
    },
    {
      "inputs": [
        {
          "internalType": "address",
          "name": "user",
          "type": "address"
        }
      ],
      "name": "getGenesisNFTBalance",
      "outputs": [
        {
          "internalType": "uint256",
          "name": "",
          "type": "uint256"
        }
      ],
      "stateMutability": "view",
      "type": "function"
    },
    {
      "inputs": [],
      "name": "getPhaseEndTime",
      "outputs": [
        {
          "internalType": "uint256",
          "name": "",
          "type": "uint256"
        }
      ],
      "stateMutability": "view",
      "type": "function"
    },
    {
      "inputs": [],
      "name": "getPhaseStartTime",
      "outputs": [
        {
          "internalType": "uint256",
          "name": "",
          "type": "uint256"
        }
      ],
      "stateMutability": "view",
      "type": "function"
    },
    {
      "inputs": [],
      "name": "getPreSaleInfo",
      "outputs": [
        {
          "internalType": "enum TokenPreSaleBase.Phase",
          "name": "phase",
          "type": "uint8"
        },
        {
          "internalType": "uint256",
          "name": "currentETHPriceForUser",
          "type": "uint256"
        },
        {
          "internalType": "uint256",
          "name": "currentUSDCentsForUser",
          "type": "uint256"
        },
        {
          "internalType": "uint256",
          "name": "remainingTokens",
          "type": "uint256"
        },
        {
          "internalType": "uint256",
          "name": "userPurchased",
          "type": "uint256"
        },
        {
          "internalType": "uint256",
          "name": "userMaxPurchase",
          "type": "uint256"
        },
        {
          "internalType": "bool",
          "name": "userIsGenesis",
          "type": "bool"
        },
        {
          "internalType": "uint256",
          "name": "phaseStartTime",
          "type": "uint256"
        },
        {
          "internalType": "uint256",
          "name": "phaseEndTime",
          "type": "uint256"
        },
        {
          "internalType": "uint256",
          "name": "currentETHUSDRate",
          "type": "uint256"
        }
      ],
      "stateMutability": "view",
      "type": "function"
    },
    {
      "inputs": [],
      "name": "getRemainingGenesisTokens",
      "outputs": [
        {
          "internalType": "uint256",
          "name": "",
          "type": "uint256"
        }
      ],
      "stateMutability": "view",
      "type": "function"
    },
    {
      "inputs": [],
      "name": "getRemainingTokens",
      "outputs": [
        {
          "internalType": "uint256",
          "name": "",
          "type": "uint256"
        }
      ],
      "stateMutability": "view",
      "type": "function"
    },
    {
      "inputs": [
        {
          "internalType": "bool",
          "name": "isGenesis",
          "type": "bool"
        }
      ],
      "name": "getTokenPriceInETH",
      "outputs": [
        {
          "internalType": "uint256",
          "name": "",
          "type": "uint256"
        }
      ],
      "stateMutability": "view",
      "type": "function"
    },
    {
      "inputs": [
        {
          "internalType": "address",
          "name": "",
          "type": "address"
        }
      ],
      "name": "hasClaimedGenesisBenefit",
      "outputs": [
        {
          "internalType": "bool",
          "name": "",
          "type": "bool"
        }
      ],
      "stateMutability": "view",
      "type": "function"
    },
    {
      "inputs": [],
      "name": "hvnaToken",
      "outputs": [
        {
          "internalType": "contract IERC20",
          "name": "",
          "type": "address"
        }
      ],
      "stateMutability": "view",
      "type": "function"
    },
    {
      "inputs": [
        {
          "internalType": "address",
          "name": "user",
          "type": "address"
        }
      ],
      "name": "isGenesisHolder",
      "outputs": [
        {
          "internalType": "bool",
          "name": "",
          "type": "bool"
        }
      ],
      "stateMutability": "view",
      "type": "function"
    },
    {
      "inputs": [],
      "name": "maxPurchaseGenesis",
      "outputs": [
        {
          "internalType": "uint256",
          "name": "",
          "type": "uint256"
        }
      ],
      "stateMutability": "view",
      "type": "function"
    },
    {
      "inputs": [],
      "name": "maxPurchasePublic",
      "outputs": [
        {
          "internalType": "uint256",
          "name": "",
          "type": "uint256"
        }
      ],
      "stateMutability": "view",
      "type": "function"
    },
    {
      "inputs": [],
      "name": "maxTokensForPreSale",
      "outputs": [
        {
          "internalType": "uint256",
          "name": "",
          "type": "uint256"
        }
      ],
      "stateMutability": "view",
      "type": "function"
    },
    {
      "inputs": [],
      "name": "minPurchase",
      "outputs": [
        {
          "internalType": "uint256",
          "name": "",
          "type": "uint256"
        }
      ],
      "stateMutability": "view",
      "type": "function"
    },
    {
      "inputs": [],
      "name": "owner",
      "outputs": [
        {
          "internalType": "address",
          "name": "",
          "type": "address"
        }
      ],
      "stateMutability": "view",
      "type": "function"
    },
    {
      "inputs": [],
      "name": "priceFeed",
      "outputs": [
        {
          "internalType": "contract AggregatorV3Interface",
          "name": "",
          "type": "address"
        }
      ],
      "stateMutability": "view",
      "type": "function"
    },
    {
      "inputs": [],
      "name": "publicPhaseEnd",
      "outputs": [
        {
          "internalType": "uint256",
          "name": "",
          "type": "uint256"
        }
      ],
      "stateMutability": "view",
      "type": "function"
    },
    {
      "inputs": [],
      "name": "publicPhaseStart",
      "outputs": [
        {
          "internalType": "uint256",
          "name": "",
          "type": "uint256"
        }
      ],
      "stateMutability": "view",
      "type": "function"
    },
    {
      "inputs": [
        {
          "internalType": "address",
          "name": "",
          "type": "address"
        }
      ],
      "name": "purchasedAmount",
      "outputs": [
        {
          "internalType": "uint256",
          "name": "",
          "type": "uint256"
        }
      ],
      "stateMutability": "view",
      "type": "function"
    },
    {
      "inputs": [],
      "name": "saleActive",
      "outputs": [
        {
          "internalType": "bool",
          "name": "",
          "type": "bool"
        }
      ],
      "stateMutability": "view",
      "type": "function"
    },
    {
      "inputs": [
        {
          "internalType": "uint256",
          "name": "_genesisStart",
          "type": "uint256"
        },
        {
          "internalType": "uint256",
          "name": "_genesisEnd",
          "type": "uint256"
        },
        {
          "internalType": "uint256",
          "name": "_publicStart",
          "type": "uint256"
        },
        {
          "internalType": "uint256",
          "name": "_publicEnd",
          "type": "uint256"
        }
      ],
      "name": "setPhaseTiming",
      "outputs": [],
      "stateMutability": "nonpayable",
      "type": "function"
    },
    {
      "inputs": [
        {
          "internalType": "uint256",
          "name": "_tokenPriceUSDCents",
          "type": "uint256"
        },
        {
          "internalType": "uint256",
          "name": "_genesisDiscountPercent",
          "type": "uint256"
        }
      ],
      "name": "setPricing",
      "outputs": [],
      "stateMutability": "nonpayable",
      "type": "function"
    },
    {
      "inputs": [
        {
          "internalType": "uint256",
          "name": "_minPurchase",
          "type": "uint256"
        },
        {
          "internalType": "uint256",
          "name": "_maxPurchaseGenesis",
          "type": "uint256"
        },
        {
          "internalType": "uint256",
          "name": "_maxPurchasePublic",
          "type": "uint256"
        }
      ],
      "name": "setPurchaseLimits",
      "outputs": [],
      "stateMutability": "nonpayable",
      "type": "function"
    },
    {
      "inputs": [],
      "name": "toggleSale",
      "outputs": [],
      "stateMutability": "nonpayable",
      "type": "function"
    },
    {
      "inputs": [],
      "name": "tokenPriceUSDCents",
      "outputs": [
        {
          "internalType": "uint256",
          "name": "",
          "type": "uint256"
        }
      ],
      "stateMutability": "view",
      "type": "function"
    },
    {
      "inputs": [],
      "name": "tokensSold",
      "outputs": [
        {
          "internalType": "uint256",
          "name": "",
          "type": "uint256"
        }
      ],
      "stateMutability": "view",
      "type": "function"
    },
    {
      "inputs": [],
      "name": "updatePhase",
      "outputs": [],
      "stateMutability": "nonpayable",
      "type": "function"
    },
    {
      "inputs": [
        {
          "internalType": "address",
          "name": "_newPriceFeed",
          "type": "address"
        }
      ],
      "name": "updatePriceFeed",
      "outputs": [],
      "stateMutability": "nonpayable",
      "type": "function"
    },
    {
      "inputs": [],
      "name": "withdrawETH",
      "outputs": [],
      "stateMutability": "nonpayable",
      "type": "function"
    },
    {
      "inputs": [],
      "name": "withdrawUnsoldTokens",
      "outputs": [],
      "stateMutability": "nonpayable",
      "type": "function"
    }
  ],
  "bytecode": "0x6080346200014257601f62001a5738819003918201601f19168301916001600160401b03831184841017620001475780849260e09460405283398101031262000142576200004d816200015d565b906200005c602082016200015d565b916200006b604083016200015d565b60608301519060808401519260c060a086015195015195600354926064600455601e60055560006006556a0c685fa11e01ec6f0000006007556a0422ca8b0a00a425000000600855683635c9adc5dea00000600f55690a968163f0a57b40000060105569054b40b1f852bda0000060115560ff196012541660125560018060a01b0380928160018060a01b031995168560005416176000551683600154161760015516906002541617600255339060018060a81b03191617600355600955600a55600b55600c556040516118e49081620001738239f35b600080fd5b634e487b7160e01b600052604160045260246000fd5b51906001600160a01b0382168203620001425756fe60806040908082526004918236101561001757600080fd5b600091823560e01c908163034b9aae146112525750806304a4dd4014611234578063055ad42e14611209578063186faf4e146111eb5780631d3fdfbb146111c15780632030c02c146111a35780632989d6791461116857806333b5b62e1461114a57806334b2743e146111195780633610724e14610b8857806344c4dcc114610b4e578063518ab2a814610b3057806365bb07e514610ac357806367320dbb14610a8857806368428a1b14610a65578063741bef1a14610a3d578063751e82a714610a1f5780637b96d7601461095f5780637d8966e4146108f65780637e117648146108cc5780638da5cb5b146108a45780638dd4916b1461087c5780638f203cbe1461083f5780639115bda51461082157806391b073111461080357806395877f78146107b25780639705fd1314610771578063ad55c49914610732578063af35ae271461070f578063af36654e146106f3578063b687d1e7146106d7578063bf4b1990146106bb578063c8bdbfb61461051c578063ca05588a1461046f57909180938263cc8e487c1461044b578263db2e21bc146102ed5750508063e086e5ec1461029b578063e3e0fa991461027d578063e4ab7ca41461025f578063f25057f314610238578063f50b53d81461021a5763fb3ddc60146101f957600080fd5b34610216578160031936011261021657602090600c549051908152f35b5080fd5b5034610216578160031936011261021657602090600a549051908152f35b5034610216578160031936011261021657905490516001600160a01b039091168152602090f35b50346102165781600319360112610216576020906007549051908152f35b50346102165781600319360112610216576020906008549051908152f35b50346102165781600319360112610216578180808060018060a01b03600354166102c6813314611791565b47908282156102e4575bf1156102da575080f35b51903d90823e3d90fd5b506108fc6102d0565b909150346102165781600319360112610216576003546001600160a01b039190821661031a338214611791565b82845416918551916370a0823160e01b835230828401526020938484602481845afa918215610441578794859361040b575b5082610387575b50505050505047610362575080f35b8180809260035416479082821561037e575bf1156102da578180f35b506108fc610374565b885163a9059cbb60e01b81526001600160a01b039091169381019384526020840192909252909284928492918391829060400103925af18015610401576103d3575b8080808693610353565b816103f292903d106103fa575b6103ea81836113e9565b810190611735565b5038806103c9565b503d6103e0565b85513d86823e3d90fd5b945091508484813d811161043a575b61042481836113e9565b8101031261043657869351913861034c565b8680fd5b503d61041a565b88513d89823e3d90fd5b5082346102165781600319360112610216576020906104686117cd565b9051908152f35b5034610216578060031936011261021657823560243561049a60018060a01b03600354163314611791565b606481116104d957817f945c1c4e99aa89f648fbfe3df471b916f719e16d960fcec0737d4d56bd6968389495558060055582519182526020820152a180f35b825162461bcd60e51b8152602081870152601b60248201527f446973636f756e742063616e6e6f7420657863656564203130302500000000006044820152606490fd5b5082346106b757826003193601126106b7576003546001600160a01b03808216929160ff9061054c338614611791565b60a01c1660038110156106a4576002148015610697575b1561065c57908491825416908451916370a0823160e01b835230828401526020948584602481855afa9283156106525786948694610619575b50875163a9059cbb60e01b81526001600160a01b03909216908201908152602081019390935293849283919082906040015b03925af191821561060c576105ec935084926105ef575b505061174d565b80f35b6106059250803d106103fa576103ea81836113e9565b83806105e5565b50505051903d90823e3d90fd5b8581969295503d831161064b575b61063181836113e9565b81010312610647579251859390926105ce61059c565b8480fd5b503d610627565b87513d87823e3d90fd5b835162461bcd60e51b815260208184015260156024820152745072652d73616c65207374696c6c2061637469766560581b6044820152606490fd5b5060ff6012541615610563565b634e487b7160e01b865260218352602486fd5b8280fd5b503461021657816003193601126102165760209061046861143d565b503461021657816003193601126102165760209061046861186c565b50346102165781600319360112610216576020906104686117fe565b503461021657816003193601126102165760209061046860075460065490611511565b5082346106b75760203660031901126106b757356001600160a01b038116908190036106b757818360ff9260209552600e855220541690519015158152f35b8284346102165760803660031901126102165761079960018060a01b03600354163314611791565b35600955602435600a55604435600b55606435600c5580f35b82843461021657602036600319011261021657356001600160a01b03818116918290036106b7576107e890600354163314611791565b6bffffffffffffffffffffffff60a01b600254161760025580f35b50346102165781600319360112610216576020906011549051908152f35b50346102165781600319360112610216576020906009549051908152f35b5082346106b75760203660031901126106b75735916001600160a01b03831683036108795750610870602092611646565b90519015158152f35b80fd5b503461021657816003193601126102165760015490516001600160a01b039091168152602090f35b503461021657816003193601126102165760035490516001600160a01b039091168152602090f35b5082346106b75760203660031901126106b757359182151583036108795750610468602092611547565b503461021657816003193601126102165760207ff3637cdf61687bb87179d2da614bc1f4aa93c3cbf40282ccd0a15ecad9184cc19161094060018060a01b03600354163314611791565b6012549060ff8083161516809260ff191617601255519015158152a180f35b50346102165781600319360112610216576101409160ff9161098033611646565b9061098a3361182f565b600393919354946109a060075460065490611511565b338252600d6020529084902054908315610a1657601054925b6109c16117cd565b956109ca6117fe565b976109e56109d661143d565b9a83519c8d9160a01c166113c6565b60208b01528901526060880152608087015260a0860152151560c085015260e0840152610100830152610120820152f35b601154926109b9565b50346102165781600319360112610216576020906010549051908152f35b503461021657816003193601126102165760025490516001600160a01b039091168152602090f35b503461021657816003193601126102165760209060ff6012541690519015158152f35b82843461021657606036600319011261021657610ab060018060a01b03600354163314611791565b35600f5560243560105560443560115580f35b5082346106b75760203660031901126106b757359060038210156106b75760008051602061188f83398151915291610b2c602092600354610b0d60018060a01b0382163314611791565b60ff60a01b191660a084901b60ff60a01b1617600355519182906113c6565ba180f35b50346102165781600319360112610216576020906006549051908152f35b5082346106b75760203660031901126106b757356001600160a01b038116908190036106b75782829160209452600d845220549051908152f35b50602083366003190182136111155780359160ff60125416156110de5760ff60035460a01c169160038310156110cb576002831461109557610bc86117cd565b421061105c57610bd66117fe565b4211611029578315610fdc57600f548410610f9b57600654610bf88582611728565b60075410610f6057610c0933611646565b9380610f0f57508315610eb55784610c2091611728565b60085410610e7457601054610c34336116ba565b86519081527f71529f344966cde94570d3672e04ceaca4a0ebb9c92f0f169f090f1ac2bb9aab843392a25b338752600d8352610c738587892054611728565b11610e2957610c8283856115d4565b91813410610dee578754875163a9059cbb60e01b8152339281019283526020830188905291859183918290036040019082908c906001600160a01b03165af18015610de457610cd8918991610dc7575b5061174d565b610ce485600654611728565b600655338752600d8352858720610cfc868254611728565b90558380610db2575b610d98575b803411610d68575b94610d3893949560ff60035460a01c1693825197885287015285015260608401906113c6565b151560808201527ff176dd17ecd7370c4b9ac72d398444b0d6dae41877e8a3587f104b4f1bfc500760a03392a280f35b86808080610d768534611511565b818115610d8f575b3390f1610d125785513d88823e3d90fd5b506108fc610d7e565b338752600e8352858720805460ff19166001179055610d0a565b50338752600e835260ff868820541615610d05565b610dde9150853d87116103fa576103ea81836113e9565b89610cd2565b87513d8a823e3d90fd5b865162461bcd60e51b81529081018490526015602482015274125b9cdd59999a58da595b9d08115512081cd95b9d605a1b6044820152606490fd5b60849185519162461bcd60e51b8352820152602160248201527f4578636565647320696e646976696475616c207075726368617365206c696d696044820152601d60fa1b6064820152fd5b60649185519162461bcd60e51b8352820152601b60248201527f457863656564732047656e65736973207068617365206c696d697400000000006044820152fd5b5060849185519162461bcd60e51b8352820152602f60248201527f47656e657369732070686173653a204f6e6c79204e465420686f6c646572732060448201526e63616e20706172746963697061746560881b6064820152fd5b600114159050610f2f578215610f2757601054610c5f565b601154610c5f565b60649185519162461bcd60e51b8352820152600d60248201526c496e76616c696420706861736560981b6044820152fd5b5060649185519162461bcd60e51b83528201526016602482015275115e18d959591cc81c1c994b5cd85b19481b1a5b5a5d60521b6044820152fd5b60649185519162461bcd60e51b8352820152601d60248201527f42656c6f77206d696e696d756d20707572636861736520616d6f756e740000006044820152fd5b60849185519162461bcd60e51b8352820152602360248201527f546f6b656e20616d6f756e74206d75737420626520677265617465722074686160448201526206e20360ec1b6064820152fd5b60649185519162461bcd60e51b8352820152600f60248201526e141a185cd9481a185cc8195b991959608a1b6044820152fd5b60649185519162461bcd60e51b83528201526015602482015274141a185cd9481b9bdd081cdd185c9d1959081e595d605a1b6044820152fd5b60649185519162461bcd60e51b83528201526012602482015271141c994b5cd85b19481a185cc8195b99195960721b6044820152fd5b634e487b7160e01b865260219052602485fd5b835162461bcd60e51b815291820152601260248201527153616c65206973206e6f742061637469766560701b604482015260649150fd5b8380fd5b5082346106b75760203660031901126106b75735916001600160a01b038316830361087957506104686020926116ba565b5034610216578160031936011261021657602090600f549051908152f35b5091346102165760203660031901126102165735906001600160a01b038216820361087957506111979061182f565b82519182526020820152f35b5082346106b757826003193601126106b75760209250549051908152f35b5082346106b757816003193601126106b757602435908115158203611115579061119791356115d4565b50346102165781600319360112610216576020906005549051908152f35b503461021657816003193601126102165760209061123260ff60035460a01c16915180926113c6565bf35b5034610216578160031936011261021657602090600b549051908152f35b90508334611115578360031936011261111557600954421015806113ba575b806113a0575b156112a65750506003805460ff60a01b191690555181815260008051602061188f83398151915290602090a180f35b600b5442101580611394575b80611365575b156112ee5750506003805460ff60a01b1916600160a01b179055516001815260008051602061188f83398151915290602090a180f35b909150600c5442119081611334575b50611306575080f35b6003805460ff60a01b1916600160a11b1790556002815260008051602061188f83398151915290602090a180f35b6003805460a01c60ff169250821015611352575060021415836112fd565b634e487b7160e01b845260219052602483fd5b5060ff60035460a01c16600381101561138157600114156112b8565b634e487b7160e01b855260218252602485fd5b50600c544211156112b2565b5060ff60035460a01c166003811015611381571515611277565b50600a54421115611271565b9060038210156113d35752565b634e487b7160e01b600052602160045260246000fd5b90601f8019910116810190811067ffffffffffffffff82111761140b57604052565b634e487b7160e01b600052604160045260246000fd5b519069ffffffffffffffffffff8216820361143857565b600080fd5b600254604051633fabe5a360e21b81529060a090829060049082906001600160a01b03165afa908115611505576000916114b9575b50600081131561147f5790565b60405162461bcd60e51b8152602060048201526012602482015271125b9d985b1a59081c1c9a58d9481999595960721b6044820152606490fd5b9060a0823d82116114fd575b816114d260a093836113e9565b8101031261087957506114e481611421565b506114f6608060208301519201611421565b5038611472565b3d91506114c5565b6040513d6000823e3d90fd5b9190820391821161151e57565b634e487b7160e01b600052601160045260246000fd5b8181029291811591840414171561151e57565b61154f61143d565b90156115cc57600454600554606403906064821161151e5760649161157391611534565b045b620f42409081810291818304148115171561151e5769d3c21bcecceda10000000290808204670de0b6b3a7640000149015171561151e5781156115b6570490565b634e487b7160e01b600052601260045260246000fd5b600454611575565b919091670de0b6b3a76400006115f26115ec85611547565b83611534565b04921561162f57600454600554606403916064831161151e57606461162468056bc75e2d631000009461162b94611534565b0490611534565b0490565b61162b68056bc75e2d631000009160045490611534565b6001546040516370a0823160e01b81526001600160a01b0392831660048201529160209183916024918391165afa90811561150557600091611689575b50151590565b906020823d82116116b2575b816116a2602093836113e9565b8101031261087957505138611683565b3d9150611695565b6001546040516370a0823160e01b81526001600160a01b0392831660048201529160209183916024918391165afa908115611505576000916116fa575090565b906020823d8211611720575b81611713602093836113e9565b8101031261087957505190565b3d9150611706565b9190820180921161151e57565b90816020910312611438575180151581036114385790565b1561175457565b60405162461bcd60e51b8152602060048201526015602482015274151bdad95b881d1c985b9cd9995c8819985a5b1959605a1b6044820152606490fd5b1561179857565b60405162461bcd60e51b815260206004820152600d60248201526c2737ba103a34329037bbb732b960991b6044820152606490fd5b60ff60035460a01c1660038110156113d35780156117f7576001146117f157600090565b600b5490565b5060095490565b60ff60035460a01c1660038110156113d35780156118285760011461182257600090565b600c5490565b50600a5490565b61183890611646565b9061184282611547565b911561186657600454600554606403906064821161151e5760649161162b91611534565b60045490565b60065460085490818110156118875761188491611511565b90565b505060009056fea6dcc92f45df25789d5639b7a0c97ba1edf3bb1c0b5dd3376fd96a0db87c4642a2646970667358221220ea293b5c0e0ca757c1a7c43eca27677847ea9647d20148f72bef4958961c0ec464736f6c63430008130033",
  "linkReferences": {},
  "deployedLinkReferences": {}
}