{
  "_format": "hh-sol-artifact-1",
  "contractName": "TokenSale",
  "sourceName": "contracts/TokenSale.sol",
  "abi": [
    {
      "inputs": [
        {
          "internalType": "address",
          "name": "_hvnaTokenAddress",
          "type": "address"
        }
      ],
      "stateMutability": "nonpayable",
      "type": "constructor"
    },
    {
      "anonymous": false,
      "inputs": [
        {
          "indexed": false,
          "internalType": "uint256",
          "name": "newPrice",
          "type": "uint256"
        }
      ],
      "name": "PriceUpdated",
      "type": "event"
    },
    {
      "anonymous": false,
      "inputs": [
        {
          "indexed": false,
          "internalType": "bool",
          "name": "active",
          "type": "bool"
        }
      ],
      "name": "SaleStatusChanged",
      "type": "event"
    },
    {
      "anonymous": false,
      "inputs": [
        {
          "indexed": true,
          "internalType": "address",
          "name": "buyer",
          "type": "address"
        },
        {
          "indexed": false,
          "internalType": "uint256",
          "name": "amount",
          "type": "uint256"
        },
        {
          "indexed": false,
          "internalType": "uint256",
          "name": "cost",
          "type": "uint256"
        }
      ],
      "name": "TokensPurchased",
      "type": "event"
    },
    {
      "inputs": [
        {
          "internalType": "uint256",
          "name": "tokenAmount",
          "type": "uint256"
        }
      ],
      "name": "buyTokens",
      "outputs": [],
      "stateMutability": "payable",
      "type": "function"
    },
    {
      "inputs": [],
      "name": "getRemainingTokens",
      "outputs": [
        {
          "internalType": "uint256",
          "name": "",
          "type": "uint256"
        }
      ],
      "stateMutability": "view",
      "type": "function"
    },
    {
      "inputs": [],
      "name": "hvnaToken",
      "outputs": [
        {
          "internalType": "contract IERC20",
          "name": "",
          "type": "address"
        }
      ],
      "stateMutability": "view",
      "type": "function"
    },
    {
      "inputs": [],
      "name": "maxTokensForSale",
      "outputs": [
        {
          "internalType": "uint256",
          "name": "",
          "type": "uint256"
        }
      ],
      "stateMutability": "view",
      "type": "function"
    },
    {
      "inputs": [],
      "name": "owner",
      "outputs": [
        {
          "internalType": "address",
          "name": "",
          "type": "address"
        }
      ],
      "stateMutability": "view",
      "type": "function"
    },
    {
      "inputs": [],
      "name": "saleActive",
      "outputs": [
        {
          "internalType": "bool",
          "name": "",
          "type": "bool"
        }
      ],
      "stateMutability": "view",
      "type": "function"
    },
    {
      "inputs": [
        {
          "internalType": "uint256",
          "name": "newPrice",
          "type": "uint256"
        }
      ],
      "name": "setTokenPrice",
      "outputs": [],
      "stateMutability": "nonpayable",
      "type": "function"
    },
    {
      "inputs": [],
      "name": "toggleSale",
      "outputs": [],
      "stateMutability": "nonpayable",
      "type": "function"
    },
    {
      "inputs": [],
      "name": "tokenPrice",
      "outputs": [
        {
          "internalType": "uint256",
          "name": "",
          "type": "uint256"
        }
      ],
      "stateMutability": "view",
      "type": "function"
    },
    {
      "inputs": [],
      "name": "tokensSold",
      "outputs": [
        {
          "internalType": "uint256",
          "name": "",
          "type": "uint256"
        }
      ],
      "stateMutability": "view",
      "type": "function"
    },
    {
      "inputs": [],
      "name": "withdrawETH",
      "outputs": [],
      "stateMutability": "nonpayable",
      "type": "function"
    },
    {
      "inputs": [],
      "name": "withdrawUnsoldTokens",
      "outputs": [],
      "stateMutability": "nonpayable",
      "type": "function"
    }
  ],
  "bytecode": "0x6080346100a757601f61084b38819003918201601f19168301916001600160401b038311848410176100ac578084926020946040528339810103126100a757516001600160a01b038116908190036100a757655af3107a400060025560006003556a18d0bf423c03d8de000000600455600160ff19600554161760055560018060a01b0319908160005416176000553390600154161760015560405161078890816100c38239f35b600080fd5b634e487b7160e01b600052604160045260246000fdfe608060408181526004918236101561001657600080fd5b600092833560e01c9182633610724e146103f357508163518ab2a8146103d457816368428a1b146103b05781636a61e5fc146103555781637d8966e4146102eb5781637ff9b596146102cc5781638da5cb5b146102a357816397f2f5c314610285578163af35ae2714610258578163c8bdbfb61461012557508063e086e5ec146100d35763f25057f3146100a957600080fd5b346100cf57816003193601126100cf57905490516001600160a01b039091168152602090f35b5080fd5b50346100cf57816003193601126100cf578180808060018060a01b03600154166100fe813314610716565b479082821561011c575bf115610112575080f35b51903d90823e3d90fd5b506108fc610108565b9050346102545782600319360112610254576001546001600160a01b03908116918491610153338514610716565b825416908451916370a0823160e01b835230828401526020948584602481855afa92831561024a5786948694610211575b50875163a9059cbb60e01b81526001600160a01b03909216908201908152602081019390935293849283919082906040015b03925af1918215610204576101d4935084926101d7575b50506106c5565b80f35b6101f69250803d106101fd575b6101ee8183610670565b8101906106a8565b38806101cd565b503d6101e4565b50505051903d90823e3d90fd5b8581969295503d8311610243575b6102298183610670565b8101031261023f579251859390926101b6610184565b8480fd5b503d61021f565b87513d87823e3d90fd5b8280fd5b8284346102825780600319360112610282575061027b6020925460035490610709565b9051908152f35b80fd5b90503461025457826003193601126102545760209250549051908152f35b5050346100cf57816003193601126100cf5760015490516001600160a01b039091168152602090f35b5050346100cf57816003193601126100cf576020906002549051908152f35b5050346100cf57816003193601126100cf5760207ff3637cdf61687bb87179d2da614bc1f4aa93c3cbf40282ccd0a15ecad9184cc19161033660018060a01b03600154163314610716565b6005549060ff8083161516809260ff191617600555519015158152a180f35b905034610254576020366003190112610254577f66cbca4f3c64fecf1dcb9ce094abcf7f68c3450a1d4e3a8e917dd621edb4ebe09160209135906103a460018060a01b03600154163314610716565b8160025551908152a180f35b5050346100cf57816003193601126100cf5760209060ff6005541690519015158152f35b5050346100cf57816003193601126100cf576020906003549051908152f35b9150916020928360031936011261023f5780359260ff6005541615610619575082156105cc576104258360035461064d565b81541061058b57600254808402908482040361057857670de0b6b3a764000090049081341061053d578554835163a9059cbb60e01b8152339281019283526020830186905291869183918290036040019082908a906001600160a01b03165af1908115610533579061049e918791610516575b506106c5565b6104aa8360035461064d565b6003558034116104e6575b7f8fafebcaf9d154343dad25669bfa277f4fbacd7ac6b0c4fed522580e040a0f33929382519485528401523392a280f35b848080806104f48534610709565b81811561050d575b3390f16104b55781513d86823e3d90fd5b506108fc6104fc565b61052d9150863d88116101fd576101ee8183610670565b38610498565b83513d88823e3d90fd5b825162461bcd60e51b81529081018590526015602482015274125b9cdd59999a58da595b9d08115512081cd95b9d605a1b6044820152606490fd5b634e487b7160e01b865260118252602486fd5b83606492519162461bcd60e51b8352820152601b60248201527f4e6f7420656e6f75676820746f6b656e7320617661696c61626c6500000000006044820152fd5b83608492519162461bcd60e51b8352820152602360248201527f546f6b656e20616d6f756e74206d75737420626520677265617465722074686160448201526206e20360ec1b6064820152fd5b8460649262461bcd60e51b8352820152601260248201527153616c65206973206e6f742061637469766560701b6044820152fd5b9190820180921161065a57565b634e487b7160e01b600052601160045260246000fd5b90601f8019910116810190811067ffffffffffffffff82111761069257604052565b634e487b7160e01b600052604160045260246000fd5b908160209103126106c0575180151581036106c05790565b600080fd5b156106cc57565b60405162461bcd60e51b8152602060048201526015602482015274151bdad95b881d1c985b9cd9995c8819985a5b1959605a1b6044820152606490fd5b9190820391821161065a57565b1561071d57565b60405162461bcd60e51b815260206004820152600d60248201526c2737ba103a34329037bbb732b960991b6044820152606490fdfea2646970667358221220fe1889727f85ef9c1f30d9c14ab5e266bced8375f64eebca2919d54b2807a8c964736f6c63430008130033",
  "linkReferences": {},
  "deployedLinkReferences": {}
}