{
  "_format": "hh-sol-artifact-1",
  "contractName": "TokenStaking",
  "sourceName": "contracts/TokenStaking.sol",
  "abi": [
    {
      "inputs": [
        {
          "internalType": "address",
          "name": "_hvnaToken",
          "type": "address"
        },
        {
          "internalType": "address",
          "name": "_nftContract",
          "type": "address"
        }
      ],
      "stateMutability": "nonpayable",
      "type": "constructor"
    },
    {
      "anonymous": false,
      "inputs": [
        {
          "indexed": true,
          "internalType": "uint256",
          "name": "poolId",
          "type": "uint256"
        },
        {
          "indexed": false,
          "internalType": "string",
          "name": "name",
          "type": "string"
        },
        {
          "indexed": false,
          "internalType": "uint256",
          "name": "rewardRate",
          "type": "uint256"
        }
      ],
      "name": "PoolCreated",
      "type": "event"
    },
    {
      "anonymous": false,
      "inputs": [
        {
          "indexed": true,
          "internalType": "uint256",
          "name": "poolId",
          "type": "uint256"
        },
        {
          "indexed": false,
          "internalType": "uint256",
          "name": "newRewardRate",
          "type": "uint256"
        },
        {
          "indexed": false,
          "internalType": "bool",
          "name": "isActive",
          "type": "bool"
        }
      ],
      "name": "PoolUpdated",
      "type": "event"
    },
    {
      "anonymous": false,
      "inputs": [
        {
          "indexed": true,
          "internalType": "address",
          "name": "user",
          "type": "address"
        },
        {
          "indexed": true,
          "internalType": "uint256",
          "name": "poolId",
          "type": "uint256"
        },
        {
          "indexed": false,
          "internalType": "uint256",
          "name": "amount",
          "type": "uint256"
        }
      ],
      "name": "RewardsClaimed",
      "type": "event"
    },
    {
      "anonymous": false,
      "inputs": [
        {
          "indexed": true,
          "internalType": "address",
          "name": "user",
          "type": "address"
        },
        {
          "indexed": true,
          "internalType": "uint256",
          "name": "poolId",
          "type": "uint256"
        },
        {
          "indexed": false,
          "internalType": "uint256",
          "name": "amount",
          "type": "uint256"
        }
      ],
      "name": "Staked",
      "type": "event"
    },
    {
      "anonymous": false,
      "inputs": [
        {
          "indexed": true,
          "internalType": "address",
          "name": "user",
          "type": "address"
        },
        {
          "indexed": true,
          "internalType": "uint256",
          "name": "poolId",
          "type": "uint256"
        },
        {
          "indexed": false,
          "internalType": "uint256",
          "name": "amount",
          "type": "uint256"
        }
      ],
      "name": "Unstaked",
      "type": "event"
    },
    {
      "inputs": [],
      "name": "BASIS_POINTS",
      "outputs": [
        {
          "internalType": "uint256",
          "name": "",
          "type": "uint256"
        }
      ],
      "stateMutability": "view",
      "type": "function"
    },
    {
      "inputs": [],
      "name": "SECONDS_PER_YEAR",
      "outputs": [
        {
          "internalType": "uint256",
          "name": "",
          "type": "uint256"
        }
      ],
      "stateMutability": "view",
      "type": "function"
    },
    {
      "inputs": [
        {
          "internalType": "address",
          "name": "user",
          "type": "address"
        },
        {
          "internalType": "uint256",
          "name": "poolId",
          "type": "uint256"
        }
      ],
      "name": "calculateRewards",
      "outputs": [
        {
          "internalType": "uint256",
          "name": "",
          "type": "uint256"
        }
      ],
      "stateMutability": "view",
      "type": "function"
    },
    {
      "inputs": [],
      "name": "claimAllRewards",
      "outputs": [],
      "stateMutability": "nonpayable",
      "type": "function"
    },
    {
      "inputs": [
        {
          "internalType": "uint256",
          "name": "poolId",
          "type": "uint256"
        }
      ],
      "name": "claimRewards",
      "outputs": [],
      "stateMutability": "nonpayable",
      "type": "function"
    },
    {
      "inputs": [],
      "name": "claimingPaused",
      "outputs": [
        {
          "internalType": "bool",
          "name": "",
          "type": "bool"
        }
      ],
      "stateMutability": "view",
      "type": "function"
    },
    {
      "inputs": [
        {
          "internalType": "string",
          "name": "name",
          "type": "string"
        },
        {
          "internalType": "uint256",
          "name": "minStakeAmount",
          "type": "uint256"
        },
        {
          "internalType": "uint256",
          "name": "rewardRate",
          "type": "uint256"
        },
        {
          "internalType": "uint256",
          "name": "lockPeriod",
          "type": "uint256"
        },
        {
          "internalType": "bool",
          "name": "requiresNFT",
          "type": "bool"
        }
      ],
      "name": "createPool",
      "outputs": [],
      "stateMutability": "nonpayable",
      "type": "function"
    },
    {
      "inputs": [],
      "name": "emergencyWithdraw",
      "outputs": [],
      "stateMutability": "nonpayable",
      "type": "function"
    },
    {
      "inputs": [
        {
          "internalType": "uint256",
          "name": "poolId",
          "type": "uint256"
        }
      ],
      "name": "getPoolInfo",
      "outputs": [
        {
          "internalType": "string",
          "name": "name",
          "type": "string"
        },
        {
          "internalType": "uint256",
          "name": "minStakeAmount",
          "type": "uint256"
        },
        {
          "internalType": "uint256",
          "name": "rewardRate",
          "type": "uint256"
        },
        {
          "internalType": "uint256",
          "name": "lockPeriod",
          "type": "uint256"
        },
        {
          "internalType": "bool",
          "name": "requiresNFT",
          "type": "bool"
        },
        {
          "internalType": "bool",
          "name": "isActive",
          "type": "bool"
        },
        {
          "internalType": "uint256",
          "name": "totalStaked",
          "type": "uint256"
        }
      ],
      "stateMutability": "view",
      "type": "function"
    },
    {
      "inputs": [
        {
          "internalType": "address",
          "name": "user",
          "type": "address"
        }
      ],
      "name": "getTotalPendingRewards",
      "outputs": [
        {
          "internalType": "uint256",
          "name": "",
          "type": "uint256"
        }
      ],
      "stateMutability": "view",
      "type": "function"
    },
    {
      "inputs": [
        {
          "internalType": "address",
          "name": "user",
          "type": "address"
        }
      ],
      "name": "getUserActivePools",
      "outputs": [
        {
          "internalType": "uint256[]",
          "name": "",
          "type": "uint256[]"
        }
      ],
      "stateMutability": "view",
      "type": "function"
    },
    {
      "inputs": [
        {
          "internalType": "address",
          "name": "user",
          "type": "address"
        },
        {
          "internalType": "uint256",
          "name": "poolId",
          "type": "uint256"
        }
      ],
      "name": "getUserStakeInfo",
      "outputs": [
        {
          "internalType": "uint256",
          "name": "amount",
          "type": "uint256"
        },
        {
          "internalType": "uint256",
          "name": "timestamp",
          "type": "uint256"
        },
        {
          "internalType": "uint256",
          "name": "totalClaimed",
          "type": "uint256"
        },
        {
          "internalType": "uint256",
          "name": "pendingRewards",
          "type": "uint256"
        },
        {
          "internalType": "bool",
          "name": "isActive",
          "type": "bool"
        }
      ],
      "stateMutability": "view",
      "type": "function"
    },
    {
      "inputs": [],
      "name": "hvnaToken",
      "outputs": [
        {
          "internalType": "contract IERC20",
          "name": "",
          "type": "address"
        }
      ],
      "stateMutability": "view",
      "type": "function"
    },
    {
      "inputs": [],
      "name": "nftContract",
      "outputs": [
        {
          "internalType": "contract IERC721",
          "name": "",
          "type": "address"
        }
      ],
      "stateMutability": "view",
      "type": "function"
    },
    {
      "inputs": [],
      "name": "owner",
      "outputs": [
        {
          "internalType": "address",
          "name": "",
          "type": "address"
        }
      ],
      "stateMutability": "view",
      "type": "function"
    },
    {
      "inputs": [],
      "name": "poolCounter",
      "outputs": [
        {
          "internalType": "uint256",
          "name": "",
          "type": "uint256"
        }
      ],
      "stateMutability": "view",
      "type": "function"
    },
    {
      "inputs": [
        {
          "internalType": "uint256",
          "name": "",
          "type": "uint256"
        },
        {
          "internalType": "uint256",
          "name": "",
          "type": "uint256"
        }
      ],
      "name": "poolStakers",
      "outputs": [
        {
          "internalType": "address",
          "name": "",
          "type": "address"
        }
      ],
      "stateMutability": "view",
      "type": "function"
    },
    {
      "inputs": [
        {
          "internalType": "uint256",
          "name": "poolId",
          "type": "uint256"
        },
        {
          "internalType": "uint256",
          "name": "amount",
          "type": "uint256"
        }
      ],
      "name": "stake",
      "outputs": [],
      "stateMutability": "nonpayable",
      "type": "function"
    },
    {
      "inputs": [],
      "name": "stakingPaused",
      "outputs": [
        {
          "internalType": "bool",
          "name": "",
          "type": "bool"
        }
      ],
      "stateMutability": "view",
      "type": "function"
    },
    {
      "inputs": [
        {
          "internalType": "uint256",
          "name": "",
          "type": "uint256"
        }
      ],
      "name": "stakingPools",
      "outputs": [
        {
          "internalType": "uint256",
          "name": "id",
          "type": "uint256"
        },
        {
          "internalType": "string",
          "name": "name",
          "type": "string"
        },
        {
          "internalType": "uint256",
          "name": "minStakeAmount",
          "type": "uint256"
        },
        {
          "internalType": "uint256",
          "name": "rewardRate",
          "type": "uint256"
        },
        {
          "internalType": "uint256",
          "name": "lockPeriod",
          "type": "uint256"
        },
        {
          "internalType": "bool",
          "name": "requiresNFT",
          "type": "bool"
        },
        {
          "internalType": "bool",
          "name": "isActive",
          "type": "bool"
        },
        {
          "internalType": "uint256",
          "name": "totalStaked",
          "type": "uint256"
        },
        {
          "internalType": "uint256",
          "name": "totalRewardsDistributed",
          "type": "uint256"
        }
      ],
      "stateMutability": "view",
      "type": "function"
    },
    {
      "inputs": [],
      "name": "toggleClaiming",
      "outputs": [],
      "stateMutability": "nonpayable",
      "type": "function"
    },
    {
      "inputs": [],
      "name": "toggleStaking",
      "outputs": [],
      "stateMutability": "nonpayable",
      "type": "function"
    },
    {
      "inputs": [
        {
          "internalType": "uint256",
          "name": "poolId",
          "type": "uint256"
        },
        {
          "internalType": "uint256",
          "name": "amount",
          "type": "uint256"
        }
      ],
      "name": "unstake",
      "outputs": [],
      "stateMutability": "nonpayable",
      "type": "function"
    },
    {
      "inputs": [
        {
          "internalType": "uint256",
          "name": "poolId",
          "type": "uint256"
        },
        {
          "internalType": "uint256",
          "name": "newRewardRate",
          "type": "uint256"
        },
        {
          "internalType": "bool",
          "name": "isActive",
          "type": "bool"
        }
      ],
      "name": "updatePool",
      "outputs": [],
      "stateMutability": "nonpayable",
      "type": "function"
    },
    {
      "inputs": [
        {
          "internalType": "address",
          "name": "",
          "type": "address"
        },
        {
          "internalType": "uint256",
          "name": "",
          "type": "uint256"
        }
      ],
      "name": "userActivePools",
      "outputs": [
        {
          "internalType": "uint256",
          "name": "",
          "type": "uint256"
        }
      ],
      "stateMutability": "view",
      "type": "function"
    },
    {
      "inputs": [
        {
          "internalType": "address",
          "name": "",
          "type": "address"
        },
        {
          "internalType": "uint256",
          "name": "",
          "type": "uint256"
        }
      ],
      "name": "userStakes",
      "outputs": [
        {
          "internalType": "uint256",
          "name": "poolId",
          "type": "uint256"
        },
        {
          "internalType": "uint256",
          "name": "amount",
          "type": "uint256"
        },
        {
          "internalType": "uint256",
          "name": "timestamp",
          "type": "uint256"
        },
        {
          "internalType": "uint256",
          "name": "lastClaimTimestamp",
          "type": "uint256"
        },
        {
          "internalType": "uint256",
          "name": "totalClaimed",
          "type": "uint256"
        },
        {
          "internalType": "bool",
          "name": "isActive",
          "type": "bool"
        }
      ],
      "stateMutability": "view",
      "type": "function"
    }
  ],
  "bytecode": "0x60803462000c3357601f6200268638819003918201601f19168301916001600160401b03831184841017620008f257808492604094855283398101031262000c33576200005a6020620000528362000c79565b920162000c79565b61ffff196008541660085560018060a01b03199160018060a01b031682600054161760005560018060a01b031681600154161760015533906002541617600255620000a462000c59565b600d81526c4261736963205374616b696e6760981b60208201526001600755620000cd62000c38565b60018152816020820152683635c9adc5dea0000060408201526103e8606082015260006080820152600060a0820152600160c0820152600060e082015260006101008201526001600052600360205260406000209080518255602081015180519060018060401b038211620008f2576001840154600181811c9116801562000c28575b6020821014620008d157601f811162000bdc575b50602090601f831160011462000b61579180600794926101009460009262000b55575b50508160011b916000199060031b1c19161760018501555b604081015160028501556060810151600385015560808101516004850155620001fd60058501620001e260a08401511515829060ff801983541691151516179055565b60c0830151815461ff00191690151560081b61ff0016179055565b60e081015160068501550151910155604051906040825280519081604084015260005b82811062000b3e57600160008051602062002666833981519152856060818760008382840101526103e86020830152601f80199101168101030190a26200026662000c59565b600f81526e5072656d69756d205374616b696e6760881b60208201526002546001600160a01b031633036200091e57600754906000198214620009085760018201600755620002b462000c38565b60018301815281602082015269010f0cf064dd5920000060408201526105dc606082015262278d006080820152600060a0820152600160c0820152600060e0820152600061010082015260018301600052600360205260406000209080518255602081015180519060018060401b038211620008f2576001840154600181811c9116801562000b33575b6020821014620008d157601f811162000ae7575b50602090601f831160011462000a6c579180600794926101009460009262000a60575b50508160011b916000199060031b1c19161760018501555b604081015160028501556060810151600385015560808101516004850155620003d060058501620001e260a08401511515829060ff801983541691151516179055565b60e0810151600685015501519101556040516040815281519182604083015260005b83811062000a495783600080516020620026668339815191528460608160018a60008488850101526105dc60208401520194601f80199101168101030190a26200043b62000c59565b601081526f13919508121bdb19195c9cc8141bdbdb60821b60208201526002546001600160a01b031633036200091e576007549060001982146200090857600182016007556200048a62000c38565b600183018152816020820152683635c9adc5dea0000060408201526107d0606082015260006080820152600160a0820152600160c0820152600060e0820152600061010082015260018301600052600360205260406000209080518255602081015180519060018060401b038211620008f2576001840154600181811c9116801562000a3e575b6020821014620008d157601f8111620009f2575b50602090601f83116001146200097757918060079492610100946000926200096b575b50508160011b916000199060031b1c19161760018501555b604081015160028501556060810151600385015560808101516004850155620005a360058501620001e260a08401511515829060ff801983541691151516179055565b60e0810151600685015501519101556040516040815281519182604083015260005b838110620009545783600080516020620026668339815191528460608160018a60008488850101526107d060208401520194601f80199101168101030190a26200060e62000c59565b600d81526c4469616d6f6e642048616e647360981b60208201526002546001600160a01b031633036200091e576007549060001982146200090857600182016007556200065a62000c38565b60018301815281602082015269021e19e0c9bab240000060408201526109c460608201526276a7006080820152600060a0820152600160c0820152600060e0820152600061010082015260018301600052600360205260406000209080518255602081015180519060018060401b038211620008f2576001840154600181811c91168015620008e7575b6020821014620008d157601f811162000885575b50602090601f83116001146200080a5791806007949261010094600092620007fe575b50508160011b916000199060031b1c19161760018501555b6040810151600285015560608101516003850155608081015160048501556200077660058501620001e260a08401511515829060ff801983541691151516179055565b60e0810151600685015501519101556040516040815281519182604083015260005b838110620007e75783600080516020620026668339815191528460608160018a60008488850101526109c460208401520194601f80199101168101030190a26040516119d7908162000c8f8239f35b806020809284010151606082860101520162000798565b0151905088806200071b565b906001850160005260206000209160005b601f19851681106200086c575092600794926001926101009583601f1981161062000852575b505050811b01600185015562000733565b015160001960f88460031b161c1916905588808062000841565b919260206001819286850151815501940192016200081b565b600185016000526020600020601f840160051c810160208510620008c9575b601f830160051c82018110620008bc575050620006f8565b60008155600101620008a4565b5080620008a4565b634e487b7160e01b600052602260045260246000fd5b90607f1690620006e4565b634e487b7160e01b600052604160045260246000fd5b634e487b7160e01b600052601160045260246000fd5b60405162461bcd60e51b815260206004820152600e60248201526d139bdd08185d5d1a1bdc9a5e995960921b6044820152606490fd5b8060208092840101516060828601015201620005c5565b01519050888062000548565b906001850160005260206000209160005b601f1985168110620009d9575092600794926001926101009583601f19811610620009bf575b505050811b01600185015562000560565b015160001960f88460031b161c19169055888080620009ae565b9192602060018192868501518155019401920162000988565b600185016000526020600020601f840160051c81016020851062000a36575b601f830160051c8201811062000a2957505062000525565b6000815560010162000a11565b508062000a11565b90607f169062000511565b8060208092840101516060828601015201620003f2565b01519050888062000375565b906001850160005260206000209160005b601f198516811062000ace575092600794926001926101009583601f1981161062000ab4575b505050811b0160018501556200038d565b015160001960f88460031b161c1916905588808062000aa3565b9192602060018192868501518155019401920162000a7d565b600185016000526020600020601f840160051c81016020851062000b2b575b601f830160051c8201811062000b1e57505062000352565b6000815560010162000b06565b508062000b06565b90607f16906200033e565b806020809284010151606082870101520162000220565b01519050388062000187565b906001850160005260206000209160005b601f198516811062000bc3575092600794926001926101009583601f1981161062000ba9575b505050811b0160018501556200019f565b015160001960f88460031b161c1916905538808062000b98565b9192602060018192868501518155019401920162000b72565b600185016000526020600020601f840160051c81016020851062000c20575b601f830160051c8201811062000c1357505062000164565b6000815560010162000bfb565b508062000bfb565b90607f169062000150565b600080fd5b6040519061012082016001600160401b03811183821017620008f257604052565b60408051919082016001600160401b03811183821017620008f257604052565b51906001600160a01b038216820362000c335756fe6080604052600436101561001257600080fd5b60003560e01c8062ae5faa146113825780630962ef791461132b5780630b83a727146112525780631213d95314610f2f5780631d57960014610e7b5780632f380b3514610deb5780633b8105b314610dad578063559b8e5314610d555780635aad6cf014610cb1578063611af22614610c6757806369ab3e3214610bb25780637b0472f0146107e35780638010fc45146107a15780638da5cb5b1461077857806397b84011146107525780639e2c8a5b146104995780639e3079cb1461047b578063a8c478ba146103be578063b5d5b5fa1461033a578063bbb781cc14610317578063beb8314c146102e8578063d56d229d146102bf578063db2e21bc146101a3578063e1f1c4a714610186578063e6a69ab8146101675763f25057f31461013957600080fd5b34610162576000366003190112610162576000546040516001600160a01b039091168152602090f35b600080fd5b346101625760003660031901126101625760206040516301e133808152f35b346101625760003660031901126101625760206040516127108152f35b34610162576000366003190112610162576002546001600160a01b03908116906101ce33831461159e565b600054166040516370a0823160e01b81523060048201526020928382602481865afa90811561028057849260009261028c575b5060405163a9059cbb60e01b81526001600160a01b039091166004820152602481019190915291829081600081604481015b03925af19081156102805761025192600092610253575b5050611651565b005b6102729250803d10610279575b61026a8183611418565b810190611639565b828061024a565b503d610260565b6040513d6000823e3d90fd5b8381949293503d83116102b8575b6102a48183611418565b810103126101625790518391610233610201565b503d61029a565b34610162576000366003190112610162576001546040516001600160a01b039091168152602090f35b3461016257604036600319011261016257602061030f610306611402565b6024359061186c565b604051908152f35b3461016257600036600319011261016257602060ff600854166040519015158152f35b34610162576040366003190112610162576001600160a01b0361035b611402565b166000526004602052604060002060243560005260205260c06040600020805490600181015490600281015460038201549060ff6005600485015494015416936040519586526020860152604085015260608401526080830152151560a0820152f35b3461016257602080600319360112610162576103d8611402565b60009060018060a01b038116600052600583526040600020604051808286829454938481520190600052866000209260005b888282106104655750505061042192500382611418565b6000925b815184101561045b5761044f61045591610449610442878661198d565b518661186c565b9061162c565b936115db565b92610425565b8490604051908152f35b855484526001958601958795509301920161040a565b34610162576000366003190112610162576020600754604051908152f35b34610162576104a736611588565b3360005260209060048252604060002083600052825260406000209160058301926104d560ff85541661168f565b6001938482018481541061070d57866000526003928385526105056002604060002092015460048301549061162c565b42106106d05760069061051789611718565b6105228784546116cd565b8355016105308682546116cd565b905554156105d3575b50506000805460405163a9059cbb60e01b8152336004820152602481018590529394508291849160449183916001600160a01b03165af1918215610280577f7fc4727e062e336010f2c282598ef5f14facb3de68cf8195c2f23e1454b2b74e926105ab916000916105b6575b50611651565b6040519283523392a3005b6105cd9150833d85116102795761026a8183611418565b866105a5565b60ff19815416905533600052600582526040600020846000905b6105f8575b50610539565b8154808210156106ca578761060d838561147a565b905490861b1c146106285750610622906115db565b856105ed565b90919293949550600019918282019182116106b45761065a61064d610673938661147a565b905490871b1c918561147a565b90919082549060031b91821b91600019901b1916179055565b8154801561069e57810192610688848461147a565b81939154921b1b191690555581908480806105f2565b634e487b7160e01b600052603160045260246000fd5b634e487b7160e01b600052601160045260246000fd5b506105f2565b60405162461bcd60e51b8152600481018690526015602482015274131bd8dac81c195c9a5bd9081b9bdd08195b991959605a1b6044820152606490fd5b60405162461bcd60e51b815260048101859052601a60248201527f496e73756666696369656e74207374616b656420616d6f756e740000000000006044820152606490fd5b3461016257600036600319011261016257602060ff60085460081c166040519015158152f35b34610162576000366003190112610162576002546040516001600160a01b039091168152602090f35b34610162576000366003190112610162576107c760018060a01b0360025416331461159e565b6008805461ff0019811690821c60ff1615821b61ff0016179055005b34610162576107f136611588565b60ff60085416610b7c57816000526003602081815261081660406000205415156115ea565b8360005281815260ff60056040600020015460081c1615610b4657836000528181526002604060002001548310610b0b578360005281815260ff60056040600020015416610a6c575b3360005260048152604060002084600052815260ff600560406000200154166000146109415760009161089185611718565b33835260048252604083208584528252600160408420016108b385825461162c565b90555b8483528152600660408320016108cd84825461162c565b905581546040516323b872dd60e01b81523360048201523060248201526044810185905292829184916064918391906001600160a01b03165af1918215610280577f1449c6dd7851abc30abf37f57715f492010519147cc2652fbc38202c18a6ee90926105ab916000916105b65750611651565b60405160c081019080821067ffffffffffffffff831117610a56576109d7916040528581526005838201868152604083014281526060840142815260808501916000835260a086019360018552336000526004895260406000208c6000528952604060002096518755516001870155516002860155518785015551600484015551151591019060ff801983541691151516179055565b3360005260058152604060002091825492680100000000000000009384811015610a565761065a81610a0f9360018a9401815561147a565b84600052600682526040600020805493841015610a565783610a3891600160009601815561147a565b81546001600160a01b0391841b91821b19163390911b1790556108b6565b634e487b7160e01b600052604160045260246000fd5b6001546040516370a0823160e01b8152336004820152908290829060249082906001600160a01b03165afa90811561028057600091610ade575b5061085f576064906040519062461bcd60e51b82526004820152600c60248201526b139195081c995c5d5a5c995960a21b6044820152fd5b90508181813d8311610b04575b610af58183611418565b81010312610162575185610aa6565b503d610aeb565b6064906040519062461bcd60e51b825260048201526014602482015273416d6f756e742062656c6f77206d696e696d756d60601b6044820152fd5b6064906040519062461bcd60e51b82526004820152600f60248201526e506f6f6c206e6f742061637469766560881b6044820152fd5b60405162461bcd60e51b815260206004820152600e60248201526d14dd185ada5b99c81c185d5cd95960921b6044820152606490fd5b346101625760603660031901126101625760043560243560443580151591828203610162577fec70f7b7f8beefa9ff0456053baafec83986e3915f156e2ed04b0acb57d7dd5592610c5a604093610c1460018060a01b0360025416331461159e565b866000526003602052610c2c856000205415156115ea565b866000526003602052600585600020856003820155019061ff00825491151560081b169061ff001916179055565b82519182526020820152a2005b3461016257610c7536611588565b9060005260066020526040600020805482101561016257602091610c989161147a565b905460405160039290921b1c6001600160a01b03168152f35b3461016257602036600319011261016257600435600052600360205260406000208054610ce0600183016114e2565b9160028101549060038101549060ff60048201546005830154906007600685015494015494610d21604051998a998a526101208060208c01528a019061143a565b96604089015260608801526080870152818116151560a087015260081c16151560c085015260e08401526101008301520390f35b3461016257604036600319011261016257610d6e611402565b6001600160a01b031660009081526005602052604090208054602435919082101561016257602091610d9f9161147a565b90546040519160031b1c8152f35b3461016257600036600319011261016257610dd360018060a01b0360025416331461159e565b60085460ff80821615169060ff191617600855600080f35b34610162576020366003190112610162576004356000526003602052610e4d6040600020600281015460038201549160ff6004820154600583015490610e386001600686015495016114e2565b9560405197889760e0895260e089019061143a565b956020880152604087015260608601528181161515608086015260081c16151560a084015260c08301520390f35b3461016257602080600319360112610162576001600160a01b03610e9d611402565b1660005260058152604060002060405190818382549182815201908192600052846000209060005b86828210610f1b578686610edb82880383611418565b604051928392818401908285525180915260408401929160005b828110610f0457505050500390f35b835185528695509381019392810192600101610ef5565b835485529093019260019283019201610ec5565b346101625760a03660031901126101625760043567ffffffffffffffff8111610162573660238201121561016257806004013567ffffffffffffffff8111610a565760405191610f89601f8301601f191660200184611418565b81835236602483830101116101625781600092602460209301838601378301015260843590811515820361016257610fcc60018060a01b0360025416331461159e565b610fd76007546115db565b918260075560405190610120820182811067ffffffffffffffff821117610a5657604052838252826020830152602435604083015260443560608301526064356080830152151560a0820152600160c0820152600060e0820152600061010082015282600052600360205260406000209080518255602081015180519067ffffffffffffffff8211610a565761107060018501546114a8565b601f811161120b575b50602090601f831160011461116f577f3040bbc5c012df6c85e9f1cc10202ceda09051bc16d18aa369bf9ada2ba7716f959383611157969460079461010094600092611164575b50508160011b916000199060031b1c19161760018501555b6040810151600285015560608101516003850155608081015160048501556111346005850161111960a08401511515829060ff801983541691151516179055565b60c0830151815461ff00191690151560081b61ff0016179055565b60e08101516006850155015191015560405191829160408352604083019061143a565b60443560208301520390a2005b015190508a806110c0565b906001850160005260206000209160005b601f19851681106111f3575093600184600794610100947f3040bbc5c012df6c85e9f1cc10202ceda09051bc16d18aa369bf9ada2ba7716f9a986111579a98601f198116106111da575b505050811b0160018501556110d8565b015160001960f88460031b161c191690558a80806111ca565b91926020600181928685015181550194019201611180565b600185016000526020600020601f840160051c81016020851061124b575b601f830160051c8201811061123f575050611079565b60008155600101611229565b5080611229565b346101625760003660031901126101625760ff6112768160085460081c16156116da565b3360005260059060208281526040600020604051808284829454938481520190600052846000209260005b86828210611315575050506112b892500382611418565b60005b8151811015610251576112f890336000526004845260406000206112df828561198d565b516000528452848660406000200154166112fd576115db565b6112bb565b61131061130a828561198d565b51611718565b6115db565b85548452600195860195879550930192016112a1565b346101625760203660031901126101625761025160043561135460ff60085460081c16156116da565b33600052600460205260406000208160005260205261137d60ff6005604060002001541661168f565b611718565b346101625760403660031901126101625760a061139d611402565b602435600180841b0382166000526004602052604060002081600052602052604060002060018101549260ff60056113df60028501549560048601549461186c565b930154169260405194855260208501526040840152606083015215156080820152f35b600435906001600160a01b038216820361016257565b90601f8019910116810190811067ffffffffffffffff821117610a5657604052565b919082519283825260005b848110611466575050826000602080949584010152601f8019910116010190565b602081830181015184830182015201611445565b80548210156114925760005260206000200190600090565b634e487b7160e01b600052603260045260246000fd5b90600182811c921680156114d8575b60208310146114c257565b634e487b7160e01b600052602260045260246000fd5b91607f16916114b7565b90604051918260008254926114f6846114a8565b9081845260019485811690816000146115655750600114611522575b505061152092500383611418565b565b9093915060005260209081600020936000915b81831061154d57505061152093508201013880611512565b85548884018501529485019487945091830191611535565b91505061152094506020925060ff191682840152151560051b8201013880611512565b6040906003190112610162576004359060243590565b156115a557565b60405162461bcd60e51b815260206004820152600e60248201526d139bdd08185d5d1a1bdc9a5e995960921b6044820152606490fd5b60001981146106b45760010190565b156115f157565b60405162461bcd60e51b8152602060048201526013602482015272141bdbdb08191bd95cc81b9bdd08195e1a5cdd606a1b6044820152606490fd5b919082018092116106b457565b90816020910312610162575180151581036101625790565b1561165857565b60405162461bcd60e51b815260206004820152600f60248201526e151c985b9cd9995c8819985a5b1959608a1b6044820152606490fd5b1561169657565b60405162461bcd60e51b815260206004820152600f60248201526e4e6f20616374697665207374616b6560881b6044820152606490fd5b919082039182116106b457565b156116e157565b60405162461bcd60e51b815260206004820152600f60248201526e10db185a5b5a5b99c81c185d5cd959608a1b6044820152606490fd5b6000338152602060048152604080832084845282528083209261173b853361186c565b938461174a575b505050505050565b6004904260038201550161175f85825461162c565b90558481526003835260078282200161177985825461162c565b90558054825163a9059cbb60e01b8152336004820152602481018690529084908290604490829086906001600160a01b03165af191821561184e5791611831575b50156117f557907fdacbdde355ba930696a362ea6738feb9f8bd52dfb3d81947558fd3217e23e32591519283523392a3388080808080611742565b60649250519062461bcd60e51b82526004820152601660248201527514995dd85c99081d1c985b9cd9995c8819985a5b195960521b6044820152fd5b6118489150833d85116102795761026a8183611418565b386117ba565b8351903d90823e3d90fd5b818102929181159184041417156106b457565b60018060a01b038091169160009083825260209060048252604083209083528152604082209360ff6005860154161561198557816301e133806118db600397888452604087206118d560016118c48c850154426116cd565b9301546127109b8c93015490611859565b04611859565b049460015416916024604051809481936370a0823160e01b835260048301525afa91821561197a578392611948575b5050611917575b50905090565b612af8918281029281840414901517156119345750048038611911565b634e487b7160e01b81526011600452602490fd5b90809250813d8311611973575b61195f8183611418565b8101031261196f5751388061190a565b5080fd5b503d611955565b6040513d85823e3d90fd5b505091505090565b80518210156114925760209160051b01019056fea2646970667358221220876a98bcb98cbef46e5d06deb9df2fd43ac333d83b3cf1fbc1543cfcea8d9c6964736f6c634300081300333040bbc5c012df6c85e9f1cc10202ceda09051bc16d18aa369bf9ada2ba7716f",
  "linkReferences": {},
  "deployedLinkReferences": {}
}