{
  "_format": "hh-sol-artifact-1",
  "contractName": "Treasury",
  "sourceName": "contracts/Treasury.sol",
  "abi": [
    {
      "inputs": [
        {
          "internalType": "address",
          "name": "_hvnaToken",
          "type": "address"
        }
      ],
      "stateMutability": "nonpayable",
      "type": "constructor"
    },
    {
      "anonymous": false,
      "inputs": [
        {
          "indexed": false,
          "internalType": "enum Treasury.RevenueSource",
          "name": "source",
          "type": "uint8"
        },
        {
          "indexed": false,
          "internalType": "uint256",
          "name": "newRate",
          "type": "uint256"
        }
      ],
      "name": "BurnRateUpdated",
      "type": "event"
    },
    {
      "anonymous": false,
      "inputs": [
        {
          "indexed": false,
          "internalType": "address",
          "name": "to",
          "type": "address"
        },
        {
          "indexed": false,
          "internalType": "uint256",
          "name": "amount",
          "type": "uint256"
        }
      ],
      "name": "EmergencyWithdraw",
      "type": "event"
    },
    {
      "anonymous": false,
      "inputs": [
        {
          "indexed": true,
          "internalType": "uint256",
          "name": "entryId",
          "type": "uint256"
        },
        {
          "indexed": false,
          "internalType": "uint256",
          "name": "amount",
          "type": "uint256"
        },
        {
          "indexed": false,
          "internalType": "enum Treasury.RevenueSource",
          "name": "source",
          "type": "uint8"
        }
      ],
      "name": "RevenueReceived",
      "type": "event"
    },
    {
      "anonymous": false,
      "inputs": [
        {
          "indexed": false,
          "internalType": "uint256",
          "name": "ethAmount",
          "type": "uint256"
        },
        {
          "indexed": false,
          "internalType": "uint256",
          "name": "tokensReceived",
          "type": "uint256"
        }
      ],
      "name": "TokensBought",
      "type": "event"
    },
    {
      "anonymous": false,
      "inputs": [
        {
          "indexed": false,
          "internalType": "uint256",
          "name": "amount",
          "type": "uint256"
        },
        {
          "indexed": false,
          "internalType": "enum Treasury.RevenueSource",
          "name": "source",
          "type": "uint8"
        }
      ],
      "name": "TokensBurned",
      "type": "event"
    },
    {
      "inputs": [],
      "name": "BASIS_POINTS",
      "outputs": [
        {
          "internalType": "uint256",
          "name": "",
          "type": "uint256"
        }
      ],
      "stateMutability": "view",
      "type": "function"
    },
    {
      "inputs": [],
      "name": "burnEnabled",
      "outputs": [
        {
          "internalType": "bool",
          "name": "",
          "type": "bool"
        }
      ],
      "stateMutability": "view",
      "type": "function"
    },
    {
      "inputs": [],
      "name": "contentFlowBurnRate",
      "outputs": [
        {
          "internalType": "uint256",
          "name": "",
          "type": "uint256"
        }
      ],
      "stateMutability": "view",
      "type": "function"
    },
    {
      "inputs": [],
      "name": "getBalance",
      "outputs": [
        {
          "internalType": "uint256",
          "name": "ethBalance",
          "type": "uint256"
        },
        {
          "internalType": "uint256",
          "name": "tokenBalance",
          "type": "uint256"
        }
      ],
      "stateMutability": "view",
      "type": "function"
    },
    {
      "inputs": [
        {
          "internalType": "enum Treasury.RevenueSource",
          "name": "source",
          "type": "uint8"
        }
      ],
      "name": "getBurnRate",
      "outputs": [
        {
          "internalType": "uint256",
          "name": "",
          "type": "uint256"
        }
      ],
      "stateMutability": "view",
      "type": "function"
    },
    {
      "inputs": [
        {
          "internalType": "uint256",
          "name": "entryId",
          "type": "uint256"
        }
      ],
      "name": "getRevenueEntry",
      "outputs": [
        {
          "internalType": "uint256",
          "name": "amount",
          "type": "uint256"
        },
        {
          "internalType": "enum Treasury.RevenueSource",
          "name": "source",
          "type": "uint8"
        },
        {
          "internalType": "uint256",
          "name": "timestamp",
          "type": "uint256"
        },
        {
          "internalType": "uint256",
          "name": "tokensBurned",
          "type": "uint256"
        },
        {
          "internalType": "bool",
          "name": "processed",
          "type": "bool"
        }
      ],
      "stateMutability": "view",
      "type": "function"
    },
    {
      "inputs": [],
      "name": "governanceContract",
      "outputs": [
        {
          "internalType": "address",
          "name": "",
          "type": "address"
        }
      ],
      "stateMutability": "view",
      "type": "function"
    },
    {
      "inputs": [],
      "name": "hvnaToken",
      "outputs": [
        {
          "internalType": "contract IERC20",
          "name": "",
          "type": "address"
        }
      ],
      "stateMutability": "view",
      "type": "function"
    },
    {
      "inputs": [
        {
          "internalType": "uint256",
          "name": "amount",
          "type": "uint256"
        }
      ],
      "name": "manualBurn",
      "outputs": [],
      "stateMutability": "nonpayable",
      "type": "function"
    },
    {
      "inputs": [],
      "name": "nftRoyaltiesBurnRate",
      "outputs": [
        {
          "internalType": "uint256",
          "name": "",
          "type": "uint256"
        }
      ],
      "stateMutability": "view",
      "type": "function"
    },
    {
      "inputs": [],
      "name": "owner",
      "outputs": [
        {
          "internalType": "address",
          "name": "",
          "type": "address"
        }
      ],
      "stateMutability": "view",
      "type": "function"
    },
    {
      "inputs": [],
      "name": "paused",
      "outputs": [
        {
          "internalType": "bool",
          "name": "",
          "type": "bool"
        }
      ],
      "stateMutability": "view",
      "type": "function"
    },
    {
      "inputs": [],
      "name": "productSalesBurnRate",
      "outputs": [
        {
          "internalType": "uint256",
          "name": "",
          "type": "uint256"
        }
      ],
      "stateMutability": "view",
      "type": "function"
    },
    {
      "inputs": [
        {
          "internalType": "enum Treasury.RevenueSource",
          "name": "source",
          "type": "uint8"
        }
      ],
      "name": "receiveRevenue",
      "outputs": [],
      "stateMutability": "payable",
      "type": "function"
    },
    {
      "inputs": [],
      "name": "revenueCounter",
      "outputs": [
        {
          "internalType": "uint256",
          "name": "",
          "type": "uint256"
        }
      ],
      "stateMutability": "view",
      "type": "function"
    },
    {
      "inputs": [
        {
          "internalType": "uint256",
          "name": "",
          "type": "uint256"
        }
      ],
      "name": "revenueEntries",
      "outputs": [
        {
          "internalType": "uint256",
          "name": "amount",
          "type": "uint256"
        },
        {
          "internalType": "enum Treasury.RevenueSource",
          "name": "source",
          "type": "uint8"
        },
        {
          "internalType": "uint256",
          "name": "timestamp",
          "type": "uint256"
        },
        {
          "internalType": "uint256",
          "name": "tokensBurned",
          "type": "uint256"
        },
        {
          "internalType": "bool",
          "name": "processed",
          "type": "bool"
        }
      ],
      "stateMutability": "view",
      "type": "function"
    },
    {
      "inputs": [
        {
          "internalType": "enum Treasury.RevenueSource",
          "name": "source",
          "type": "uint8"
        },
        {
          "internalType": "uint256",
          "name": "newRate",
          "type": "uint256"
        }
      ],
      "name": "setBurnRate",
      "outputs": [],
      "stateMutability": "nonpayable",
      "type": "function"
    },
    {
      "inputs": [
        {
          "internalType": "address",
          "name": "_governance",
          "type": "address"
        }
      ],
      "name": "setGovernanceContract",
      "outputs": [],
      "stateMutability": "nonpayable",
      "type": "function"
    },
    {
      "inputs": [],
      "name": "toggleBurning",
      "outputs": [],
      "stateMutability": "nonpayable",
      "type": "function"
    },
    {
      "inputs": [],
      "name": "togglePause",
      "outputs": [],
      "stateMutability": "nonpayable",
      "type": "function"
    },
    {
      "inputs": [],
      "name": "totalRevenue",
      "outputs": [
        {
          "internalType": "uint256",
          "name": "",
          "type": "uint256"
        }
      ],
      "stateMutability": "view",
      "type": "function"
    },
    {
      "inputs": [],
      "name": "totalTokensBought",
      "outputs": [
        {
          "internalType": "uint256",
          "name": "",
          "type": "uint256"
        }
      ],
      "stateMutability": "view",
      "type": "function"
    },
    {
      "inputs": [],
      "name": "totalTokensBurned",
      "outputs": [
        {
          "internalType": "uint256",
          "name": "",
          "type": "uint256"
        }
      ],
      "stateMutability": "view",
      "type": "function"
    },
    {
      "inputs": [
        {
          "internalType": "address payable",
          "name": "to",
          "type": "address"
        },
        {
          "internalType": "uint256",
          "name": "amount",
          "type": "uint256"
        }
      ],
      "name": "withdrawETH",
      "outputs": [],
      "stateMutability": "nonpayable",
      "type": "function"
    },
    {
      "inputs": [
        {
          "internalType": "address",
          "name": "to",
          "type": "address"
        },
        {
          "internalType": "uint256",
          "name": "amount",
          "type": "uint256"
        }
      ],
      "name": "withdrawTokens",
      "outputs": [],
      "stateMutability": "nonpayable",
      "type": "function"
    },
    {
      "stateMutability": "payable",
      "type": "receive"
    }
  ],
  "bytecode": "0x6080346100a157601f61138a38819003918201601f19168301916001600160401b038311848410176100a6578084926020946040528339810103126100a157516001600160a01b038116908190036100a15760c8600655611388600755610bb86008556000600a5561010061ffff19600b541617600b5560018060a01b031990816000541617600055339060015416176001556040516112cd90816100bd8239f35b600080fd5b634e487b7160e01b600052604160045260246000fdfe60406080815260048036101561039c575b361561001b57600080fd5b60009160ff600b541661036757341561033657600a546000198114610323576001019182600a5561271061005160065434611126565b049082519061005f8261114f565b348252602092838301928784528581014281526060820189815260808301918a8352898b5260098852888b209351845560018401965196600588101561031057916100d9949391879360ff199960ff8b835416911617905551600285015551600384015551151591019060ff801983541691151516179055565b6100e5346003546111b7565b60035560ff600b5460081c1680610307575b61011c575b8560008051602061123883398151915286866000825191348352820152a2005b620186a0968782029782890414821517156102f457805486516370a0823160e01b8152308582015298906001600160a01b0316868a602481845afa998a156102ea57839a6102b7575b50896101cf575b50600080516020611238833981519152979850600193929160008051602061125883398151915288836101a282956005546111b7565b6005558151908682528a820152a189815260098752209060038201550191825416179055839238806100fc565b9180998083116000146102af57925b803b156102ab57819060248a5180948193630852cd8d60e31b8352888b8401525af180156102a157998880936001979695936000805160206112388339815191529c9d610270575b50600080516020611278833981519152828561025360008051602061125883398151915296978b546111b7565b8a55815190815260008d820152a19350505091929389985061016c565b826000805160206112588339815191529461029960008051602061127883398151915293611181565b945050610226565b88513d8c823e3d90fd5b5080fd5b5081926101de565b9099508681813d83116102e3575b6102cf8183611195565b810103126102df57519838610165565b8280fd5b503d6102c5565b88513d85823e3d90fd5b634e487b7160e01b815260118352602490fd5b508015156100f7565b634e487b7160e01b8c526021875260248cfd5b634e487b7160e01b845260118352602484fd5b906020606492519162461bcd60e51b8352820152600b60248201526a139bc8115512081cd95b9d60aa1b6044820152fd5b906020606492519162461bcd60e51b8352820152600f60248201526e10dbdb9d1c9858dd081c185d5cd959608a1b6044820152fd5b6000803560e01c806306b091f914610fbc5780631129753f14610f6c57806312065fe014610ed25780631700357c14610b1757806322dcb0a714610ad257806323b635851461091f578063319ebeef146107545780634782f7791461082d5780634b9cb3db1461080e57806354e5dec7146107ef5780635c975abb146107cb5780635dc96d16146107a45780636e4e9468146107545780637c4fe7431461065d5780637ce765281461063e5780638da5cb5b1461061557806397ae9a31146105e3578063b172b222146105ba578063baa9e5311461059b578063bf2d9e0b1461057c578063c4ae31681461053d578063d157e3011461051e578063dfad69f4146104ff578063e1f1c4a7146104e25763f25057f3146104bb5750610010565b82346102ab57816003193601126102ab57905490516001600160a01b039091168152602090f35b5082346102ab57816003193601126102ab57602090516127108152f35b5082346102ab57816003193601126102ab576020906007549051908152f35b509190346102df57826003193601126102df5760209250549051908152f35b503461057957806003193601126105795761056360018060a01b036001541633146111c4565b600b5460ff80821615169060ff191617600b5580f35b80fd5b5082346102ab57816003193601126102ab576020906003549051908152f35b5082346102ab57816003193601126102ab576020906005549051908152f35b5082346102ab57816003193601126102ab5760025490516001600160a01b039091168152602090f35b509190346102df5760203660031901126102df5735916005831015610579575061060e602092611201565b9051908152f35b5082346102ab57816003193601126102ab5760015490516001600160a01b039091168152602090f35b5082346102ab57816003193601126102ab576020906006549051908152f35b5082346102ab57806003193601126102ab57823560058110156102df5760025460243594906106a190336001600160a01b0391821614908115610746575b506111c4565b612710851161071357507fd7026c9f0d11fb8fbe37e25a8a8e57eafb5c486dc8c2e8b61858a709f13065bd929381156000146106f157806006555b6106e8835180936110d5565b6020820152a180f35b6001820361070257806007556106dc565b600282036106dc57806008556106dc565b606490602084519162461bcd60e51b8352820152600d60248201526c0a4c2e8ca40e8dede40d0d2ced609b1b6044820152fd5b90506001541633148761069b565b5082903461057957602036600319011261057957816107a091843581526009602052209182549260ff6001820154169460ff6002830154916003840154930154169251958695866110f8565b0390f35b5082346102ab57816003193601126102ab5760209060ff600b5460081c1690519015158152f35b5082346102ab57816003193601126102ab5760209060ff600b541690519015158152f35b5082346102ab57816003193601126102ab57602090600a549051908152f35b5082346102ab57816003193601126102ab576020906008549051908152f35b5091346102df57806003193601126102df576001600160a01b03918035838116919082900361091b57610871602435948060025416331490811561090d57506111c4565b8347106108d357508383828282156108ca575b839283928392f1156108c0577f5fafa99d0643513820be26656b45130b01e1c03062e1266bf36f88cbd3bd96959282519182526020820152a180f35b81513d85823e3d90fd5b506108fc610884565b606490602084519162461bcd60e51b83528201526014602482015273496e73756666696369656e742062616c616e636560601b6044820152fd5b90506001541633143861069b565b8480fd5b5091346102df5760209182600319360112610ace57600254813591906001600160a01b0390811633148015610ac1575b610958906111c4565b60ff600b5460081c1615610a8b5785541683516370a0823160e01b815230838201528581602481855afa908115610a81579084918891610a4b575b5010610a12578086913b156102ab578180916024875180948193630852cd8d60e31b835289898401525af18015610a08576109f4575b5050600080516020611278833981519152936109e68383546111b7565b82558351928352820152a180f35b6109fd90611181565b61091b5784386109c9565b85513d84823e3d90fd5b835162461bcd60e51b81528083018690526013602482015272496e73756666696369656e7420746f6b656e7360681b6044820152606490fd5b809250878092503d8311610a7a575b610a648183611195565b81010312610a755783905138610993565b600080fd5b503d610a5a565b85513d89823e3d90fd5b835162461bcd60e51b8152808301869052601060248201526f109d5c9b9a5b99c8191a5cd8589b195960821b6044820152606490fd5b506001548116331461094f565b8380fd5b5034610579578060031936011261057957610af860018060a01b036001541633146111c4565b600b5461ff0060ff8260081c161560081b169061ff00191617600b5580f35b50602083366003190182136102df578335916005831015610ace5760ff600b5416610e9e573415610e6e57600a546000198114610e5b576001019283600a55612710610b6b610b6583611201565b34611126565b0495835190610b798261114f565b348252838201918383528581014281526060820189815260808301918a8352898b5260098852888b2093518455600184019551956005871015610e485791610bf0949391869360ff199860ff8a835416911617905551600285015551600384015551151591019060ff801983541691151516179055565b610bfc346003546111b7565b60035560ff600b5460081c1680610e3f575b610c3c575b505090610c3883926000805160206112388339815191529451923484528301906110d5565ba280f35b620186a09788810298818a041481151715610e2c57875486516370a0823160e01b815230848201526001600160a01b03909116999086816024818e5afa9081156102a1578a91610dff575b5080610cf7575b5060008051602061123883398151915297989950916001916000805160206112588339815191528885610cc8610c389998976005546111b7565b6005558151908482528a820152a1898b5260098752878b20906003820155019182541617905590869594610c13565b80821115610df757995b803b15610df35789809160248d8b519485938492630852cd8d60e31b84528a8401525af180156102a157610d9d575b509160019160008051602061125883398151915288610c38979695600080516020611278833981519152826000805160206112388339815191529d9e9f610d788189546111b7565b88558151908152610d8b8d82018c6110d5565ba193959697505050918a999850610c8e565b9160008051602061125883398151915288610c3897969593600080516020611278833981519152826000805160206112388339815191529d9e610de1600199611181565b9e9d5050509395969750505091610d30565b8980fd5b508099610d01565b90508681813d8311610e25575b610e168183611195565b81010312610df357518b610c87565b503d610e0c565b634e487b7160e01b885260118252602488fd5b50871515610c0e565b634e487b7160e01b8c526021865260248cfd5b634e487b7160e01b855260118652602485fd5b8490606492519162461bcd60e51b8352820152600b60248201526a139bc8115512081cd95b9d60aa1b6044820152fd5b8490606492519162461bcd60e51b8352820152600f60248201526e10dbdb9d1c9858dd081c185d5cd959608a1b6044820152fd5b5034610579578060031936011261057957805483516370a0823160e01b81523093810193909352479290602090829060249082906001600160a01b03165afa918215610f61578092610f2d575b505082519182526020820152f35b9091506020823d8211610f59575b81610f4860209383611195565b810103126105795750513880610f1f565b3d9150610f3b565b8451903d90823e3d90fd5b503461057957602036600319011261057957610f866110bf565b6001546001600160a01b039190610fa090831633146111c4565b166bffffffffffffffffffffffff60a01b600254161760025580f35b5091346102df57806003193601126102df57610fd66110bf565b6002546020906001600160a01b03908116331480156110b2575b610ff9906111c4565b60448187541693878651958694859363a9059cbb60e01b8552168984015260243560248401525af19081156110a857849161106e575b5015611039578280f35b906020606492519162461bcd60e51b8352820152600f60248201526e151c985b9cd9995c8819985a5b1959608a1b6044820152fd5b90506020813d82116110a0575b8161108860209383611195565b81010312610ace57518015158103610ace573861102f565b3d915061107b565b82513d86823e3d90fd5b5060015481163314610ff0565b600435906001600160a01b0382168203610a7557565b9060058210156110e25752565b634e487b7160e01b600052602160045260246000fd5b93909594919261111560809460a0870198875260208701906110d5565b604085015260608401521515910152565b8181029291811591840414171561113957565b634e487b7160e01b600052601160045260246000fd5b60a0810190811067ffffffffffffffff82111761116b57604052565b634e487b7160e01b600052604160045260246000fd5b67ffffffffffffffff811161116b57604052565b90601f8019910116810190811067ffffffffffffffff82111761116b57604052565b9190820180921161113957565b156111cb57565b60405162461bcd60e51b815260206004820152600e60248201526d139bdd08185d5d1a1bdc9a5e995960921b6044820152606490fd5b60058110156110e25780611216575060065490565b60018103611225575060075490565b60021461123157600090565b6008549056fead392fbf1a5803029a732700dece94b6f9231edcd74ec6c21f3e35246f10752b3e493956bfdd236c2a95e6a17fc76ca69eae7e5d1f2a6d5cd8c4644abccaf19b5d981206e33cea61b9891d38d48a262b1d396871d096a9c6e7ed4bae9ef61234a26469706673582212204350565969addd485840c659694dbd94ec9f8dfa05a08100c9de6d528d4c126864736f6c63430008130033",
  "linkReferences": {},
  "deployedLinkReferences": {}
}